{
	"data": {
		"bytecode": {
			"linkReferences": {},
			"object": "6080604052600a80546001600160a01b0319167389980b53a2720ffe168c6f98dda9a4c753abcb4f179055348015610035575f80fd5b50604080518082018252601681527f50657069746f202d204d6574616d6f7270686f73697300000000000000000000602080830191909152825180840190935260048352630a08aa0960e31b90830152903360025f8484848481806100ad576040516306b620db60e21b815260040160405180910390fd5b6100b681610277565b506040805180820190915260048152632936598960e21b60208201526100fd907feafec4d89fa9619884b60000a4d96624a38f7ac2d8d9a604ecf07c12c77e480c906102e1565b6101277fdeba1e292f8ba88238e10ab3c7f88bd4be4fac56cad5194b6ecceaf653468af1856102e1565b6101517f2f0a68ab07768e01943a599e73362a0e17a63a72e94dd2e384d2c1d4db932756846102e1565b6040805160208101839052610198917fe0261fa95db2eb3b5439bd033cda66d56b96f92f243a8228fd87550ed7bdfdb3910160408051601f198184030181529190526102e1565b505060408051602081018590526101e393507ff675e9361af1c1664c1868cfa3eb97672d6b1a513aa5b81dec34c9ee330e818d92500160408051601f19818403018152919052610335565b50506007805460ff191690555050604080516c6d6574616d6f7270686f73697360981b81526009600d820152815190819003602d01812068d8d726b7177a800000905560c081019091526095808252909150613ef06020830139604080516c4d6574616d6f7270686f73697360981b8152600c600d820152905190819003602d01902090610271908261049b565b5061058a565b5f546001600160a01b038281169116146102de575f80546040516001600160a01b03808516939216917f8be0079c531659141344cd1fd0a4f28419497f9722a3daafe3b4186f6b6457e091a35f80546001600160a01b0319166001600160a01b0383161790555b50565b5f8281526001602052604090206102f8828261049b565b50817fece574603820d07bc9b91f2a932baadf4628aabcb8afba49776529c14a6104b2826040516103299190610555565b60405180910390a25050565b61033f8282610343565b5050565b7f2145e1d6d074577dc71ef54c3807742b41b053a9352ae6b491331509acb9750f8201610383576040516385c169bd60e01b815260040160405180910390fd5b7fd0f59754f88971fe6bc5a6618cc9d5f1e859c58d16b22d1c7b2d3e2b246cd8aa82016103c357604051630eceab6760e31b815260040160405180910390fd5b7f1fd9e056a24d14c4abc642fcc325992a946906d0dbc57dd70278aaf12842024d82016102e157604051634ef6d7fb60e01b815260040160405180910390fd5b634e487b7160e01b5f52604160045260245ffd5b600181811c9082168061042b57607f821691505b60208210810361044957634e487b7160e01b5f52602260045260245ffd5b50919050565b601f82111561049657805f5260205f20601f840160051c810160208510156104745750805b601f840160051c820191505b81811015610493575f8155600101610480565b50505b505050565b81516001600160401b038111156104b4576104b4610403565b6104c8816104c28454610417565b8461044f565b6020601f8211600181146104fa575f83156104e35750848201515b5f19600385901b1c1916600184901b178455610493565b5f84815260208120601f198516915b828110156105295787850151825560209485019460019092019101610509565b508482101561054657868401515f19600387901b60f8161c191681555b50505050600190811b01905550565b602081525f82518060208401528060208501604085015e5f604082850101526040601f19601f83011684010191505092915050565b613959806105975f395ff3fe608060405260043610610228575f3560e01c8063715018a611610122578063a3b261f2116100aa578063db8c96631161006e578063db8c9663146106e8578063dedff9c614610707578063f2fde38b14610726578063fa452dd314610745578063fe2c61981461076457610281565b8063a3b261f214610640578063b9b79a2b1461066c578063be9f0e6f1461068b578063d11a1f07146106aa578063d6c1407c146106c957610281565b806384c4bd4b116100f157806384c4bd4b146105bd57806386a10ddd146105d35780638d6cc56d146105f25780638da5cb5b14610611578063979024211461062d57610281565b8063715018a6146105635780637e87632c146105775780637f23690c146105965780638456cb59146105a957610281565b80633f4ba83a116101b05780635c975abb116101745780635c975abb146104ab5780635e05e3d3146104c25780636963d438146105065780637041e3781461052557806370a082311461054457610281565b80633f4ba83a1461040e57806349a6078d14610422578063511b69521461044e57806354f6127f1461046d57806356a6d9ef1461048c57610281565b80631d26fce6116101f75780631d26fce6146103575780631e3c21f614610383578063217b2270146103a45780632a3654a4146103db5780633ccfd60b146103fa57610281565b806301ffc9a7146102c157806312065fe0146102f557806316e023b31461031757806318160ddd1461034357610281565b3661028157345f036102685760405163e5099ee360e01b815260040161025f9060208082526004908201525f604082015260600190565b60405180910390fd5b6040516330fa4a2160e11b815260040160405180910390fd5b5f36606060048210156102ab57828260405163e5099ee360e01b815260040161025f929190612995565b6102b5838361079b565b80519350602001915050f35b3480156102cc575f80fd5b506102e06102db3660046129c3565b61088a565b60405190151581526020015b60405180910390f35b348015610300575f80fd5b506103096108bd565b6040519081526020016102ec565b348015610322575f80fd5b506103366103313660046129ea565b6108cb565b6040516102ec9190612a38565b34801561034e575f80fd5b50600254610309565b348015610362575f80fd5b50610376610371366004612b1a565b6108de565b6040516102ec9190612b7d565b34801561038e575f80fd5b506103a261039d366004612c55565b6109c4565b005b3480156103af575f80fd5b506103c36103be366004612cae565b610a33565b6040516001600160a01b0390911681526020016102ec565b3480156103e6575f80fd5b506102e06103f5366004612cd9565b610a6b565b348015610405575f80fd5b506103a2610a76565b348015610419575f80fd5b506103a2610b1b565b34801561042d575f80fd5b5061044161043c366004612cae565b610b2d565b6040516102ec9190612d03565b348015610459575f80fd5b506103a2610468366004612d5d565b610b4e565b348015610478575f80fd5b50610336610487366004612cae565b610b92565b348015610497575f80fd5b506103a26104a6366004612cd9565b610b9d565b3480156104b6575f80fd5b5060075460ff166102e0565b3480156104cd575f80fd5b506104e16104dc366004612cae565b610c32565b604080516001600160a01b0390941684526020840192909252908201526060016102ec565b348015610511575f80fd5b50610376610520366004612dd4565b610c6d565b348015610530575f80fd5b5061044161053f366004612cae565b610d97565b34801561054f575f80fd5b5061030961055e366004612e43565b610e05565b34801561056e575f80fd5b506103a2610e25565b348015610582575f80fd5b506103a2610591366004612fa2565b610e36565b6103a26105a4366004613073565b610f24565b3480156105b4575f80fd5b506103a2610f55565b3480156105c8575f80fd5b506008546103099081565b3480156105de575f80fd5b506103a26105ed3660046130a0565b610f65565b3480156105fd575f80fd5b506103a261060c366004612cae565b6110dc565b34801561061c575f80fd5b505f546001600160a01b03166103c3565b6103a261063b3660046130f4565b611156565b34801561064b575f80fd5b5061065f61065a366004612e43565b61120f565b6040516102ec919061314d565b348015610677575f80fd5b50610336610686366004613184565b611232565b348015610696575f80fd5b506103a26106a53660046131b5565b6112d5565b3480156106b5575f80fd5b506103366106c4366004613184565b61139e565b3480156106d4575f80fd5b506103a26106e3366004613236565b6114c3565b3480156106f3575f80fd5b506103a261070236600461326b565b6114d6565b348015610712575f80fd5b506103766107213660046132d0565b6115b7565b348015610731575f80fd5b506103a2610740366004612e43565b611660565b348015610750575f80fd5b5061030961075f366004612cae565b61169b565b34801561076f575f80fd5b5061030961077e366004613184565b805160208183018101805160098252928201919093012091525481565b60605f6107b25f356001600160e01b03191661194f565b5090506001600160a01b0381166107e95760405163bb370b2b60e01b81526001600160e01b03195f3516600482015260240161025f565b5f80826001600160a01b0316348787333460405160200161080d9493929190613301565b60408051601f198184030181529082905261082791613343565b5f6040518083038185875af1925050503d805f8114610861576040519150601f19603f3d011682016040523d82523d5f602084013e610866565b606091505b5091509150811561087b579250610884915050565b80518060208301fd5b92915050565b5f6001600160e01b03198216631d138b8360e11b14806108ae57506108ae826119cb565b806108845750610884826119ef565b5f6108c6611a24565b504790565b60606108d78383611a5f565b9392505050565b60608151835114610902576040516317d38eff60e11b815260040160405180910390fd5b82516001600160401b0381111561091b5761091b612a4a565b60405190808252806020026020018201604052801561094e57816020015b60608152602001906001900390816109395790505b5090505f5b83518110156109bd576109988482815181106109715761097161334e565b602002602001015184838151811061098b5761098b61334e565b6020026020010151611a5f565b8282815181106109aa576109aa61334e565b6020908102919091010152600101610953565b5092915050565b6109cc611a24565b80600c836040516109dd9190613343565b908152602001604051809103902090816109f791906133d8565b507fef5f0d81ef4262ec3b7b67b7e5a17646a18db55002eed51f1de46cfb6ce9716c81604051610a279190612a38565b60405180910390a15050565b5f818152600360205260408120546001600160a01b03168061088457604051635747cd1b60e11b81526004810184905260240161025f565b5f6108d78383611b0a565b610a7e611a24565b475f610a915f546001600160a01b031690565b6001600160a01b0316826040515f6040518083038185875af1925050503d805f8114610ad8576040519150601f19603f3d011682016040523d82523d5f602084013e610add565b606091505b5050905080610b175760405162461bcd60e51b815260206004820152600660248201526511985a5b195960d21b604482015260640161025f565b5050565b610b23611a24565b610b2b611b45565b565b6060610b3882611b97565b5f82815260056020526040902061088490611bce565b610b583384611b0a565b610b7e57604051631294d2a960e01b81526004810184905233602482015260440161025f565b610b8b8585858585611bda565b5050505050565b606061088482611db6565b610ba5611a24565b5f826001600160a01b0316826040515f6040518083038185875af1925050503d805f8114610bee576040519150601f19603f3d011682016040523d82523d5f602084013e610bf3565b606091505b5050905080610c2d5760405162461bcd60e51b815260206004820152600660248201526511985a5b195960d21b604482015260640161025f565b505050565b600b8181548110610c41575f80fd5b5f9182526020909120600390910201805460018201546002909201546001600160a01b03909116925083565b6060816001600160401b03811115610c8757610c87612a4a565b604051908082528060200260200182016040528015610cba57816020015b6060815260200190600190039081610ca55790505b5090505f5b828110156109bd575f8030868685818110610cdc57610cdc61334e565b9050602002810190610cee9190613492565b604051610cfc9291906134db565b5f60405180830381855af49150503d805f8114610d34576040519150601f19603f3d011682016040523d82523d5f602084013e610d39565b606091505b509150915081610d6f57805115610d535780518082602001fd5b60405163234eb81960e01b81526004810184905260240161025f565b80848481518110610d8257610d8261334e565b60209081029190910101525050600101610cbf565b600a546040516349a6078d60e01b8152600481018390526060916001600160a01b0316906349a6078d906024015f60405180830381865afa158015610dde573d5f803e3d5ffd5b505050506040513d5f823e601f3d908101601f1916820160405261088491908101906134ea565b6001600160a01b0381165f90815260046020526040812061088490611e55565b610e2d611a24565b610b2b5f611e5e565b8451845181141580610e49575083518114155b80610e55575082518114155b80610e61575081518114155b15610e7f576040516393a8311960e01b815260040160405180910390fd5b5f5b81811015610f1b57610f13878281518110610e9e57610e9e61334e565b6020026020010151878381518110610eb857610eb861334e565b6020026020010151878481518110610ed257610ed261334e565b6020026020010151878581518110610eec57610eec61334e565b6020026020010151878681518110610f0657610f0661334e565b6020026020010151610b4e565b600101610e81565b50505050505050565b610f2c611a24565b3415610f4b5760405163f36ba73760e01b815260040160405180910390fd5b610b178282611ec9565b610f5d611a24565b610b2b611f13565b5f610f6f83610a33565b90506001600160a01b0381163314610fb257604051632d938f5160e11b81526001600160a01b03821660048201526024810184905233604482015260640161025f565b6001600160a01b038416610fd957604051639577b8b360e01b815260040160405180910390fd5b836001600160a01b0316816001600160a01b03160361100b576040516344fed6b160e11b815260040160405180910390fd5b5f8381526005602052604081206110229086611f50565b905080611054576040516314ec4d6d60e31b81526001600160a01b03861660048201526024810185905260440161025f565b83826001600160a01b0316866001600160a01b03167f1b1b58aa2ec0cec2228b2d37124556d41f5a1f7b12f089171f896cc236671215866040516110989190612a38565b60405180910390a45f33856001866040516020016110b99493929190613583565b60405160208183030381529060405290506110d48682611f64565b505050505050565b6110e4611a24565b806009604051611107906c6d6574616d6f7270686f73697360981b8152600d0190565b908152602001604051809103902081905550807f945c1c4e99aa89f648fbfe3df471b916f719e16d960fcec0737d4d56bd6968384260405161114b91815260200190565b60405180910390a250565b61115e611a24565b341561117d5760405163f36ba73760e01b815260040160405180910390fd5b805182511461119f57604051633bcc897960e01b815260040160405180910390fd5b81515f036111c0576040516397da5f9560e01b815260040160405180910390fd5b5f5b8251811015610c2d576112078382815181106111e0576111e061334e565b60200260200101518383815181106111fa576111fa61334e565b6020026020010151611ec9565b6001016111c2565b6001600160a01b0381165f90815260046020526040902060609061088490611bce565b8051602081830181018051600c825292820191909301209152805461125690613362565b80601f016020809104026020016040519081016040528092919081815260200182805461128290613362565b80156112cd5780601f106112a4576101008083540402835291602001916112cd565b820191905f5260205f20905b8154815290600101906020018083116112b057829003601f168201915b505050505081565b6112dd611a24565b815183511415806112f057508051825114155b1561130e576040516317d38eff60e11b815260040160405180910390fd5b82515f0361132f576040516380c9830560e01b815260040160405180910390fd5b5f5b83518110156113985761139084828151811061134f5761134f61334e565b60200260200101518483815181106113695761136961334e565b60200260200101518484815181106113835761138361334e565b6020026020010151611f8f565b600101611331565b50505050565b60605f600c836040516113b19190613343565b9081526040519081900360200181206113c9916135b1565b604051809103902061147e600c856040516113e49190613343565b908152602001604051809103902080546113fd90613362565b80601f016020809104026020016040519081016040528092919081815260200182805461142990613362565b80156114745780601f1061144b57610100808354040283529160200191611474565b820191905f5260205f20905b81548152906001019060200180831161145757829003601f168201915b5050505050611ff0565b60405160200161148e919061361e565b60408051601f19818403018152908290526114ac929160200161364f565b60408051601f198184030181529190529392505050565b6114cb611a24565b610c2d838383611f8f565b5f6114e084610a33565b9050336001600160a01b03821614611533576001600160a01b03851633146115335760405163760b5acd60e01b81523360048201526001600160a01b03821660248201526044810185905260640161025f565b6001600160a01b03851661155a57604051639577b8b360e01b815260040160405180910390fd5b846001600160a01b0316816001600160a01b03160361158c576040516344fed6b160e11b815260040160405180910390fd5b611599858286868661214a565b8215610b8b575f81855f856040516020016110b99493929190613583565b606081516001600160401b038111156115d2576115d2612a4a565b60405190808252806020026020018201604052801561160557816020015b60608152602001906001900390816115f05790505b5090505f5b825181101561165a576116358382815181106116285761162861334e565b6020026020010151611db6565b8282815181106116475761164761334e565b602090810291909101015260010161160a565b50919050565b611668611a24565b6001600160a01b03811661168f576040516306b620db60e21b815260040160405180910390fd5b61169881611e5e565b50565b5f6116a46121e9565b33600a54604051630217b22760e41b8152600481018590526001600160a01b03928316929091169063217b227090602401602060405180830381865afa1580156116f0573d5f803e3d5ffd5b505050506040513d601f19601f820116820180604052508101906117149190613670565b6001600160a01b03161461173a576040516282b42960e81b815260040160405180910390fd5b600a546001600160a01b031663511b69523360018560016040518563ffffffff1660e01b8152600401611770949392919061368b565b5f604051808303815f87803b158015611787575f80fd5b505af1158015611799573d5f803e3d5ffd5b505050507313fe7655c1bef7864dfc206838a20d00e5ce60a16001600160a01b031663760d9bba6117c73390565b600160096040516117eb906c6d6574616d6f7270686f73697360981b8152600d0190565b908152604051908190036020018120546001600160e01b031960e086901b16825261181d93929160019060040161368b565b5f604051808303815f87803b158015611834575f80fd5b505af1158015611846573d5f803e3d5ffd5b50505050611858600880546001019055565b5f61186260085490565b905061187f3382600160405180602001604052805f81525061220d565b6118d9817f9afb95cacc9f95858ec44aa8c3b685511002e30ae54415823f406128b85b238e5f1b6118d46040518060400160405280600d81526020016c4d6574616d6f7270686f73697360981b81525061139e565b611f8f565b600b60405180606001604052806118ed3390565b6001600160a01b0390811682526020808301889052426040938401528454600180820187555f96875295829020855160039092020180546001600160a01b0319169190931617825583015193810193909355015160029091015590505b919050565b5f8080611973696773c5a04a6d4300884b60b11b6001600160e01b03198616612376565b90505f61197f82611db6565b905080516014141580156119935750805115155b156119b357806040516342bfe79f60e01b815260040161025f9190612a38565b6119bc816136c2565b60601c95600195509350505050565b5f6001600160e01b0319821663a918fa6b60e01b14806108845750610884826123c9565b5f80611a016301ffc9a760e01b61194f565b5090506001600160a01b038116611a1a57505f92915050565b6108d781846123fd565b33611a365f546001600160a01b031690565b6001600160a01b031614610b2b5760405163bf1169c560e01b815233600482015260240161025f565b5f8281526006602090815260408083208484529091529020805460609190611a8690613362565b80601f0160208091040260200160405190810160405280929190818152602001828054611ab290613362565b8015611afd5780601f10611ad457610100808354040283529160200191611afd565b820191905f5260205f20905b815481529060010190602001808311611ae057829003601f168201915b5050505050905092915050565b5f611b1482610a33565b6001600160a01b0316836001600160a01b031614806108d757505f8281526005602052604090206108d79084612483565b611b4d6124a4565b6007805460ff191690557f5db9ee0a495bf2e6ff9c91a7834c1ba4fdd244a5e8aa4e537bd38aeae4b073aa335b6040516001600160a01b03909116815260200160405180910390a1565b5f818152600360205260409020546001600160a01b031661169857604051635747cd1b60e11b81526004810182905260240161025f565b60605f6108d7836124c7565b5f611be484610a33565b9050856001600160a01b0316816001600160a01b031614611c3257604051632d938f5160e11b81526001600160a01b038083166004830152602482018690528716604482015260640161025f565b6001600160a01b038516611c59576040516324ecef4d60e01b815260040160405180910390fd5b5f611c6385610a33565b9050806001600160a01b0316826001600160a01b031614611cb157604051635a9c31d360e01b8152600481018690526001600160a01b0380841660248301528216604482015260640161025f565b611cbb878661251f565b6001600160a01b0387165f908152600460205260409020611cdc9086612572565b506001600160a01b0386165f908152600460205260409020611cfe908661257d565b505f858152600360205260409081902080546001600160a01b0319166001600160a01b0389811691821790925591518792918a16907fb333c813a7426a7a11e2b190cad52c44119421594b47f6f32ace6d8c7207b2bf90611d649033908a908a90613710565b60405180910390a45f3388888887604051602001611d86959493929190613744565b6040516020818303038152906040529050611da18882612588565b611dac8786836125b3565b5050505050505050565b5f818152600160205260409020805460609190611dd290613362565b80601f0160208091040260200160405190810160405280929190818152602001828054611dfe90613362565b8015611e495780601f10611e2057610100808354040283529160200191611e49565b820191905f5260205f20905b815481529060010190602001808311611e2c57829003601f168201915b50505050509050919050565b5f610884825490565b5f546001600160a01b03828116911614611698575f80546040516001600160a01b03808516939216917f8be0079c531659141344cd1fd0a4f28419497f9722a3daafe3b4186f6b6457e091a35f80546001600160a01b0383166001600160a01b031990911617905550565b7f098a16c9e50e3e99b3e797305c146898d294e5aec55a47e213cb3611ccf17e738201611f0957604051631b32400560e11b815260040160405180910390fd5b610b1782826126b6565b611f1b6121e9565b6007805460ff191660011790557f62e78cea01bee320cd4e420270b5ea74000d11b0c9f74754ebdbfc544b05a258611b7a3390565b5f6108d7836001600160a01b0384166126c0565b610b17827f8a1c15a8799f71b547e08e2bcb2e85257e81b0a07eee2ce6712549eef1f009708361270c565b5f8381526006602090815260408083208584529091529020611fb182826133d8565b5081837fa6e4251f855f750545fe414f120db91c76b88def14d120969e5bb2d3f05debbb83604051611fe39190612a38565b60405180910390a3505050565b606081515f0361200d57505060408051602081019091525f815290565b5f6040518060600160405280604081526020016138e46040913990505f60038451600261203a9190613792565b61204491906137a5565b61204f9060046137c4565b6001600160401b0381111561206657612066612a4a565b6040519080825280601f01601f191660200182016040528015612090576020820181803683370190505b509050600182016020820185865187016020810180515f82525b82841015612105576003840193508351603f8160121c168701518653600186019550603f81600c1c168701518653600186019550603f8160061c168701518653600186019550603f81168701518653506001850194506120aa565b905250508551600390066001811461212457600281146121375761213f565b603d6001830353603d600283035361213f565b603d60018303535b509195945050505050565b5f8381526005602052604081206121619087612759565b905080612193576040516312a8c6a360e21b81526001600160a01b03871660048201526024810185905260440161025f565b83856001600160a01b0316876001600160a01b03167fc78cd419d6136f9f1c1c6aec1d3fae098cffaf8bc86314a8f2685e32fe574e3c86866040516121d99291906137db565b60405180910390a4505050505050565b60075460ff1615610b2b5760405163d93c066560e01b815260040160405180910390fd5b6001600160a01b038416612234576040516324ecef4d60e01b815260040160405180910390fd5b5f838152600360205260409020546001600160a01b03161561226c576040516334c7b51160e01b81526004810184905260240161025f565b5f838152600360205260409020546001600160a01b0316156122a4576040516334c7b51160e01b81526004810184905260240161025f565b60025f81546122b2906137f5565b909155506001600160a01b0384165f9081526004602052604090206122d7908461257d565b505f8381526003602052604080822080546001600160a01b0319166001600160a01b03881690811790915590518592907fb333c813a7426a7a11e2b190cad52c44119421594b47f6f32ace6d8c7207b2bf9061233890339088908890613710565b60405180910390a45f335f86868560405160200161235a959493929190613744565b6040516020818303038152906040529050610b8b8584836125b3565b604080516001600160b01b0319841660208201525f602a82018190526001600160601b03198416602c830152918291016040516020818303038152906040529050806123c19061380d565b949350505050565b5f6001600160e01b031982166318a6a9a560e21b148061088457506301ffc9a760e01b6001600160e01b0319831614610884565b604080516001600160e01b03198316602480830191909152825180830390910181526044909101909152602080820180516001600160e01b03166301ffc9a760e01b17815282515f9392849283928392918391908a617530fa92503d91505f51905082801561246d575060208210155b801561247857505f81115b979650505050505050565b6001600160a01b0381165f90815260018301602052604081205415156108d7565b60075460ff16610b2b57604051638dfc202b60e01b815260040160405180910390fd5b6060815f01805480602002602001604051908101604052809291908181526020018280548015611e4957602002820191905f5260205f20905b8154815260200190600101908083116125005750505050509050919050565b5f8181526005602052604081209061253682611e55565b90505f805b828110156110d45761254d845f61276d565b915061256a8287875f60405180602001604052805f81525061214a565b60010161253b565b5f6108d78383612778565b5f6108d783836126c0565b610b17827fb23eae7e6d1564b295b4c3e3be402d9a2f0776c57bdf365903496f6fa481ab008361270c565b6125c483631aed5a8560e21b6123fd565b1561265957604051631aed5a8560e21b81526001600160a01b03841690636bb56a1490612617907f0b084a55ebf70fd3c06fd755269dac2212c4d3f0f4d09079780bfa50c1b2984d908590600401613830565b5f604051808303815f875af1158015612632573d5f803e3d5ffd5b505050506040513d5f823e601f3d908101601f191682016040526113989190810190613848565b81610c2d576001600160a01b0383163b1561269257604051634349776d60e01b81526001600160a01b038416600482015260240161025f565b604051630317313760e01b81526001600160a01b038416600482015260240161025f565b610b17828261285b565b5f81815260018301602052604081205461270557508154600181810184555f848152602080822090930184905584548482528286019093526040902091909155610884565b505f610884565b6127266001600160a01b038416631aed5a8560e21b6123fd565b15610c2d57604051631aed5a8560e21b81526001600160a01b03841690636bb56a14906126179085908590600401613830565b5f6108d7836001600160a01b038416612778565b5f6108d7838361296f565b5f8181526001830160205260408120548015612852575f61279a6001836138bc565b85549091505f906127ad906001906138bc565b905081811461280c575f865f0182815481106127cb576127cb61334e565b905f5260205f200154905080875f0184815481106127eb576127eb61334e565b5f918252602080832090910192909255918252600188019052604090208390555b855486908061281d5761281d6138cf565b600190038181905f5260205f20015f90559055856001015f8681526020019081526020015f205f905560019350505050610884565b5f915050610884565b7f2145e1d6d074577dc71ef54c3807742b41b053a9352ae6b491331509acb9750f820161289b576040516385c169bd60e01b815260040160405180910390fd5b7fd0f59754f88971fe6bc5a6618cc9d5f1e859c58d16b22d1c7b2d3e2b246cd8aa82016128db57604051630eceab6760e31b815260040160405180910390fd5b7f1fd9e056a24d14c4abc642fcc325992a946906d0dbc57dd70278aaf12842024d820161291b57604051634ef6d7fb60e01b815260040160405180910390fd5b5f82815260016020526040902061293282826133d8565b50817fece574603820d07bc9b91f2a932baadf4628aabcb8afba49776529c14a6104b2826040516129639190612a38565b60405180910390a25050565b5f825f0182815481106129845761298461334e565b905f5260205f200154905092915050565b60208152816020820152818360408301375f818301604090810191909152601f909201601f19160101919050565b5f602082840312156129d3575f80fd5b81356001600160e01b0319811681146108d7575f80fd5b5f80604083850312156129fb575f80fd5b50508035926020909101359150565b5f81518084528060208401602086015e5f602082860101526020601f19601f83011685010191505092915050565b602081525f6108d76020830184612a0a565b634e487b7160e01b5f52604160045260245ffd5b604051601f8201601f191681016001600160401b0381118282101715612a8657612a86612a4a565b604052919050565b5f6001600160401b03821115612aa657612aa6612a4a565b5060051b60200190565b5f82601f830112612abf575f80fd5b8135612ad2612acd82612a8e565b612a5e565b8082825260208201915060208360051b860101925085831115612af3575f80fd5b602085015b83811015612b10578035835260209283019201612af8565b5095945050505050565b5f8060408385031215612b2b575f80fd5b82356001600160401b03811115612b40575f80fd5b612b4c85828601612ab0565b92505060208301356001600160401b03811115612b67575f80fd5b612b7385828601612ab0565b9150509250929050565b5f602082016020835280845180835260408501915060408160051b8601019250602086015f5b82811015612bd457603f19878603018452612bbf858351612a0a565b94506020938401939190910190600101612ba3565b50929695505050505050565b5f6001600160401b03821115612bf857612bf8612a4a565b50601f01601f191660200190565b5f82601f830112612c15575f80fd5b8135602083015f612c28612acd84612be0565b9050828152858383011115612c3b575f80fd5b828260208301375f92810160200192909252509392505050565b5f8060408385031215612c66575f80fd5b82356001600160401b03811115612c7b575f80fd5b612c8785828601612c06565b92505060208301356001600160401b03811115612ca2575f80fd5b612b7385828601612c06565b5f60208284031215612cbe575f80fd5b5035919050565b6001600160a01b0381168114611698575f80fd5b5f8060408385031215612cea575f80fd5b8235612cf581612cc5565b946020939093013593505050565b602080825282518282018190525f918401906040840190835b81811015612d435783516001600160a01b0316835260209384019390920191600101612d1c565b509095945050505050565b8035801515811461194a575f80fd5b5f805f805f60a08688031215612d71575f80fd5b8535612d7c81612cc5565b94506020860135612d8c81612cc5565b935060408601359250612da160608701612d4e565b915060808601356001600160401b03811115612dbb575f80fd5b612dc788828901612c06565b9150509295509295909350565b5f8060208385031215612de5575f80fd5b82356001600160401b03811115612dfa575f80fd5b8301601f81018513612e0a575f80fd5b80356001600160401b03811115612e1f575f80fd5b8560208260051b8401011115612e33575f80fd5b6020919091019590945092505050565b5f60208284031215612e53575f80fd5b81356108d781612cc5565b5f82601f830112612e6d575f80fd5b8135612e7b612acd82612a8e565b8082825260208201915060208360051b860101925085831115612e9c575f80fd5b602085015b83811015612b10578035612eb481612cc5565b835260209283019201612ea1565b5f82601f830112612ed1575f80fd5b8135612edf612acd82612a8e565b8082825260208201915060208360051b860101925085831115612f00575f80fd5b602085015b83811015612b1057612f1681612d4e565b835260209283019201612f05565b5f82601f830112612f33575f80fd5b8135612f41612acd82612a8e565b8082825260208201915060208360051b860101925085831115612f62575f80fd5b602085015b83811015612b105780356001600160401b03811115612f84575f80fd5b612f93886020838a0101612c06565b84525060209283019201612f67565b5f805f805f60a08688031215612fb6575f80fd5b85356001600160401b03811115612fcb575f80fd5b612fd788828901612e5e565b95505060208601356001600160401b03811115612ff2575f80fd5b612ffe88828901612e5e565b94505060408601356001600160401b03811115613019575f80fd5b61302588828901612ab0565b93505060608601356001600160401b03811115613040575f80fd5b61304c88828901612ec2565b92505060808601356001600160401b03811115613067575f80fd5b612dc788828901612f24565b5f8060408385031215613084575f80fd5b8235915060208301356001600160401b03811115612ca2575f80fd5b5f805f606084860312156130b2575f80fd5b83356130bd81612cc5565b92506020840135915060408401356001600160401b038111156130de575f80fd5b6130ea86828701612c06565b9150509250925092565b5f8060408385031215613105575f80fd5b82356001600160401b0381111561311a575f80fd5b61312685828601612ab0565b92505060208301356001600160401b03811115613141575f80fd5b612b7385828601612f24565b602080825282518282018190525f918401906040840190835b81811015612d43578351835260209384019390920191600101613166565b5f60208284031215613194575f80fd5b81356001600160401b038111156131a9575f80fd5b6123c184828501612c06565b5f805f606084860312156131c7575f80fd5b83356001600160401b038111156131dc575f80fd5b6131e886828701612ab0565b93505060208401356001600160401b03811115613203575f80fd5b61320f86828701612ab0565b92505060408401356001600160401b0381111561322a575f80fd5b6130ea86828701612f24565b5f805f60608486031215613248575f80fd5b833592506020840135915060408401356001600160401b038111156130de575f80fd5b5f805f806080858703121561327e575f80fd5b843561328981612cc5565b93506020850135925061329e60408601612d4e565b915060608501356001600160401b038111156132b8575f80fd5b6132c487828801612c06565b91505092959194509250565b5f602082840312156132e0575f80fd5b81356001600160401b038111156132f5575f80fd5b6123c184828501612ab0565b8385823760609290921b6001600160601b031916919092019081526014810191909152603401919050565b5f81518060208401855e5f93019283525090919050565b5f6108d7828461332c565b634e487b7160e01b5f52603260045260245ffd5b600181811c9082168061337657607f821691505b60208210810361165a57634e487b7160e01b5f52602260045260245ffd5b601f821115610c2d57805f5260205f20601f840160051c810160208510156133b95750805b601f840160051c820191505b81811015610b8b575f81556001016133c5565b81516001600160401b038111156133f1576133f1612a4a565b613405816133ff8454613362565b84613394565b6020601f821160018114613437575f83156134205750848201515b5f19600385901b1c1916600184901b178455610b8b565b5f84815260208120601f198516915b828110156134665787850151825560209485019460019092019101613446565b508482101561348357868401515f19600387901b60f8161c191681555b50505050600190811b01905550565b5f808335601e198436030181126134a7575f80fd5b8301803591506001600160401b038211156134c0575f80fd5b6020019150368190038213156134d4575f80fd5b9250929050565b818382375f9101908152919050565b5f602082840312156134fa575f80fd5b81516001600160401b0381111561350f575f80fd5b8201601f8101841361351f575f80fd5b805161352d612acd82612a8e565b8082825260208201915060208360051b85010192508683111561354e575f80fd5b6020840193505b8284101561357957835161356881612cc5565b825260209384019390910190613555565b9695505050505050565b60018060a01b03851681528360208201528215156040820152608060608201525f6135796080830184612a0a565b5f8083546135be81613362565b6001821680156135d557600181146135ea5761213f565b60ff198316865281151582028601935061213f565b865f5260205f205f5b8381101561360f578154888201526001909101906020016135f3565b50505093909301949350505050565b7f646174613a6170706c69636174696f6e2f6a736f6e3b6261736536342c00000081525f6108d7601d83018461332c565b650379abe3500160c51b8152600881018390525f6123c1602883018461332c565b5f60208284031215613680575f80fd5b81516108d781612cc5565b6001600160a01b0394851681529290931660208301526040820152901515606082015260a0608082018190525f9082015260c00190565b805160208201516001600160601b0319811691906014821015613709576bffffffffffffffffffffffff196bffffffffffffffffffffffff198360140360031b1b82161692505b5050919050565b6001600160a01b038416815282151560208201526060604082018190525f9061373b90830184612a0a565b95945050505050565b6001600160a01b0386811682528581166020830152841660408201526060810183905260a0608082018190525f9061247890830184612a0a565b634e487b7160e01b5f52601160045260245ffd5b808201808211156108845761088461377e565b5f826137bf57634e487b7160e01b5f52601260045260245ffd5b500490565b80820281158282048414176108845761088461377e565b8215158152604060208201525f6123c16040830184612a0a565b5f600182016138065761380661377e565b5060010190565b8051602080830151919081101561165a575f1960209190910360031b1b16919050565b828152604060208201525f6123c16040830184612a0a565b5f60208284031215613858575f80fd5b81516001600160401b0381111561386d575f80fd5b8201601f8101841361387d575f80fd5b805161388b612acd82612be0565b81815285602083850101111561389f575f80fd5b8160208401602083015e5f91810160200191909152949350505050565b818103818111156108845761088461377e565b634e487b7160e01b5f52603160045260245ffdfe4142434445464748494a4b4c4d4e4f505152535455565758595a6162636465666768696a6b6c6d6e6f707172737475767778797a303132333435363738392b2fa2646970667358221220b20f928b2002b249754e47a628d61e6c018b330f4c7a24c831e9ab0073a1337764736f6c634300081a00337b224c5350344d65746164617461223a7b226e616d65223a2250657069746f202d204d6574616d6f7270686f736973222c226465736372697074696f6e223a22222c226c696e6b73223a5b5d2c2261747472696275746573223a5b5d2c2269636f6e223a5b5d2c226261636b67726f756e64496d616765223a5b5d2c22617373657473223a5b5d2c22696d61676573223a5b5d7d7d",
			"opcodes": "PUSH1 0x80 PUSH1 0x40 MSTORE PUSH1 0xA DUP1 SLOAD PUSH1 0x1 PUSH1 0x1 PUSH1 0xA0 SHL SUB NOT AND PUSH20 0x89980B53A2720FFE168C6F98DDA9A4C753ABCB4F OR SWAP1 SSTORE CALLVALUE DUP1 ISZERO PUSH2 0x35 JUMPI PUSH0 DUP1 REVERT JUMPDEST POP PUSH1 0x40 DUP1 MLOAD DUP1 DUP3 ADD DUP3 MSTORE PUSH1 0x16 DUP2 MSTORE PUSH32 0x50657069746F202D204D6574616D6F7270686F73697300000000000000000000 PUSH1 0x20 DUP1 DUP4 ADD SWAP2 SWAP1 SWAP2 MSTORE DUP3 MLOAD DUP1 DUP5 ADD SWAP1 SWAP4 MSTORE PUSH1 0x4 DUP4 MSTORE PUSH4 0xA08AA09 PUSH1 0xE3 SHL SWAP1 DUP4 ADD MSTORE SWAP1 CALLER PUSH1 0x2 PUSH0 DUP5 DUP5 DUP5 DUP5 DUP2 DUP1 PUSH2 0xAD JUMPI PUSH1 0x40 MLOAD PUSH4 0x6B620DB PUSH1 0xE2 SHL DUP2 MSTORE PUSH1 0x4 ADD PUSH1 0x40 MLOAD DUP1 SWAP2 SUB SWAP1 REVERT JUMPDEST PUSH2 0xB6 DUP2 PUSH2 0x277 JUMP JUMPDEST POP PUSH1 0x40 DUP1 MLOAD DUP1 DUP3 ADD SWAP1 SWAP2 MSTORE PUSH1 0x4 DUP2 MSTORE PUSH4 0x29365989 PUSH1 0xE2 SHL PUSH1 0x20 DUP3 ADD MSTORE PUSH2 0xFD SWAP1 PUSH32 0xEAFEC4D89FA9619884B60000A4D96624A38F7AC2D8D9A604ECF07C12C77E480C SWAP1 PUSH2 0x2E1 JUMP JUMPDEST PUSH2 0x127 PUSH32 0xDEBA1E292F8BA88238E10AB3C7F88BD4BE4FAC56CAD5194B6ECCEAF653468AF1 DUP6 PUSH2 0x2E1 JUMP JUMPDEST PUSH2 0x151 PUSH32 0x2F0A68AB07768E01943A599E73362A0E17A63A72E94DD2E384D2C1D4DB932756 DUP5 PUSH2 0x2E1 JUMP JUMPDEST PUSH1 0x40 DUP1 MLOAD PUSH1 0x20 DUP2 ADD DUP4 SWAP1 MSTORE PUSH2 0x198 SWAP2 PUSH32 0xE0261FA95DB2EB3B5439BD033CDA66D56B96F92F243A8228FD87550ED7BDFDB3 SWAP2 ADD PUSH1 0x40 DUP1 MLOAD PUSH1 0x1F NOT DUP2 DUP5 SUB ADD DUP2 MSTORE SWAP2 SWAP1 MSTORE PUSH2 0x2E1 JUMP JUMPDEST POP POP PUSH1 0x40 DUP1 MLOAD PUSH1 0x20 DUP2 ADD DUP6 SWAP1 MSTORE PUSH2 0x1E3 SWAP4 POP PUSH32 0xF675E9361AF1C1664C1868CFA3EB97672D6B1A513AA5B81DEC34C9EE330E818D SWAP3 POP ADD PUSH1 0x40 DUP1 MLOAD PUSH1 0x1F NOT DUP2 DUP5 SUB ADD DUP2 MSTORE SWAP2 SWAP1 MSTORE PUSH2 0x335 JUMP JUMPDEST POP POP PUSH1 0x7 DUP1 SLOAD PUSH1 0xFF NOT AND SWAP1 SSTORE POP POP PUSH1 0x40 DUP1 MLOAD PUSH13 0x6D6574616D6F7270686F736973 PUSH1 0x98 SHL DUP2 MSTORE PUSH1 0x9 PUSH1 0xD DUP3 ADD MSTORE DUP2 MLOAD SWAP1 DUP2 SWAP1 SUB PUSH1 0x2D ADD DUP2 KECCAK256 PUSH9 0xD8D726B7177A800000 SWAP1 SSTORE PUSH1 0xC0 DUP2 ADD SWAP1 SWAP2 MSTORE PUSH1 0x95 DUP1 DUP3 MSTORE SWAP1 SWAP2 POP PUSH2 0x3EF0 PUSH1 0x20 DUP4 ADD CODECOPY PUSH1 0x40 DUP1 MLOAD PUSH13 0x4D6574616D6F7270686F736973 PUSH1 0x98 SHL DUP2 MSTORE PUSH1 0xC PUSH1 0xD DUP3 ADD MSTORE SWAP1 MLOAD SWAP1 DUP2 SWAP1 SUB PUSH1 0x2D ADD SWAP1 KECCAK256 SWAP1 PUSH2 0x271 SWAP1 DUP3 PUSH2 0x49B JUMP JUMPDEST POP PUSH2 0x58A JUMP JUMPDEST PUSH0 SLOAD PUSH1 0x1 PUSH1 0x1 PUSH1 0xA0 SHL SUB DUP3 DUP2 AND SWAP2 AND EQ PUSH2 0x2DE JUMPI PUSH0 DUP1 SLOAD PUSH1 0x40 MLOAD PUSH1 0x1 PUSH1 0x1 PUSH1 0xA0 SHL SUB DUP1 DUP6 AND SWAP4 SWAP3 AND SWAP2 PUSH32 0x8BE0079C531659141344CD1FD0A4F28419497F9722A3DAAFE3B4186F6B6457E0 SWAP2 LOG3 PUSH0 DUP1 SLOAD PUSH1 0x1 PUSH1 0x1 PUSH1 0xA0 SHL SUB NOT AND PUSH1 0x1 PUSH1 0x1 PUSH1 0xA0 SHL SUB DUP4 AND OR SWAP1 SSTORE JUMPDEST POP JUMP JUMPDEST PUSH0 DUP3 DUP2 MSTORE PUSH1 0x1 PUSH1 0x20 MSTORE PUSH1 0x40 SWAP1 KECCAK256 PUSH2 0x2F8 DUP3 DUP3 PUSH2 0x49B JUMP JUMPDEST POP DUP2 PUSH32 0xECE574603820D07BC9B91F2A932BAADF4628AABCB8AFBA49776529C14A6104B2 DUP3 PUSH1 0x40 MLOAD PUSH2 0x329 SWAP2 SWAP1 PUSH2 0x555 JUMP JUMPDEST PUSH1 0x40 MLOAD DUP1 SWAP2 SUB SWAP1 LOG2 POP POP JUMP JUMPDEST PUSH2 0x33F DUP3 DUP3 PUSH2 0x343 JUMP JUMPDEST POP POP JUMP JUMPDEST PUSH32 0x2145E1D6D074577DC71EF54C3807742B41B053A9352AE6B491331509ACB9750F DUP3 ADD PUSH2 0x383 JUMPI PUSH1 0x40 MLOAD PUSH4 0x85C169BD PUSH1 0xE0 SHL DUP2 MSTORE PUSH1 0x4 ADD PUSH1 0x40 MLOAD DUP1 SWAP2 SUB SWAP1 REVERT JUMPDEST PUSH32 0xD0F59754F88971FE6BC5A6618CC9D5F1E859C58D16B22D1C7B2D3E2B246CD8AA DUP3 ADD PUSH2 0x3C3 JUMPI PUSH1 0x40 MLOAD PUSH4 0xECEAB67 PUSH1 0xE3 SHL DUP2 MSTORE PUSH1 0x4 ADD PUSH1 0x40 MLOAD DUP1 SWAP2 SUB SWAP1 REVERT JUMPDEST PUSH32 0x1FD9E056A24D14C4ABC642FCC325992A946906D0DBC57DD70278AAF12842024D DUP3 ADD PUSH2 0x2E1 JUMPI PUSH1 0x40 MLOAD PUSH4 0x4EF6D7FB PUSH1 0xE0 SHL DUP2 MSTORE PUSH1 0x4 ADD PUSH1 0x40 MLOAD DUP1 SWAP2 SUB SWAP1 REVERT JUMPDEST PUSH4 0x4E487B71 PUSH1 0xE0 SHL PUSH0 MSTORE PUSH1 0x41 PUSH1 0x4 MSTORE PUSH1 0x24 PUSH0 REVERT JUMPDEST PUSH1 0x1 DUP2 DUP2 SHR SWAP1 DUP3 AND DUP1 PUSH2 0x42B JUMPI PUSH1 0x7F DUP3 AND SWAP2 POP JUMPDEST PUSH1 0x20 DUP3 LT DUP2 SUB PUSH2 0x449 JUMPI PUSH4 0x4E487B71 PUSH1 0xE0 SHL PUSH0 MSTORE PUSH1 0x22 PUSH1 0x4 MSTORE PUSH1 0x24 PUSH0 REVERT JUMPDEST POP SWAP2 SWAP1 POP JUMP JUMPDEST PUSH1 0x1F DUP3 GT ISZERO PUSH2 0x496 JUMPI DUP1 PUSH0 MSTORE PUSH1 0x20 PUSH0 KECCAK256 PUSH1 0x1F DUP5 ADD PUSH1 0x5 SHR DUP2 ADD PUSH1 0x20 DUP6 LT ISZERO PUSH2 0x474 JUMPI POP DUP1 JUMPDEST PUSH1 0x1F DUP5 ADD PUSH1 0x5 SHR DUP3 ADD SWAP2 POP JUMPDEST DUP2 DUP2 LT ISZERO PUSH2 0x493 JUMPI PUSH0 DUP2 SSTORE PUSH1 0x1 ADD PUSH2 0x480 JUMP JUMPDEST POP POP JUMPDEST POP POP POP JUMP JUMPDEST DUP2 MLOAD PUSH1 0x1 PUSH1 0x1 PUSH1 0x40 SHL SUB DUP2 GT ISZERO PUSH2 0x4B4 JUMPI PUSH2 0x4B4 PUSH2 0x403 JUMP JUMPDEST PUSH2 0x4C8 DUP2 PUSH2 0x4C2 DUP5 SLOAD PUSH2 0x417 JUMP JUMPDEST DUP5 PUSH2 0x44F JUMP JUMPDEST PUSH1 0x20 PUSH1 0x1F DUP3 GT PUSH1 0x1 DUP2 EQ PUSH2 0x4FA JUMPI PUSH0 DUP4 ISZERO PUSH2 0x4E3 JUMPI POP DUP5 DUP3 ADD MLOAD JUMPDEST PUSH0 NOT PUSH1 0x3 DUP6 SWAP1 SHL SHR NOT AND PUSH1 0x1 DUP5 SWAP1 SHL OR DUP5 SSTORE PUSH2 0x493 JUMP JUMPDEST PUSH0 DUP5 DUP2 MSTORE PUSH1 0x20 DUP2 KECCAK256 PUSH1 0x1F NOT DUP6 AND SWAP2 JUMPDEST DUP3 DUP2 LT ISZERO PUSH2 0x529 JUMPI DUP8 DUP6 ADD MLOAD DUP3 SSTORE PUSH1 0x20 SWAP5 DUP6 ADD SWAP5 PUSH1 0x1 SWAP1 SWAP3 ADD SWAP2 ADD PUSH2 0x509 JUMP JUMPDEST POP DUP5 DUP3 LT ISZERO PUSH2 0x546 JUMPI DUP7 DUP5 ADD MLOAD PUSH0 NOT PUSH1 0x3 DUP8 SWAP1 SHL PUSH1 0xF8 AND SHR NOT AND DUP2 SSTORE JUMPDEST POP POP POP POP PUSH1 0x1 SWAP1 DUP2 SHL ADD SWAP1 SSTORE POP JUMP JUMPDEST PUSH1 0x20 DUP2 MSTORE PUSH0 DUP3 MLOAD DUP1 PUSH1 0x20 DUP5 ADD MSTORE DUP1 PUSH1 0x20 DUP6 ADD PUSH1 0x40 DUP6 ADD MCOPY PUSH0 PUSH1 0x40 DUP3 DUP6 ADD ADD MSTORE PUSH1 0x40 PUSH1 0x1F NOT PUSH1 0x1F DUP4 ADD AND DUP5 ADD ADD SWAP2 POP POP SWAP3 SWAP2 POP POP JUMP JUMPDEST PUSH2 0x3959 DUP1 PUSH2 0x597 PUSH0 CODECOPY PUSH0 RETURN INVALID PUSH1 0x80 PUSH1 0x40 MSTORE PUSH1 0x4 CALLDATASIZE LT PUSH2 0x228 JUMPI PUSH0 CALLDATALOAD PUSH1 0xE0 SHR DUP1 PUSH4 0x715018A6 GT PUSH2 0x122 JUMPI DUP1 PUSH4 0xA3B261F2 GT PUSH2 0xAA JUMPI DUP1 PUSH4 0xDB8C9663 GT PUSH2 0x6E JUMPI DUP1 PUSH4 0xDB8C9663 EQ PUSH2 0x6E8 JUMPI DUP1 PUSH4 0xDEDFF9C6 EQ PUSH2 0x707 JUMPI DUP1 PUSH4 0xF2FDE38B EQ PUSH2 0x726 JUMPI DUP1 PUSH4 0xFA452DD3 EQ PUSH2 0x745 JUMPI DUP1 PUSH4 0xFE2C6198 EQ PUSH2 0x764 JUMPI PUSH2 0x281 JUMP JUMPDEST DUP1 PUSH4 0xA3B261F2 EQ PUSH2 0x640 JUMPI DUP1 PUSH4 0xB9B79A2B EQ PUSH2 0x66C JUMPI DUP1 PUSH4 0xBE9F0E6F EQ PUSH2 0x68B JUMPI DUP1 PUSH4 0xD11A1F07 EQ PUSH2 0x6AA JUMPI DUP1 PUSH4 0xD6C1407C EQ PUSH2 0x6C9 JUMPI PUSH2 0x281 JUMP JUMPDEST DUP1 PUSH4 0x84C4BD4B GT PUSH2 0xF1 JUMPI DUP1 PUSH4 0x84C4BD4B EQ PUSH2 0x5BD JUMPI DUP1 PUSH4 0x86A10DDD EQ PUSH2 0x5D3 JUMPI DUP1 PUSH4 0x8D6CC56D EQ PUSH2 0x5F2 JUMPI DUP1 PUSH4 0x8DA5CB5B EQ PUSH2 0x611 JUMPI DUP1 PUSH4 0x97902421 EQ PUSH2 0x62D JUMPI PUSH2 0x281 JUMP JUMPDEST DUP1 PUSH4 0x715018A6 EQ PUSH2 0x563 JUMPI DUP1 PUSH4 0x7E87632C EQ PUSH2 0x577 JUMPI DUP1 PUSH4 0x7F23690C EQ PUSH2 0x596 JUMPI DUP1 PUSH4 0x8456CB59 EQ PUSH2 0x5A9 JUMPI PUSH2 0x281 JUMP JUMPDEST DUP1 PUSH4 0x3F4BA83A GT PUSH2 0x1B0 JUMPI DUP1 PUSH4 0x5C975ABB GT PUSH2 0x174 JUMPI DUP1 PUSH4 0x5C975ABB EQ PUSH2 0x4AB JUMPI DUP1 PUSH4 0x5E05E3D3 EQ PUSH2 0x4C2 JUMPI DUP1 PUSH4 0x6963D438 EQ PUSH2 0x506 JUMPI DUP1 PUSH4 0x7041E378 EQ PUSH2 0x525 JUMPI DUP1 PUSH4 0x70A08231 EQ PUSH2 0x544 JUMPI PUSH2 0x281 JUMP JUMPDEST DUP1 PUSH4 0x3F4BA83A EQ PUSH2 0x40E JUMPI DUP1 PUSH4 0x49A6078D EQ PUSH2 0x422 JUMPI DUP1 PUSH4 0x511B6952 EQ PUSH2 0x44E JUMPI DUP1 PUSH4 0x54F6127F EQ PUSH2 0x46D JUMPI DUP1 PUSH4 0x56A6D9EF EQ PUSH2 0x48C JUMPI PUSH2 0x281 JUMP JUMPDEST DUP1 PUSH4 0x1D26FCE6 GT PUSH2 0x1F7 JUMPI DUP1 PUSH4 0x1D26FCE6 EQ PUSH2 0x357 JUMPI DUP1 PUSH4 0x1E3C21F6 EQ PUSH2 0x383 JUMPI DUP1 PUSH4 0x217B2270 EQ PUSH2 0x3A4 JUMPI DUP1 PUSH4 0x2A3654A4 EQ PUSH2 0x3DB JUMPI DUP1 PUSH4 0x3CCFD60B EQ PUSH2 0x3FA JUMPI PUSH2 0x281 JUMP JUMPDEST DUP1 PUSH4 0x1FFC9A7 EQ PUSH2 0x2C1 JUMPI DUP1 PUSH4 0x12065FE0 EQ PUSH2 0x2F5 JUMPI DUP1 PUSH4 0x16E023B3 EQ PUSH2 0x317 JUMPI DUP1 PUSH4 0x18160DDD EQ PUSH2 0x343 JUMPI PUSH2 0x281 JUMP JUMPDEST CALLDATASIZE PUSH2 0x281 JUMPI CALLVALUE PUSH0 SUB PUSH2 0x268 JUMPI PUSH1 0x40 MLOAD PUSH4 0xE5099EE3 PUSH1 0xE0 SHL DUP2 MSTORE PUSH1 0x4 ADD PUSH2 0x25F SWAP1 PUSH1 0x20 DUP1 DUP3 MSTORE PUSH1 0x4 SWAP1 DUP3 ADD MSTORE PUSH0 PUSH1 0x40 DUP3 ADD MSTORE PUSH1 0x60 ADD SWAP1 JUMP JUMPDEST PUSH1 0x40 MLOAD DUP1 SWAP2 SUB SWAP1 REVERT JUMPDEST PUSH1 0x40 MLOAD PUSH4 0x30FA4A21 PUSH1 0xE1 SHL DUP2 MSTORE PUSH1 0x4 ADD PUSH1 0x40 MLOAD DUP1 SWAP2 SUB SWAP1 REVERT JUMPDEST PUSH0 CALLDATASIZE PUSH1 0x60 PUSH1 0x4 DUP3 LT ISZERO PUSH2 0x2AB JUMPI DUP3 DUP3 PUSH1 0x40 MLOAD PUSH4 0xE5099EE3 PUSH1 0xE0 SHL DUP2 MSTORE PUSH1 0x4 ADD PUSH2 0x25F SWAP3 SWAP2 SWAP1 PUSH2 0x2995 JUMP JUMPDEST PUSH2 0x2B5 DUP4 DUP4 PUSH2 0x79B JUMP JUMPDEST DUP1 MLOAD SWAP4 POP PUSH1 0x20 ADD SWAP2 POP POP RETURN JUMPDEST CALLVALUE DUP1 ISZERO PUSH2 0x2CC JUMPI PUSH0 DUP1 REVERT JUMPDEST POP PUSH2 0x2E0 PUSH2 0x2DB CALLDATASIZE PUSH1 0x4 PUSH2 0x29C3 JUMP JUMPDEST PUSH2 0x88A JUMP JUMPDEST PUSH1 0x40 MLOAD SWAP1 ISZERO ISZERO DUP2 MSTORE PUSH1 0x20 ADD JUMPDEST PUSH1 0x40 MLOAD DUP1 SWAP2 SUB SWAP1 RETURN JUMPDEST CALLVALUE DUP1 ISZERO PUSH2 0x300 JUMPI PUSH0 DUP1 REVERT JUMPDEST POP PUSH2 0x309 PUSH2 0x8BD JUMP JUMPDEST PUSH1 0x40 MLOAD SWAP1 DUP2 MSTORE PUSH1 0x20 ADD PUSH2 0x2EC JUMP JUMPDEST CALLVALUE DUP1 ISZERO PUSH2 0x322 JUMPI PUSH0 DUP1 REVERT JUMPDEST POP PUSH2 0x336 PUSH2 0x331 CALLDATASIZE PUSH1 0x4 PUSH2 0x29EA JUMP JUMPDEST PUSH2 0x8CB JUMP JUMPDEST PUSH1 0x40 MLOAD PUSH2 0x2EC SWAP2 SWAP1 PUSH2 0x2A38 JUMP JUMPDEST CALLVALUE DUP1 ISZERO PUSH2 0x34E JUMPI PUSH0 DUP1 REVERT JUMPDEST POP PUSH1 0x2 SLOAD PUSH2 0x309 JUMP JUMPDEST CALLVALUE DUP1 ISZERO PUSH2 0x362 JUMPI PUSH0 DUP1 REVERT JUMPDEST POP PUSH2 0x376 PUSH2 0x371 CALLDATASIZE PUSH1 0x4 PUSH2 0x2B1A JUMP JUMPDEST PUSH2 0x8DE JUMP JUMPDEST PUSH1 0x40 MLOAD PUSH2 0x2EC SWAP2 SWAP1 PUSH2 0x2B7D JUMP JUMPDEST CALLVALUE DUP1 ISZERO PUSH2 0x38E JUMPI PUSH0 DUP1 REVERT JUMPDEST POP PUSH2 0x3A2 PUSH2 0x39D CALLDATASIZE PUSH1 0x4 PUSH2 0x2C55 JUMP JUMPDEST PUSH2 0x9C4 JUMP JUMPDEST STOP JUMPDEST CALLVALUE DUP1 ISZERO PUSH2 0x3AF JUMPI PUSH0 DUP1 REVERT JUMPDEST POP PUSH2 0x3C3 PUSH2 0x3BE CALLDATASIZE PUSH1 0x4 PUSH2 0x2CAE JUMP JUMPDEST PUSH2 0xA33 JUMP JUMPDEST PUSH1 0x40 MLOAD PUSH1 0x1 PUSH1 0x1 PUSH1 0xA0 SHL SUB SWAP1 SWAP2 AND DUP2 MSTORE PUSH1 0x20 ADD PUSH2 0x2EC JUMP JUMPDEST CALLVALUE DUP1 ISZERO PUSH2 0x3E6 JUMPI PUSH0 DUP1 REVERT JUMPDEST POP PUSH2 0x2E0 PUSH2 0x3F5 CALLDATASIZE PUSH1 0x4 PUSH2 0x2CD9 JUMP JUMPDEST PUSH2 0xA6B JUMP JUMPDEST CALLVALUE DUP1 ISZERO PUSH2 0x405 JUMPI PUSH0 DUP1 REVERT JUMPDEST POP PUSH2 0x3A2 PUSH2 0xA76 JUMP JUMPDEST CALLVALUE DUP1 ISZERO PUSH2 0x419 JUMPI PUSH0 DUP1 REVERT JUMPDEST POP PUSH2 0x3A2 PUSH2 0xB1B JUMP JUMPDEST CALLVALUE DUP1 ISZERO PUSH2 0x42D JUMPI PUSH0 DUP1 REVERT JUMPDEST POP PUSH2 0x441 PUSH2 0x43C CALLDATASIZE PUSH1 0x4 PUSH2 0x2CAE JUMP JUMPDEST PUSH2 0xB2D JUMP JUMPDEST PUSH1 0x40 MLOAD PUSH2 0x2EC SWAP2 SWAP1 PUSH2 0x2D03 JUMP JUMPDEST CALLVALUE DUP1 ISZERO PUSH2 0x459 JUMPI PUSH0 DUP1 REVERT JUMPDEST POP PUSH2 0x3A2 PUSH2 0x468 CALLDATASIZE PUSH1 0x4 PUSH2 0x2D5D JUMP JUMPDEST PUSH2 0xB4E JUMP JUMPDEST CALLVALUE DUP1 ISZERO PUSH2 0x478 JUMPI PUSH0 DUP1 REVERT JUMPDEST POP PUSH2 0x336 PUSH2 0x487 CALLDATASIZE PUSH1 0x4 PUSH2 0x2CAE JUMP JUMPDEST PUSH2 0xB92 JUMP JUMPDEST CALLVALUE DUP1 ISZERO PUSH2 0x497 JUMPI PUSH0 DUP1 REVERT JUMPDEST POP PUSH2 0x3A2 PUSH2 0x4A6 CALLDATASIZE PUSH1 0x4 PUSH2 0x2CD9 JUMP JUMPDEST PUSH2 0xB9D JUMP JUMPDEST CALLVALUE DUP1 ISZERO PUSH2 0x4B6 JUMPI PUSH0 DUP1 REVERT JUMPDEST POP PUSH1 0x7 SLOAD PUSH1 0xFF AND PUSH2 0x2E0 JUMP JUMPDEST CALLVALUE DUP1 ISZERO PUSH2 0x4CD JUMPI PUSH0 DUP1 REVERT JUMPDEST POP PUSH2 0x4E1 PUSH2 0x4DC CALLDATASIZE PUSH1 0x4 PUSH2 0x2CAE JUMP JUMPDEST PUSH2 0xC32 JUMP JUMPDEST PUSH1 0x40 DUP1 MLOAD PUSH1 0x1 PUSH1 0x1 PUSH1 0xA0 SHL SUB SWAP1 SWAP5 AND DUP5 MSTORE PUSH1 0x20 DUP5 ADD SWAP3 SWAP1 SWAP3 MSTORE SWAP1 DUP3 ADD MSTORE PUSH1 0x60 ADD PUSH2 0x2EC JUMP JUMPDEST CALLVALUE DUP1 ISZERO PUSH2 0x511 JUMPI PUSH0 DUP1 REVERT JUMPDEST POP PUSH2 0x376 PUSH2 0x520 CALLDATASIZE PUSH1 0x4 PUSH2 0x2DD4 JUMP JUMPDEST PUSH2 0xC6D JUMP JUMPDEST CALLVALUE DUP1 ISZERO PUSH2 0x530 JUMPI PUSH0 DUP1 REVERT JUMPDEST POP PUSH2 0x441 PUSH2 0x53F CALLDATASIZE PUSH1 0x4 PUSH2 0x2CAE JUMP JUMPDEST PUSH2 0xD97 JUMP JUMPDEST CALLVALUE DUP1 ISZERO PUSH2 0x54F JUMPI PUSH0 DUP1 REVERT JUMPDEST POP PUSH2 0x309 PUSH2 0x55E CALLDATASIZE PUSH1 0x4 PUSH2 0x2E43 JUMP JUMPDEST PUSH2 0xE05 JUMP JUMPDEST CALLVALUE DUP1 ISZERO PUSH2 0x56E JUMPI PUSH0 DUP1 REVERT JUMPDEST POP PUSH2 0x3A2 PUSH2 0xE25 JUMP JUMPDEST CALLVALUE DUP1 ISZERO PUSH2 0x582 JUMPI PUSH0 DUP1 REVERT JUMPDEST POP PUSH2 0x3A2 PUSH2 0x591 CALLDATASIZE PUSH1 0x4 PUSH2 0x2FA2 JUMP JUMPDEST PUSH2 0xE36 JUMP JUMPDEST PUSH2 0x3A2 PUSH2 0x5A4 CALLDATASIZE PUSH1 0x4 PUSH2 0x3073 JUMP JUMPDEST PUSH2 0xF24 JUMP JUMPDEST CALLVALUE DUP1 ISZERO PUSH2 0x5B4 JUMPI PUSH0 DUP1 REVERT JUMPDEST POP PUSH2 0x3A2 PUSH2 0xF55 JUMP JUMPDEST CALLVALUE DUP1 ISZERO PUSH2 0x5C8 JUMPI PUSH0 DUP1 REVERT JUMPDEST POP PUSH1 0x8 SLOAD PUSH2 0x309 SWAP1 DUP2 JUMP JUMPDEST CALLVALUE DUP1 ISZERO PUSH2 0x5DE JUMPI PUSH0 DUP1 REVERT JUMPDEST POP PUSH2 0x3A2 PUSH2 0x5ED CALLDATASIZE PUSH1 0x4 PUSH2 0x30A0 JUMP JUMPDEST PUSH2 0xF65 JUMP JUMPDEST CALLVALUE DUP1 ISZERO PUSH2 0x5FD JUMPI PUSH0 DUP1 REVERT JUMPDEST POP PUSH2 0x3A2 PUSH2 0x60C CALLDATASIZE PUSH1 0x4 PUSH2 0x2CAE JUMP JUMPDEST PUSH2 0x10DC JUMP JUMPDEST CALLVALUE DUP1 ISZERO PUSH2 0x61C JUMPI PUSH0 DUP1 REVERT JUMPDEST POP PUSH0 SLOAD PUSH1 0x1 PUSH1 0x1 PUSH1 0xA0 SHL SUB AND PUSH2 0x3C3 JUMP JUMPDEST PUSH2 0x3A2 PUSH2 0x63B CALLDATASIZE PUSH1 0x4 PUSH2 0x30F4 JUMP JUMPDEST PUSH2 0x1156 JUMP JUMPDEST CALLVALUE DUP1 ISZERO PUSH2 0x64B JUMPI PUSH0 DUP1 REVERT JUMPDEST POP PUSH2 0x65F PUSH2 0x65A CALLDATASIZE PUSH1 0x4 PUSH2 0x2E43 JUMP JUMPDEST PUSH2 0x120F JUMP JUMPDEST PUSH1 0x40 MLOAD PUSH2 0x2EC SWAP2 SWAP1 PUSH2 0x314D JUMP JUMPDEST CALLVALUE DUP1 ISZERO PUSH2 0x677 JUMPI PUSH0 DUP1 REVERT JUMPDEST POP PUSH2 0x336 PUSH2 0x686 CALLDATASIZE PUSH1 0x4 PUSH2 0x3184 JUMP JUMPDEST PUSH2 0x1232 JUMP JUMPDEST CALLVALUE DUP1 ISZERO PUSH2 0x696 JUMPI PUSH0 DUP1 REVERT JUMPDEST POP PUSH2 0x3A2 PUSH2 0x6A5 CALLDATASIZE PUSH1 0x4 PUSH2 0x31B5 JUMP JUMPDEST PUSH2 0x12D5 JUMP JUMPDEST CALLVALUE DUP1 ISZERO PUSH2 0x6B5 JUMPI PUSH0 DUP1 REVERT JUMPDEST POP PUSH2 0x336 PUSH2 0x6C4 CALLDATASIZE PUSH1 0x4 PUSH2 0x3184 JUMP JUMPDEST PUSH2 0x139E JUMP JUMPDEST CALLVALUE DUP1 ISZERO PUSH2 0x6D4 JUMPI PUSH0 DUP1 REVERT JUMPDEST POP PUSH2 0x3A2 PUSH2 0x6E3 CALLDATASIZE PUSH1 0x4 PUSH2 0x3236 JUMP JUMPDEST PUSH2 0x14C3 JUMP JUMPDEST CALLVALUE DUP1 ISZERO PUSH2 0x6F3 JUMPI PUSH0 DUP1 REVERT JUMPDEST POP PUSH2 0x3A2 PUSH2 0x702 CALLDATASIZE PUSH1 0x4 PUSH2 0x326B JUMP JUMPDEST PUSH2 0x14D6 JUMP JUMPDEST CALLVALUE DUP1 ISZERO PUSH2 0x712 JUMPI PUSH0 DUP1 REVERT JUMPDEST POP PUSH2 0x376 PUSH2 0x721 CALLDATASIZE PUSH1 0x4 PUSH2 0x32D0 JUMP JUMPDEST PUSH2 0x15B7 JUMP JUMPDEST CALLVALUE DUP1 ISZERO PUSH2 0x731 JUMPI PUSH0 DUP1 REVERT JUMPDEST POP PUSH2 0x3A2 PUSH2 0x740 CALLDATASIZE PUSH1 0x4 PUSH2 0x2E43 JUMP JUMPDEST PUSH2 0x1660 JUMP JUMPDEST CALLVALUE DUP1 ISZERO PUSH2 0x750 JUMPI PUSH0 DUP1 REVERT JUMPDEST POP PUSH2 0x309 PUSH2 0x75F CALLDATASIZE PUSH1 0x4 PUSH2 0x2CAE JUMP JUMPDEST PUSH2 0x169B JUMP JUMPDEST CALLVALUE DUP1 ISZERO PUSH2 0x76F JUMPI PUSH0 DUP1 REVERT JUMPDEST POP PUSH2 0x309 PUSH2 0x77E CALLDATASIZE PUSH1 0x4 PUSH2 0x3184 JUMP JUMPDEST DUP1 MLOAD PUSH1 0x20 DUP2 DUP4 ADD DUP2 ADD DUP1 MLOAD PUSH1 0x9 DUP3 MSTORE SWAP3 DUP3 ADD SWAP2 SWAP1 SWAP4 ADD KECCAK256 SWAP2 MSTORE SLOAD DUP2 JUMP JUMPDEST PUSH1 0x60 PUSH0 PUSH2 0x7B2 PUSH0 CALLDATALOAD PUSH1 0x1 PUSH1 0x1 PUSH1 0xE0 SHL SUB NOT AND PUSH2 0x194F JUMP JUMPDEST POP SWAP1 POP PUSH1 0x1 PUSH1 0x1 PUSH1 0xA0 SHL SUB DUP2 AND PUSH2 0x7E9 JUMPI PUSH1 0x40 MLOAD PUSH4 0xBB370B2B PUSH1 0xE0 SHL DUP2 MSTORE PUSH1 0x1 PUSH1 0x1 PUSH1 0xE0 SHL SUB NOT PUSH0 CALLDATALOAD AND PUSH1 0x4 DUP3 ADD MSTORE PUSH1 0x24 ADD PUSH2 0x25F JUMP JUMPDEST PUSH0 DUP1 DUP3 PUSH1 0x1 PUSH1 0x1 PUSH1 0xA0 SHL SUB AND CALLVALUE DUP8 DUP8 CALLER CALLVALUE PUSH1 0x40 MLOAD PUSH1 0x20 ADD PUSH2 0x80D SWAP5 SWAP4 SWAP3 SWAP2 SWAP1 PUSH2 0x3301 JUMP JUMPDEST PUSH1 0x40 DUP1 MLOAD PUSH1 0x1F NOT DUP2 DUP5 SUB ADD DUP2 MSTORE SWAP1 DUP3 SWAP1 MSTORE PUSH2 0x827 SWAP2 PUSH2 0x3343 JUMP JUMPDEST PUSH0 PUSH1 0x40 MLOAD DUP1 DUP4 SUB DUP2 DUP6 DUP8 GAS CALL SWAP3 POP POP POP RETURNDATASIZE DUP1 PUSH0 DUP2 EQ PUSH2 0x861 JUMPI PUSH1 0x40 MLOAD SWAP2 POP PUSH1 0x1F NOT PUSH1 0x3F RETURNDATASIZE ADD AND DUP3 ADD PUSH1 0x40 MSTORE RETURNDATASIZE DUP3 MSTORE RETURNDATASIZE PUSH0 PUSH1 0x20 DUP5 ADD RETURNDATACOPY PUSH2 0x866 JUMP JUMPDEST PUSH1 0x60 SWAP2 POP JUMPDEST POP SWAP2 POP SWAP2 POP DUP2 ISZERO PUSH2 0x87B JUMPI SWAP3 POP PUSH2 0x884 SWAP2 POP POP JUMP JUMPDEST DUP1 MLOAD DUP1 PUSH1 0x20 DUP4 ADD REVERT JUMPDEST SWAP3 SWAP2 POP POP JUMP JUMPDEST PUSH0 PUSH1 0x1 PUSH1 0x1 PUSH1 0xE0 SHL SUB NOT DUP3 AND PUSH4 0x1D138B83 PUSH1 0xE1 SHL EQ DUP1 PUSH2 0x8AE JUMPI POP PUSH2 0x8AE DUP3 PUSH2 0x19CB JUMP JUMPDEST DUP1 PUSH2 0x884 JUMPI POP PUSH2 0x884 DUP3 PUSH2 0x19EF JUMP JUMPDEST PUSH0 PUSH2 0x8C6 PUSH2 0x1A24 JUMP JUMPDEST POP SELFBALANCE SWAP1 JUMP JUMPDEST PUSH1 0x60 PUSH2 0x8D7 DUP4 DUP4 PUSH2 0x1A5F JUMP JUMPDEST SWAP4 SWAP3 POP POP POP JUMP JUMPDEST PUSH1 0x60 DUP2 MLOAD DUP4 MLOAD EQ PUSH2 0x902 JUMPI PUSH1 0x40 MLOAD PUSH4 0x17D38EFF PUSH1 0xE1 SHL DUP2 MSTORE PUSH1 0x4 ADD PUSH1 0x40 MLOAD DUP1 SWAP2 SUB SWAP1 REVERT JUMPDEST DUP3 MLOAD PUSH1 0x1 PUSH1 0x1 PUSH1 0x40 SHL SUB DUP2 GT ISZERO PUSH2 0x91B JUMPI PUSH2 0x91B PUSH2 0x2A4A JUMP JUMPDEST PUSH1 0x40 MLOAD SWAP1 DUP1 DUP3 MSTORE DUP1 PUSH1 0x20 MUL PUSH1 0x20 ADD DUP3 ADD PUSH1 0x40 MSTORE DUP1 ISZERO PUSH2 0x94E JUMPI DUP2 PUSH1 0x20 ADD JUMPDEST PUSH1 0x60 DUP2 MSTORE PUSH1 0x20 ADD SWAP1 PUSH1 0x1 SWAP1 SUB SWAP1 DUP2 PUSH2 0x939 JUMPI SWAP1 POP JUMPDEST POP SWAP1 POP PUSH0 JUMPDEST DUP4 MLOAD DUP2 LT ISZERO PUSH2 0x9BD JUMPI PUSH2 0x998 DUP5 DUP3 DUP2 MLOAD DUP2 LT PUSH2 0x971 JUMPI PUSH2 0x971 PUSH2 0x334E JUMP JUMPDEST PUSH1 0x20 MUL PUSH1 0x20 ADD ADD MLOAD DUP5 DUP4 DUP2 MLOAD DUP2 LT PUSH2 0x98B JUMPI PUSH2 0x98B PUSH2 0x334E JUMP JUMPDEST PUSH1 0x20 MUL PUSH1 0x20 ADD ADD MLOAD PUSH2 0x1A5F JUMP JUMPDEST DUP3 DUP3 DUP2 MLOAD DUP2 LT PUSH2 0x9AA JUMPI PUSH2 0x9AA PUSH2 0x334E JUMP JUMPDEST PUSH1 0x20 SWAP1 DUP2 MUL SWAP2 SWAP1 SWAP2 ADD ADD MSTORE PUSH1 0x1 ADD PUSH2 0x953 JUMP JUMPDEST POP SWAP3 SWAP2 POP POP JUMP JUMPDEST PUSH2 0x9CC PUSH2 0x1A24 JUMP JUMPDEST DUP1 PUSH1 0xC DUP4 PUSH1 0x40 MLOAD PUSH2 0x9DD SWAP2 SWAP1 PUSH2 0x3343 JUMP JUMPDEST SWAP1 DUP2 MSTORE PUSH1 0x20 ADD PUSH1 0x40 MLOAD DUP1 SWAP2 SUB SWAP1 KECCAK256 SWAP1 DUP2 PUSH2 0x9F7 SWAP2 SWAP1 PUSH2 0x33D8 JUMP JUMPDEST POP PUSH32 0xEF5F0D81EF4262EC3B7B67B7E5A17646A18DB55002EED51F1DE46CFB6CE9716C DUP2 PUSH1 0x40 MLOAD PUSH2 0xA27 SWAP2 SWAP1 PUSH2 0x2A38 JUMP JUMPDEST PUSH1 0x40 MLOAD DUP1 SWAP2 SUB SWAP1 LOG1 POP POP JUMP JUMPDEST PUSH0 DUP2 DUP2 MSTORE PUSH1 0x3 PUSH1 0x20 MSTORE PUSH1 0x40 DUP2 KECCAK256 SLOAD PUSH1 0x1 PUSH1 0x1 PUSH1 0xA0 SHL SUB AND DUP1 PUSH2 0x884 JUMPI PUSH1 0x40 MLOAD PUSH4 0x5747CD1B PUSH1 0xE1 SHL DUP2 MSTORE PUSH1 0x4 DUP2 ADD DUP5 SWAP1 MSTORE PUSH1 0x24 ADD PUSH2 0x25F JUMP JUMPDEST PUSH0 PUSH2 0x8D7 DUP4 DUP4 PUSH2 0x1B0A JUMP JUMPDEST PUSH2 0xA7E PUSH2 0x1A24 JUMP JUMPDEST SELFBALANCE PUSH0 PUSH2 0xA91 PUSH0 SLOAD PUSH1 0x1 PUSH1 0x1 PUSH1 0xA0 SHL SUB AND SWAP1 JUMP JUMPDEST PUSH1 0x1 PUSH1 0x1 PUSH1 0xA0 SHL SUB AND DUP3 PUSH1 0x40 MLOAD PUSH0 PUSH1 0x40 MLOAD DUP1 DUP4 SUB DUP2 DUP6 DUP8 GAS CALL SWAP3 POP POP POP RETURNDATASIZE DUP1 PUSH0 DUP2 EQ PUSH2 0xAD8 JUMPI PUSH1 0x40 MLOAD SWAP2 POP PUSH1 0x1F NOT PUSH1 0x3F RETURNDATASIZE ADD AND DUP3 ADD PUSH1 0x40 MSTORE RETURNDATASIZE DUP3 MSTORE RETURNDATASIZE PUSH0 PUSH1 0x20 DUP5 ADD RETURNDATACOPY PUSH2 0xADD JUMP JUMPDEST PUSH1 0x60 SWAP2 POP JUMPDEST POP POP SWAP1 POP DUP1 PUSH2 0xB17 JUMPI PUSH1 0x40 MLOAD PUSH3 0x461BCD PUSH1 0xE5 SHL DUP2 MSTORE PUSH1 0x20 PUSH1 0x4 DUP3 ADD MSTORE PUSH1 0x6 PUSH1 0x24 DUP3 ADD MSTORE PUSH6 0x11985A5B1959 PUSH1 0xD2 SHL PUSH1 0x44 DUP3 ADD MSTORE PUSH1 0x64 ADD PUSH2 0x25F JUMP JUMPDEST POP POP JUMP JUMPDEST PUSH2 0xB23 PUSH2 0x1A24 JUMP JUMPDEST PUSH2 0xB2B PUSH2 0x1B45 JUMP JUMPDEST JUMP JUMPDEST PUSH1 0x60 PUSH2 0xB38 DUP3 PUSH2 0x1B97 JUMP JUMPDEST PUSH0 DUP3 DUP2 MSTORE PUSH1 0x5 PUSH1 0x20 MSTORE PUSH1 0x40 SWAP1 KECCAK256 PUSH2 0x884 SWAP1 PUSH2 0x1BCE JUMP JUMPDEST PUSH2 0xB58 CALLER DUP5 PUSH2 0x1B0A JUMP JUMPDEST PUSH2 0xB7E JUMPI PUSH1 0x40 MLOAD PUSH4 0x1294D2A9 PUSH1 0xE0 SHL DUP2 MSTORE PUSH1 0x4 DUP2 ADD DUP5 SWAP1 MSTORE CALLER PUSH1 0x24 DUP3 ADD MSTORE PUSH1 0x44 ADD PUSH2 0x25F JUMP JUMPDEST PUSH2 0xB8B DUP6 DUP6 DUP6 DUP6 DUP6 PUSH2 0x1BDA JUMP JUMPDEST POP POP POP POP POP JUMP JUMPDEST PUSH1 0x60 PUSH2 0x884 DUP3 PUSH2 0x1DB6 JUMP JUMPDEST PUSH2 0xBA5 PUSH2 0x1A24 JUMP JUMPDEST PUSH0 DUP3 PUSH1 0x1 PUSH1 0x1 PUSH1 0xA0 SHL SUB AND DUP3 PUSH1 0x40 MLOAD PUSH0 PUSH1 0x40 MLOAD DUP1 DUP4 SUB DUP2 DUP6 DUP8 GAS CALL SWAP3 POP POP POP RETURNDATASIZE DUP1 PUSH0 DUP2 EQ PUSH2 0xBEE JUMPI PUSH1 0x40 MLOAD SWAP2 POP PUSH1 0x1F NOT PUSH1 0x3F RETURNDATASIZE ADD AND DUP3 ADD PUSH1 0x40 MSTORE RETURNDATASIZE DUP3 MSTORE RETURNDATASIZE PUSH0 PUSH1 0x20 DUP5 ADD RETURNDATACOPY PUSH2 0xBF3 JUMP JUMPDEST PUSH1 0x60 SWAP2 POP JUMPDEST POP POP SWAP1 POP DUP1 PUSH2 0xC2D JUMPI PUSH1 0x40 MLOAD PUSH3 0x461BCD PUSH1 0xE5 SHL DUP2 MSTORE PUSH1 0x20 PUSH1 0x4 DUP3 ADD MSTORE PUSH1 0x6 PUSH1 0x24 DUP3 ADD MSTORE PUSH6 0x11985A5B1959 PUSH1 0xD2 SHL PUSH1 0x44 DUP3 ADD MSTORE PUSH1 0x64 ADD PUSH2 0x25F JUMP JUMPDEST POP POP POP JUMP JUMPDEST PUSH1 0xB DUP2 DUP2 SLOAD DUP2 LT PUSH2 0xC41 JUMPI PUSH0 DUP1 REVERT JUMPDEST PUSH0 SWAP2 DUP3 MSTORE PUSH1 0x20 SWAP1 SWAP2 KECCAK256 PUSH1 0x3 SWAP1 SWAP2 MUL ADD DUP1 SLOAD PUSH1 0x1 DUP3 ADD SLOAD PUSH1 0x2 SWAP1 SWAP3 ADD SLOAD PUSH1 0x1 PUSH1 0x1 PUSH1 0xA0 SHL SUB SWAP1 SWAP2 AND SWAP3 POP DUP4 JUMP JUMPDEST PUSH1 0x60 DUP2 PUSH1 0x1 PUSH1 0x1 PUSH1 0x40 SHL SUB DUP2 GT ISZERO PUSH2 0xC87 JUMPI PUSH2 0xC87 PUSH2 0x2A4A JUMP JUMPDEST PUSH1 0x40 MLOAD SWAP1 DUP1 DUP3 MSTORE DUP1 PUSH1 0x20 MUL PUSH1 0x20 ADD DUP3 ADD PUSH1 0x40 MSTORE DUP1 ISZERO PUSH2 0xCBA JUMPI DUP2 PUSH1 0x20 ADD JUMPDEST PUSH1 0x60 DUP2 MSTORE PUSH1 0x20 ADD SWAP1 PUSH1 0x1 SWAP1 SUB SWAP1 DUP2 PUSH2 0xCA5 JUMPI SWAP1 POP JUMPDEST POP SWAP1 POP PUSH0 JUMPDEST DUP3 DUP2 LT ISZERO PUSH2 0x9BD JUMPI PUSH0 DUP1 ADDRESS DUP7 DUP7 DUP6 DUP2 DUP2 LT PUSH2 0xCDC JUMPI PUSH2 0xCDC PUSH2 0x334E JUMP JUMPDEST SWAP1 POP PUSH1 0x20 MUL DUP2 ADD SWAP1 PUSH2 0xCEE SWAP2 SWAP1 PUSH2 0x3492 JUMP JUMPDEST PUSH1 0x40 MLOAD PUSH2 0xCFC SWAP3 SWAP2 SWAP1 PUSH2 0x34DB JUMP JUMPDEST PUSH0 PUSH1 0x40 MLOAD DUP1 DUP4 SUB DUP2 DUP6 GAS DELEGATECALL SWAP2 POP POP RETURNDATASIZE DUP1 PUSH0 DUP2 EQ PUSH2 0xD34 JUMPI PUSH1 0x40 MLOAD SWAP2 POP PUSH1 0x1F NOT PUSH1 0x3F RETURNDATASIZE ADD AND DUP3 ADD PUSH1 0x40 MSTORE RETURNDATASIZE DUP3 MSTORE RETURNDATASIZE PUSH0 PUSH1 0x20 DUP5 ADD RETURNDATACOPY PUSH2 0xD39 JUMP JUMPDEST PUSH1 0x60 SWAP2 POP JUMPDEST POP SWAP2 POP SWAP2 POP DUP2 PUSH2 0xD6F JUMPI DUP1 MLOAD ISZERO PUSH2 0xD53 JUMPI DUP1 MLOAD DUP1 DUP3 PUSH1 0x20 ADD REVERT JUMPDEST PUSH1 0x40 MLOAD PUSH4 0x234EB819 PUSH1 0xE0 SHL DUP2 MSTORE PUSH1 0x4 DUP2 ADD DUP5 SWAP1 MSTORE PUSH1 0x24 ADD PUSH2 0x25F JUMP JUMPDEST DUP1 DUP5 DUP5 DUP2 MLOAD DUP2 LT PUSH2 0xD82 JUMPI PUSH2 0xD82 PUSH2 0x334E JUMP JUMPDEST PUSH1 0x20 SWAP1 DUP2 MUL SWAP2 SWAP1 SWAP2 ADD ADD MSTORE POP POP PUSH1 0x1 ADD PUSH2 0xCBF JUMP JUMPDEST PUSH1 0xA SLOAD PUSH1 0x40 MLOAD PUSH4 0x49A6078D PUSH1 0xE0 SHL DUP2 MSTORE PUSH1 0x4 DUP2 ADD DUP4 SWAP1 MSTORE PUSH1 0x60 SWAP2 PUSH1 0x1 PUSH1 0x1 PUSH1 0xA0 SHL SUB AND SWAP1 PUSH4 0x49A6078D SWAP1 PUSH1 0x24 ADD PUSH0 PUSH1 0x40 MLOAD DUP1 DUP4 SUB DUP2 DUP7 GAS STATICCALL ISZERO DUP1 ISZERO PUSH2 0xDDE JUMPI RETURNDATASIZE PUSH0 DUP1 RETURNDATACOPY RETURNDATASIZE PUSH0 REVERT JUMPDEST POP POP POP POP PUSH1 0x40 MLOAD RETURNDATASIZE PUSH0 DUP3 RETURNDATACOPY PUSH1 0x1F RETURNDATASIZE SWAP1 DUP2 ADD PUSH1 0x1F NOT AND DUP3 ADD PUSH1 0x40 MSTORE PUSH2 0x884 SWAP2 SWAP1 DUP2 ADD SWAP1 PUSH2 0x34EA JUMP JUMPDEST PUSH1 0x1 PUSH1 0x1 PUSH1 0xA0 SHL SUB DUP2 AND PUSH0 SWAP1 DUP2 MSTORE PUSH1 0x4 PUSH1 0x20 MSTORE PUSH1 0x40 DUP2 KECCAK256 PUSH2 0x884 SWAP1 PUSH2 0x1E55 JUMP JUMPDEST PUSH2 0xE2D PUSH2 0x1A24 JUMP JUMPDEST PUSH2 0xB2B PUSH0 PUSH2 0x1E5E JUMP JUMPDEST DUP5 MLOAD DUP5 MLOAD DUP2 EQ ISZERO DUP1 PUSH2 0xE49 JUMPI POP DUP4 MLOAD DUP2 EQ ISZERO JUMPDEST DUP1 PUSH2 0xE55 JUMPI POP DUP3 MLOAD DUP2 EQ ISZERO JUMPDEST DUP1 PUSH2 0xE61 JUMPI POP DUP2 MLOAD DUP2 EQ ISZERO JUMPDEST ISZERO PUSH2 0xE7F JUMPI PUSH1 0x40 MLOAD PUSH4 0x93A83119 PUSH1 0xE0 SHL DUP2 MSTORE PUSH1 0x4 ADD PUSH1 0x40 MLOAD DUP1 SWAP2 SUB SWAP1 REVERT JUMPDEST PUSH0 JUMPDEST DUP2 DUP2 LT ISZERO PUSH2 0xF1B JUMPI PUSH2 0xF13 DUP8 DUP3 DUP2 MLOAD DUP2 LT PUSH2 0xE9E JUMPI PUSH2 0xE9E PUSH2 0x334E JUMP JUMPDEST PUSH1 0x20 MUL PUSH1 0x20 ADD ADD MLOAD DUP8 DUP4 DUP2 MLOAD DUP2 LT PUSH2 0xEB8 JUMPI PUSH2 0xEB8 PUSH2 0x334E JUMP JUMPDEST PUSH1 0x20 MUL PUSH1 0x20 ADD ADD MLOAD DUP8 DUP5 DUP2 MLOAD DUP2 LT PUSH2 0xED2 JUMPI PUSH2 0xED2 PUSH2 0x334E JUMP JUMPDEST PUSH1 0x20 MUL PUSH1 0x20 ADD ADD MLOAD DUP8 DUP6 DUP2 MLOAD DUP2 LT PUSH2 0xEEC JUMPI PUSH2 0xEEC PUSH2 0x334E JUMP JUMPDEST PUSH1 0x20 MUL PUSH1 0x20 ADD ADD MLOAD DUP8 DUP7 DUP2 MLOAD DUP2 LT PUSH2 0xF06 JUMPI PUSH2 0xF06 PUSH2 0x334E JUMP JUMPDEST PUSH1 0x20 MUL PUSH1 0x20 ADD ADD MLOAD PUSH2 0xB4E JUMP JUMPDEST PUSH1 0x1 ADD PUSH2 0xE81 JUMP JUMPDEST POP POP POP POP POP POP POP JUMP JUMPDEST PUSH2 0xF2C PUSH2 0x1A24 JUMP JUMPDEST CALLVALUE ISZERO PUSH2 0xF4B JUMPI PUSH1 0x40 MLOAD PUSH4 0xF36BA737 PUSH1 0xE0 SHL DUP2 MSTORE PUSH1 0x4 ADD PUSH1 0x40 MLOAD DUP1 SWAP2 SUB SWAP1 REVERT JUMPDEST PUSH2 0xB17 DUP3 DUP3 PUSH2 0x1EC9 JUMP JUMPDEST PUSH2 0xF5D PUSH2 0x1A24 JUMP JUMPDEST PUSH2 0xB2B PUSH2 0x1F13 JUMP JUMPDEST PUSH0 PUSH2 0xF6F DUP4 PUSH2 0xA33 JUMP JUMPDEST SWAP1 POP PUSH1 0x1 PUSH1 0x1 PUSH1 0xA0 SHL SUB DUP2 AND CALLER EQ PUSH2 0xFB2 JUMPI PUSH1 0x40 MLOAD PUSH4 0x2D938F51 PUSH1 0xE1 SHL DUP2 MSTORE PUSH1 0x1 PUSH1 0x1 PUSH1 0xA0 SHL SUB DUP3 AND PUSH1 0x4 DUP3 ADD MSTORE PUSH1 0x24 DUP2 ADD DUP5 SWAP1 MSTORE CALLER PUSH1 0x44 DUP3 ADD MSTORE PUSH1 0x64 ADD PUSH2 0x25F JUMP JUMPDEST PUSH1 0x1 PUSH1 0x1 PUSH1 0xA0 SHL SUB DUP5 AND PUSH2 0xFD9 JUMPI PUSH1 0x40 MLOAD PUSH4 0x9577B8B3 PUSH1 0xE0 SHL DUP2 MSTORE PUSH1 0x4 ADD PUSH1 0x40 MLOAD DUP1 SWAP2 SUB SWAP1 REVERT JUMPDEST DUP4 PUSH1 0x1 PUSH1 0x1 PUSH1 0xA0 SHL SUB AND DUP2 PUSH1 0x1 PUSH1 0x1 PUSH1 0xA0 SHL SUB AND SUB PUSH2 0x100B JUMPI PUSH1 0x40 MLOAD PUSH4 0x44FED6B1 PUSH1 0xE1 SHL DUP2 MSTORE PUSH1 0x4 ADD PUSH1 0x40 MLOAD DUP1 SWAP2 SUB SWAP1 REVERT JUMPDEST PUSH0 DUP4 DUP2 MSTORE PUSH1 0x5 PUSH1 0x20 MSTORE PUSH1 0x40 DUP2 KECCAK256 PUSH2 0x1022 SWAP1 DUP7 PUSH2 0x1F50 JUMP JUMPDEST SWAP1 POP DUP1 PUSH2 0x1054 JUMPI PUSH1 0x40 MLOAD PUSH4 0x14EC4D6D PUSH1 0xE3 SHL DUP2 MSTORE PUSH1 0x1 PUSH1 0x1 PUSH1 0xA0 SHL SUB DUP7 AND PUSH1 0x4 DUP3 ADD MSTORE PUSH1 0x24 DUP2 ADD DUP6 SWAP1 MSTORE PUSH1 0x44 ADD PUSH2 0x25F JUMP JUMPDEST DUP4 DUP3 PUSH1 0x1 PUSH1 0x1 PUSH1 0xA0 SHL SUB AND DUP7 PUSH1 0x1 PUSH1 0x1 PUSH1 0xA0 SHL SUB AND PUSH32 0x1B1B58AA2EC0CEC2228B2D37124556D41F5A1F7B12F089171F896CC236671215 DUP7 PUSH1 0x40 MLOAD PUSH2 0x1098 SWAP2 SWAP1 PUSH2 0x2A38 JUMP JUMPDEST PUSH1 0x40 MLOAD DUP1 SWAP2 SUB SWAP1 LOG4 PUSH0 CALLER DUP6 PUSH1 0x1 DUP7 PUSH1 0x40 MLOAD PUSH1 0x20 ADD PUSH2 0x10B9 SWAP5 SWAP4 SWAP3 SWAP2 SWAP1 PUSH2 0x3583 JUMP JUMPDEST PUSH1 0x40 MLOAD PUSH1 0x20 DUP2 DUP4 SUB SUB DUP2 MSTORE SWAP1 PUSH1 0x40 MSTORE SWAP1 POP PUSH2 0x10D4 DUP7 DUP3 PUSH2 0x1F64 JUMP JUMPDEST POP POP POP POP POP POP JUMP JUMPDEST PUSH2 0x10E4 PUSH2 0x1A24 JUMP JUMPDEST DUP1 PUSH1 0x9 PUSH1 0x40 MLOAD PUSH2 0x1107 SWAP1 PUSH13 0x6D6574616D6F7270686F736973 PUSH1 0x98 SHL DUP2 MSTORE PUSH1 0xD ADD SWAP1 JUMP JUMPDEST SWAP1 DUP2 MSTORE PUSH1 0x20 ADD PUSH1 0x40 MLOAD DUP1 SWAP2 SUB SWAP1 KECCAK256 DUP2 SWAP1 SSTORE POP DUP1 PUSH32 0x945C1C4E99AA89F648FBFE3DF471B916F719E16D960FCEC0737D4D56BD696838 TIMESTAMP PUSH1 0x40 MLOAD PUSH2 0x114B SWAP2 DUP2 MSTORE PUSH1 0x20 ADD SWAP1 JUMP JUMPDEST PUSH1 0x40 MLOAD DUP1 SWAP2 SUB SWAP1 LOG2 POP JUMP JUMPDEST PUSH2 0x115E PUSH2 0x1A24 JUMP JUMPDEST CALLVALUE ISZERO PUSH2 0x117D JUMPI PUSH1 0x40 MLOAD PUSH4 0xF36BA737 PUSH1 0xE0 SHL DUP2 MSTORE PUSH1 0x4 ADD PUSH1 0x40 MLOAD DUP1 SWAP2 SUB SWAP1 REVERT JUMPDEST DUP1 MLOAD DUP3 MLOAD EQ PUSH2 0x119F JUMPI PUSH1 0x40 MLOAD PUSH4 0x3BCC8979 PUSH1 0xE0 SHL DUP2 MSTORE PUSH1 0x4 ADD PUSH1 0x40 MLOAD DUP1 SWAP2 SUB SWAP1 REVERT JUMPDEST DUP2 MLOAD PUSH0 SUB PUSH2 0x11C0 JUMPI PUSH1 0x40 MLOAD PUSH4 0x97DA5F95 PUSH1 0xE0 SHL DUP2 MSTORE PUSH1 0x4 ADD PUSH1 0x40 MLOAD DUP1 SWAP2 SUB SWAP1 REVERT JUMPDEST PUSH0 JUMPDEST DUP3 MLOAD DUP2 LT ISZERO PUSH2 0xC2D JUMPI PUSH2 0x1207 DUP4 DUP3 DUP2 MLOAD DUP2 LT PUSH2 0x11E0 JUMPI PUSH2 0x11E0 PUSH2 0x334E JUMP JUMPDEST PUSH1 0x20 MUL PUSH1 0x20 ADD ADD MLOAD DUP4 DUP4 DUP2 MLOAD DUP2 LT PUSH2 0x11FA JUMPI PUSH2 0x11FA PUSH2 0x334E JUMP JUMPDEST PUSH1 0x20 MUL PUSH1 0x20 ADD ADD MLOAD PUSH2 0x1EC9 JUMP JUMPDEST PUSH1 0x1 ADD PUSH2 0x11C2 JUMP JUMPDEST PUSH1 0x1 PUSH1 0x1 PUSH1 0xA0 SHL SUB DUP2 AND PUSH0 SWAP1 DUP2 MSTORE PUSH1 0x4 PUSH1 0x20 MSTORE PUSH1 0x40 SWAP1 KECCAK256 PUSH1 0x60 SWAP1 PUSH2 0x884 SWAP1 PUSH2 0x1BCE JUMP JUMPDEST DUP1 MLOAD PUSH1 0x20 DUP2 DUP4 ADD DUP2 ADD DUP1 MLOAD PUSH1 0xC DUP3 MSTORE SWAP3 DUP3 ADD SWAP2 SWAP1 SWAP4 ADD KECCAK256 SWAP2 MSTORE DUP1 SLOAD PUSH2 0x1256 SWAP1 PUSH2 0x3362 JUMP JUMPDEST DUP1 PUSH1 0x1F ADD PUSH1 0x20 DUP1 SWAP2 DIV MUL PUSH1 0x20 ADD PUSH1 0x40 MLOAD SWAP1 DUP2 ADD PUSH1 0x40 MSTORE DUP1 SWAP3 SWAP2 SWAP1 DUP2 DUP2 MSTORE PUSH1 0x20 ADD DUP3 DUP1 SLOAD PUSH2 0x1282 SWAP1 PUSH2 0x3362 JUMP JUMPDEST DUP1 ISZERO PUSH2 0x12CD JUMPI DUP1 PUSH1 0x1F LT PUSH2 0x12A4 JUMPI PUSH2 0x100 DUP1 DUP4 SLOAD DIV MUL DUP4 MSTORE SWAP2 PUSH1 0x20 ADD SWAP2 PUSH2 0x12CD JUMP JUMPDEST DUP3 ADD SWAP2 SWAP1 PUSH0 MSTORE PUSH1 0x20 PUSH0 KECCAK256 SWAP1 JUMPDEST DUP2 SLOAD DUP2 MSTORE SWAP1 PUSH1 0x1 ADD SWAP1 PUSH1 0x20 ADD DUP1 DUP4 GT PUSH2 0x12B0 JUMPI DUP3 SWAP1 SUB PUSH1 0x1F AND DUP3 ADD SWAP2 JUMPDEST POP POP POP POP POP DUP2 JUMP JUMPDEST PUSH2 0x12DD PUSH2 0x1A24 JUMP JUMPDEST DUP2 MLOAD DUP4 MLOAD EQ ISZERO DUP1 PUSH2 0x12F0 JUMPI POP DUP1 MLOAD DUP3 MLOAD EQ ISZERO JUMPDEST ISZERO PUSH2 0x130E JUMPI PUSH1 0x40 MLOAD PUSH4 0x17D38EFF PUSH1 0xE1 SHL DUP2 MSTORE PUSH1 0x4 ADD PUSH1 0x40 MLOAD DUP1 SWAP2 SUB SWAP1 REVERT JUMPDEST DUP3 MLOAD PUSH0 SUB PUSH2 0x132F JUMPI PUSH1 0x40 MLOAD PUSH4 0x80C98305 PUSH1 0xE0 SHL DUP2 MSTORE PUSH1 0x4 ADD PUSH1 0x40 MLOAD DUP1 SWAP2 SUB SWAP1 REVERT JUMPDEST PUSH0 JUMPDEST DUP4 MLOAD DUP2 LT ISZERO PUSH2 0x1398 JUMPI PUSH2 0x1390 DUP5 DUP3 DUP2 MLOAD DUP2 LT PUSH2 0x134F JUMPI PUSH2 0x134F PUSH2 0x334E JUMP JUMPDEST PUSH1 0x20 MUL PUSH1 0x20 ADD ADD MLOAD DUP5 DUP4 DUP2 MLOAD DUP2 LT PUSH2 0x1369 JUMPI PUSH2 0x1369 PUSH2 0x334E JUMP JUMPDEST PUSH1 0x20 MUL PUSH1 0x20 ADD ADD MLOAD DUP5 DUP5 DUP2 MLOAD DUP2 LT PUSH2 0x1383 JUMPI PUSH2 0x1383 PUSH2 0x334E JUMP JUMPDEST PUSH1 0x20 MUL PUSH1 0x20 ADD ADD MLOAD PUSH2 0x1F8F JUMP JUMPDEST PUSH1 0x1 ADD PUSH2 0x1331 JUMP JUMPDEST POP POP POP POP JUMP JUMPDEST PUSH1 0x60 PUSH0 PUSH1 0xC DUP4 PUSH1 0x40 MLOAD PUSH2 0x13B1 SWAP2 SWAP1 PUSH2 0x3343 JUMP JUMPDEST SWAP1 DUP2 MSTORE PUSH1 0x40 MLOAD SWAP1 DUP2 SWAP1 SUB PUSH1 0x20 ADD DUP2 KECCAK256 PUSH2 0x13C9 SWAP2 PUSH2 0x35B1 JUMP JUMPDEST PUSH1 0x40 MLOAD DUP1 SWAP2 SUB SWAP1 KECCAK256 PUSH2 0x147E PUSH1 0xC DUP6 PUSH1 0x40 MLOAD PUSH2 0x13E4 SWAP2 SWAP1 PUSH2 0x3343 JUMP JUMPDEST SWAP1 DUP2 MSTORE PUSH1 0x20 ADD PUSH1 0x40 MLOAD DUP1 SWAP2 SUB SWAP1 KECCAK256 DUP1 SLOAD PUSH2 0x13FD SWAP1 PUSH2 0x3362 JUMP JUMPDEST DUP1 PUSH1 0x1F ADD PUSH1 0x20 DUP1 SWAP2 DIV MUL PUSH1 0x20 ADD PUSH1 0x40 MLOAD SWAP1 DUP2 ADD PUSH1 0x40 MSTORE DUP1 SWAP3 SWAP2 SWAP1 DUP2 DUP2 MSTORE PUSH1 0x20 ADD DUP3 DUP1 SLOAD PUSH2 0x1429 SWAP1 PUSH2 0x3362 JUMP JUMPDEST DUP1 ISZERO PUSH2 0x1474 JUMPI DUP1 PUSH1 0x1F LT PUSH2 0x144B JUMPI PUSH2 0x100 DUP1 DUP4 SLOAD DIV MUL DUP4 MSTORE SWAP2 PUSH1 0x20 ADD SWAP2 PUSH2 0x1474 JUMP JUMPDEST DUP3 ADD SWAP2 SWAP1 PUSH0 MSTORE PUSH1 0x20 PUSH0 KECCAK256 SWAP1 JUMPDEST DUP2 SLOAD DUP2 MSTORE SWAP1 PUSH1 0x1 ADD SWAP1 PUSH1 0x20 ADD DUP1 DUP4 GT PUSH2 0x1457 JUMPI DUP3 SWAP1 SUB PUSH1 0x1F AND DUP3 ADD SWAP2 JUMPDEST POP POP POP POP POP PUSH2 0x1FF0 JUMP JUMPDEST PUSH1 0x40 MLOAD PUSH1 0x20 ADD PUSH2 0x148E SWAP2 SWAP1 PUSH2 0x361E JUMP JUMPDEST PUSH1 0x40 DUP1 MLOAD PUSH1 0x1F NOT DUP2 DUP5 SUB ADD DUP2 MSTORE SWAP1 DUP3 SWAP1 MSTORE PUSH2 0x14AC SWAP3 SWAP2 PUSH1 0x20 ADD PUSH2 0x364F JUMP JUMPDEST PUSH1 0x40 DUP1 MLOAD PUSH1 0x1F NOT DUP2 DUP5 SUB ADD DUP2 MSTORE SWAP2 SWAP1 MSTORE SWAP4 SWAP3 POP POP POP JUMP JUMPDEST PUSH2 0x14CB PUSH2 0x1A24 JUMP JUMPDEST PUSH2 0xC2D DUP4 DUP4 DUP4 PUSH2 0x1F8F JUMP JUMPDEST PUSH0 PUSH2 0x14E0 DUP5 PUSH2 0xA33 JUMP JUMPDEST SWAP1 POP CALLER PUSH1 0x1 PUSH1 0x1 PUSH1 0xA0 SHL SUB DUP3 AND EQ PUSH2 0x1533 JUMPI PUSH1 0x1 PUSH1 0x1 PUSH1 0xA0 SHL SUB DUP6 AND CALLER EQ PUSH2 0x1533 JUMPI PUSH1 0x40 MLOAD PUSH4 0x760B5ACD PUSH1 0xE0 SHL DUP2 MSTORE CALLER PUSH1 0x4 DUP3 ADD MSTORE PUSH1 0x1 PUSH1 0x1 PUSH1 0xA0 SHL SUB DUP3 AND PUSH1 0x24 DUP3 ADD MSTORE PUSH1 0x44 DUP2 ADD DUP6 SWAP1 MSTORE PUSH1 0x64 ADD PUSH2 0x25F JUMP JUMPDEST PUSH1 0x1 PUSH1 0x1 PUSH1 0xA0 SHL SUB DUP6 AND PUSH2 0x155A JUMPI PUSH1 0x40 MLOAD PUSH4 0x9577B8B3 PUSH1 0xE0 SHL DUP2 MSTORE PUSH1 0x4 ADD PUSH1 0x40 MLOAD DUP1 SWAP2 SUB SWAP1 REVERT JUMPDEST DUP5 PUSH1 0x1 PUSH1 0x1 PUSH1 0xA0 SHL SUB AND DUP2 PUSH1 0x1 PUSH1 0x1 PUSH1 0xA0 SHL SUB AND SUB PUSH2 0x158C JUMPI PUSH1 0x40 MLOAD PUSH4 0x44FED6B1 PUSH1 0xE1 SHL DUP2 MSTORE PUSH1 0x4 ADD PUSH1 0x40 MLOAD DUP1 SWAP2 SUB SWAP1 REVERT JUMPDEST PUSH2 0x1599 DUP6 DUP3 DUP7 DUP7 DUP7 PUSH2 0x214A JUMP JUMPDEST DUP3 ISZERO PUSH2 0xB8B JUMPI PUSH0 DUP2 DUP6 PUSH0 DUP6 PUSH1 0x40 MLOAD PUSH1 0x20 ADD PUSH2 0x10B9 SWAP5 SWAP4 SWAP3 SWAP2 SWAP1 PUSH2 0x3583 JUMP JUMPDEST PUSH1 0x60 DUP2 MLOAD PUSH1 0x1 PUSH1 0x1 PUSH1 0x40 SHL SUB DUP2 GT ISZERO PUSH2 0x15D2 JUMPI PUSH2 0x15D2 PUSH2 0x2A4A JUMP JUMPDEST PUSH1 0x40 MLOAD SWAP1 DUP1 DUP3 MSTORE DUP1 PUSH1 0x20 MUL PUSH1 0x20 ADD DUP3 ADD PUSH1 0x40 MSTORE DUP1 ISZERO PUSH2 0x1605 JUMPI DUP2 PUSH1 0x20 ADD JUMPDEST PUSH1 0x60 DUP2 MSTORE PUSH1 0x20 ADD SWAP1 PUSH1 0x1 SWAP1 SUB SWAP1 DUP2 PUSH2 0x15F0 JUMPI SWAP1 POP JUMPDEST POP SWAP1 POP PUSH0 JUMPDEST DUP3 MLOAD DUP2 LT ISZERO PUSH2 0x165A JUMPI PUSH2 0x1635 DUP4 DUP3 DUP2 MLOAD DUP2 LT PUSH2 0x1628 JUMPI PUSH2 0x1628 PUSH2 0x334E JUMP JUMPDEST PUSH1 0x20 MUL PUSH1 0x20 ADD ADD MLOAD PUSH2 0x1DB6 JUMP JUMPDEST DUP3 DUP3 DUP2 MLOAD DUP2 LT PUSH2 0x1647 JUMPI PUSH2 0x1647 PUSH2 0x334E JUMP JUMPDEST PUSH1 0x20 SWAP1 DUP2 MUL SWAP2 SWAP1 SWAP2 ADD ADD MSTORE PUSH1 0x1 ADD PUSH2 0x160A JUMP JUMPDEST POP SWAP2 SWAP1 POP JUMP JUMPDEST PUSH2 0x1668 PUSH2 0x1A24 JUMP JUMPDEST PUSH1 0x1 PUSH1 0x1 PUSH1 0xA0 SHL SUB DUP2 AND PUSH2 0x168F JUMPI PUSH1 0x40 MLOAD PUSH4 0x6B620DB PUSH1 0xE2 SHL DUP2 MSTORE PUSH1 0x4 ADD PUSH1 0x40 MLOAD DUP1 SWAP2 SUB SWAP1 REVERT JUMPDEST PUSH2 0x1698 DUP2 PUSH2 0x1E5E JUMP JUMPDEST POP JUMP JUMPDEST PUSH0 PUSH2 0x16A4 PUSH2 0x21E9 JUMP JUMPDEST CALLER PUSH1 0xA SLOAD PUSH1 0x40 MLOAD PUSH4 0x217B227 PUSH1 0xE4 SHL DUP2 MSTORE PUSH1 0x4 DUP2 ADD DUP6 SWAP1 MSTORE PUSH1 0x1 PUSH1 0x1 PUSH1 0xA0 SHL SUB SWAP3 DUP4 AND SWAP3 SWAP1 SWAP2 AND SWAP1 PUSH4 0x217B2270 SWAP1 PUSH1 0x24 ADD PUSH1 0x20 PUSH1 0x40 MLOAD DUP1 DUP4 SUB DUP2 DUP7 GAS STATICCALL ISZERO DUP1 ISZERO PUSH2 0x16F0 JUMPI RETURNDATASIZE PUSH0 DUP1 RETURNDATACOPY RETURNDATASIZE PUSH0 REVERT JUMPDEST POP POP POP POP PUSH1 0x40 MLOAD RETURNDATASIZE PUSH1 0x1F NOT PUSH1 0x1F DUP3 ADD AND DUP3 ADD DUP1 PUSH1 0x40 MSTORE POP DUP2 ADD SWAP1 PUSH2 0x1714 SWAP2 SWAP1 PUSH2 0x3670 JUMP JUMPDEST PUSH1 0x1 PUSH1 0x1 PUSH1 0xA0 SHL SUB AND EQ PUSH2 0x173A JUMPI PUSH1 0x40 MLOAD PUSH3 0x82B429 PUSH1 0xE8 SHL DUP2 MSTORE PUSH1 0x4 ADD PUSH1 0x40 MLOAD DUP1 SWAP2 SUB SWAP1 REVERT JUMPDEST PUSH1 0xA SLOAD PUSH1 0x1 PUSH1 0x1 PUSH1 0xA0 SHL SUB AND PUSH4 0x511B6952 CALLER PUSH1 0x1 DUP6 PUSH1 0x1 PUSH1 0x40 MLOAD DUP6 PUSH4 0xFFFFFFFF AND PUSH1 0xE0 SHL DUP2 MSTORE PUSH1 0x4 ADD PUSH2 0x1770 SWAP5 SWAP4 SWAP3 SWAP2 SWAP1 PUSH2 0x368B JUMP JUMPDEST PUSH0 PUSH1 0x40 MLOAD DUP1 DUP4 SUB DUP2 PUSH0 DUP8 DUP1 EXTCODESIZE ISZERO DUP1 ISZERO PUSH2 0x1787 JUMPI PUSH0 DUP1 REVERT JUMPDEST POP GAS CALL ISZERO DUP1 ISZERO PUSH2 0x1799 JUMPI RETURNDATASIZE PUSH0 DUP1 RETURNDATACOPY RETURNDATASIZE PUSH0 REVERT JUMPDEST POP POP POP POP PUSH20 0x13FE7655C1BEF7864DFC206838A20D00E5CE60A1 PUSH1 0x1 PUSH1 0x1 PUSH1 0xA0 SHL SUB AND PUSH4 0x760D9BBA PUSH2 0x17C7 CALLER SWAP1 JUMP JUMPDEST PUSH1 0x1 PUSH1 0x9 PUSH1 0x40 MLOAD PUSH2 0x17EB SWAP1 PUSH13 0x6D6574616D6F7270686F736973 PUSH1 0x98 SHL DUP2 MSTORE PUSH1 0xD ADD SWAP1 JUMP JUMPDEST SWAP1 DUP2 MSTORE PUSH1 0x40 MLOAD SWAP1 DUP2 SWAP1 SUB PUSH1 0x20 ADD DUP2 KECCAK256 SLOAD PUSH1 0x1 PUSH1 0x1 PUSH1 0xE0 SHL SUB NOT PUSH1 0xE0 DUP7 SWAP1 SHL AND DUP3 MSTORE PUSH2 0x181D SWAP4 SWAP3 SWAP2 PUSH1 0x1 SWAP1 PUSH1 0x4 ADD PUSH2 0x368B JUMP JUMPDEST PUSH0 PUSH1 0x40 MLOAD DUP1 DUP4 SUB DUP2 PUSH0 DUP8 DUP1 EXTCODESIZE ISZERO DUP1 ISZERO PUSH2 0x1834 JUMPI PUSH0 DUP1 REVERT JUMPDEST POP GAS CALL ISZERO DUP1 ISZERO PUSH2 0x1846 JUMPI RETURNDATASIZE PUSH0 DUP1 RETURNDATACOPY RETURNDATASIZE PUSH0 REVERT JUMPDEST POP POP POP POP PUSH2 0x1858 PUSH1 0x8 DUP1 SLOAD PUSH1 0x1 ADD SWAP1 SSTORE JUMP JUMPDEST PUSH0 PUSH2 0x1862 PUSH1 0x8 SLOAD SWAP1 JUMP JUMPDEST SWAP1 POP PUSH2 0x187F CALLER DUP3 PUSH1 0x1 PUSH1 0x40 MLOAD DUP1 PUSH1 0x20 ADD PUSH1 0x40 MSTORE DUP1 PUSH0 DUP2 MSTORE POP PUSH2 0x220D JUMP JUMPDEST PUSH2 0x18D9 DUP2 PUSH32 0x9AFB95CACC9F95858EC44AA8C3B685511002E30AE54415823F406128B85B238E PUSH0 SHL PUSH2 0x18D4 PUSH1 0x40 MLOAD DUP1 PUSH1 0x40 ADD PUSH1 0x40 MSTORE DUP1 PUSH1 0xD DUP2 MSTORE PUSH1 0x20 ADD PUSH13 0x4D6574616D6F7270686F736973 PUSH1 0x98 SHL DUP2 MSTORE POP PUSH2 0x139E JUMP JUMPDEST PUSH2 0x1F8F JUMP JUMPDEST PUSH1 0xB PUSH1 0x40 MLOAD DUP1 PUSH1 0x60 ADD PUSH1 0x40 MSTORE DUP1 PUSH2 0x18ED CALLER SWAP1 JUMP JUMPDEST PUSH1 0x1 PUSH1 0x1 PUSH1 0xA0 SHL SUB SWAP1 DUP2 AND DUP3 MSTORE PUSH1 0x20 DUP1 DUP4 ADD DUP9 SWAP1 MSTORE TIMESTAMP PUSH1 0x40 SWAP4 DUP5 ADD MSTORE DUP5 SLOAD PUSH1 0x1 DUP1 DUP3 ADD DUP8 SSTORE PUSH0 SWAP7 DUP8 MSTORE SWAP6 DUP3 SWAP1 KECCAK256 DUP6 MLOAD PUSH1 0x3 SWAP1 SWAP3 MUL ADD DUP1 SLOAD PUSH1 0x1 PUSH1 0x1 PUSH1 0xA0 SHL SUB NOT AND SWAP2 SWAP1 SWAP4 AND OR DUP3 SSTORE DUP4 ADD MLOAD SWAP4 DUP2 ADD SWAP4 SWAP1 SWAP4 SSTORE ADD MLOAD PUSH1 0x2 SWAP1 SWAP2 ADD SSTORE SWAP1 POP JUMPDEST SWAP2 SWAP1 POP JUMP JUMPDEST PUSH0 DUP1 DUP1 PUSH2 0x1973 PUSH10 0x6773C5A04A6D4300884B PUSH1 0xB1 SHL PUSH1 0x1 PUSH1 0x1 PUSH1 0xE0 SHL SUB NOT DUP7 AND PUSH2 0x2376 JUMP JUMPDEST SWAP1 POP PUSH0 PUSH2 0x197F DUP3 PUSH2 0x1DB6 JUMP JUMPDEST SWAP1 POP DUP1 MLOAD PUSH1 0x14 EQ ISZERO DUP1 ISZERO PUSH2 0x1993 JUMPI POP DUP1 MLOAD ISZERO ISZERO JUMPDEST ISZERO PUSH2 0x19B3 JUMPI DUP1 PUSH1 0x40 MLOAD PUSH4 0x42BFE79F PUSH1 0xE0 SHL DUP2 MSTORE PUSH1 0x4 ADD PUSH2 0x25F SWAP2 SWAP1 PUSH2 0x2A38 JUMP JUMPDEST PUSH2 0x19BC DUP2 PUSH2 0x36C2 JUMP JUMPDEST PUSH1 0x60 SHR SWAP6 PUSH1 0x1 SWAP6 POP SWAP4 POP POP POP POP JUMP JUMPDEST PUSH0 PUSH1 0x1 PUSH1 0x1 PUSH1 0xE0 SHL SUB NOT DUP3 AND PUSH4 0xA918FA6B PUSH1 0xE0 SHL EQ DUP1 PUSH2 0x884 JUMPI POP PUSH2 0x884 DUP3 PUSH2 0x23C9 JUMP JUMPDEST PUSH0 DUP1 PUSH2 0x1A01 PUSH4 0x1FFC9A7 PUSH1 0xE0 SHL PUSH2 0x194F JUMP JUMPDEST POP SWAP1 POP PUSH1 0x1 PUSH1 0x1 PUSH1 0xA0 SHL SUB DUP2 AND PUSH2 0x1A1A JUMPI POP PUSH0 SWAP3 SWAP2 POP POP JUMP JUMPDEST PUSH2 0x8D7 DUP2 DUP5 PUSH2 0x23FD JUMP JUMPDEST CALLER PUSH2 0x1A36 PUSH0 SLOAD PUSH1 0x1 PUSH1 0x1 PUSH1 0xA0 SHL SUB AND SWAP1 JUMP JUMPDEST PUSH1 0x1 PUSH1 0x1 PUSH1 0xA0 SHL SUB AND EQ PUSH2 0xB2B JUMPI PUSH1 0x40 MLOAD PUSH4 0xBF1169C5 PUSH1 0xE0 SHL DUP2 MSTORE CALLER PUSH1 0x4 DUP3 ADD MSTORE PUSH1 0x24 ADD PUSH2 0x25F JUMP JUMPDEST PUSH0 DUP3 DUP2 MSTORE PUSH1 0x6 PUSH1 0x20 SWAP1 DUP2 MSTORE PUSH1 0x40 DUP1 DUP4 KECCAK256 DUP5 DUP5 MSTORE SWAP1 SWAP2 MSTORE SWAP1 KECCAK256 DUP1 SLOAD PUSH1 0x60 SWAP2 SWAP1 PUSH2 0x1A86 SWAP1 PUSH2 0x3362 JUMP JUMPDEST DUP1 PUSH1 0x1F ADD PUSH1 0x20 DUP1 SWAP2 DIV MUL PUSH1 0x20 ADD PUSH1 0x40 MLOAD SWAP1 DUP2 ADD PUSH1 0x40 MSTORE DUP1 SWAP3 SWAP2 SWAP1 DUP2 DUP2 MSTORE PUSH1 0x20 ADD DUP3 DUP1 SLOAD PUSH2 0x1AB2 SWAP1 PUSH2 0x3362 JUMP JUMPDEST DUP1 ISZERO PUSH2 0x1AFD JUMPI DUP1 PUSH1 0x1F LT PUSH2 0x1AD4 JUMPI PUSH2 0x100 DUP1 DUP4 SLOAD DIV MUL DUP4 MSTORE SWAP2 PUSH1 0x20 ADD SWAP2 PUSH2 0x1AFD JUMP JUMPDEST DUP3 ADD SWAP2 SWAP1 PUSH0 MSTORE PUSH1 0x20 PUSH0 KECCAK256 SWAP1 JUMPDEST DUP2 SLOAD DUP2 MSTORE SWAP1 PUSH1 0x1 ADD SWAP1 PUSH1 0x20 ADD DUP1 DUP4 GT PUSH2 0x1AE0 JUMPI DUP3 SWAP1 SUB PUSH1 0x1F AND DUP3 ADD SWAP2 JUMPDEST POP POP POP POP POP SWAP1 POP SWAP3 SWAP2 POP POP JUMP JUMPDEST PUSH0 PUSH2 0x1B14 DUP3 PUSH2 0xA33 JUMP JUMPDEST PUSH1 0x1 PUSH1 0x1 PUSH1 0xA0 SHL SUB AND DUP4 PUSH1 0x1 PUSH1 0x1 PUSH1 0xA0 SHL SUB AND EQ DUP1 PUSH2 0x8D7 JUMPI POP PUSH0 DUP3 DUP2 MSTORE PUSH1 0x5 PUSH1 0x20 MSTORE PUSH1 0x40 SWAP1 KECCAK256 PUSH2 0x8D7 SWAP1 DUP5 PUSH2 0x2483 JUMP JUMPDEST PUSH2 0x1B4D PUSH2 0x24A4 JUMP JUMPDEST PUSH1 0x7 DUP1 SLOAD PUSH1 0xFF NOT AND SWAP1 SSTORE PUSH32 0x5DB9EE0A495BF2E6FF9C91A7834C1BA4FDD244A5E8AA4E537BD38AEAE4B073AA CALLER JUMPDEST PUSH1 0x40 MLOAD PUSH1 0x1 PUSH1 0x1 PUSH1 0xA0 SHL SUB SWAP1 SWAP2 AND DUP2 MSTORE PUSH1 0x20 ADD PUSH1 0x40 MLOAD DUP1 SWAP2 SUB SWAP1 LOG1 JUMP JUMPDEST PUSH0 DUP2 DUP2 MSTORE PUSH1 0x3 PUSH1 0x20 MSTORE PUSH1 0x40 SWAP1 KECCAK256 SLOAD PUSH1 0x1 PUSH1 0x1 PUSH1 0xA0 SHL SUB AND PUSH2 0x1698 JUMPI PUSH1 0x40 MLOAD PUSH4 0x5747CD1B PUSH1 0xE1 SHL DUP2 MSTORE PUSH1 0x4 DUP2 ADD DUP3 SWAP1 MSTORE PUSH1 0x24 ADD PUSH2 0x25F JUMP JUMPDEST PUSH1 0x60 PUSH0 PUSH2 0x8D7 DUP4 PUSH2 0x24C7 JUMP JUMPDEST PUSH0 PUSH2 0x1BE4 DUP5 PUSH2 0xA33 JUMP JUMPDEST SWAP1 POP DUP6 PUSH1 0x1 PUSH1 0x1 PUSH1 0xA0 SHL SUB AND DUP2 PUSH1 0x1 PUSH1 0x1 PUSH1 0xA0 SHL SUB AND EQ PUSH2 0x1C32 JUMPI PUSH1 0x40 MLOAD PUSH4 0x2D938F51 PUSH1 0xE1 SHL DUP2 MSTORE PUSH1 0x1 PUSH1 0x1 PUSH1 0xA0 SHL SUB DUP1 DUP4 AND PUSH1 0x4 DUP4 ADD MSTORE PUSH1 0x24 DUP3 ADD DUP7 SWAP1 MSTORE DUP8 AND PUSH1 0x44 DUP3 ADD MSTORE PUSH1 0x64 ADD PUSH2 0x25F JUMP JUMPDEST PUSH1 0x1 PUSH1 0x1 PUSH1 0xA0 SHL SUB DUP6 AND PUSH2 0x1C59 JUMPI PUSH1 0x40 MLOAD PUSH4 0x24ECEF4D PUSH1 0xE0 SHL DUP2 MSTORE PUSH1 0x4 ADD PUSH1 0x40 MLOAD DUP1 SWAP2 SUB SWAP1 REVERT JUMPDEST PUSH0 PUSH2 0x1C63 DUP6 PUSH2 0xA33 JUMP JUMPDEST SWAP1 POP DUP1 PUSH1 0x1 PUSH1 0x1 PUSH1 0xA0 SHL SUB AND DUP3 PUSH1 0x1 PUSH1 0x1 PUSH1 0xA0 SHL SUB AND EQ PUSH2 0x1CB1 JUMPI PUSH1 0x40 MLOAD PUSH4 0x5A9C31D3 PUSH1 0xE0 SHL DUP2 MSTORE PUSH1 0x4 DUP2 ADD DUP7 SWAP1 MSTORE PUSH1 0x1 PUSH1 0x1 PUSH1 0xA0 SHL SUB DUP1 DUP5 AND PUSH1 0x24 DUP4 ADD MSTORE DUP3 AND PUSH1 0x44 DUP3 ADD MSTORE PUSH1 0x64 ADD PUSH2 0x25F JUMP JUMPDEST PUSH2 0x1CBB DUP8 DUP7 PUSH2 0x251F JUMP JUMPDEST PUSH1 0x1 PUSH1 0x1 PUSH1 0xA0 SHL SUB DUP8 AND PUSH0 SWAP1 DUP2 MSTORE PUSH1 0x4 PUSH1 0x20 MSTORE PUSH1 0x40 SWAP1 KECCAK256 PUSH2 0x1CDC SWAP1 DUP7 PUSH2 0x2572 JUMP JUMPDEST POP PUSH1 0x1 PUSH1 0x1 PUSH1 0xA0 SHL SUB DUP7 AND PUSH0 SWAP1 DUP2 MSTORE PUSH1 0x4 PUSH1 0x20 MSTORE PUSH1 0x40 SWAP1 KECCAK256 PUSH2 0x1CFE SWAP1 DUP7 PUSH2 0x257D JUMP JUMPDEST POP PUSH0 DUP6 DUP2 MSTORE PUSH1 0x3 PUSH1 0x20 MSTORE PUSH1 0x40 SWAP1 DUP2 SWAP1 KECCAK256 DUP1 SLOAD PUSH1 0x1 PUSH1 0x1 PUSH1 0xA0 SHL SUB NOT AND PUSH1 0x1 PUSH1 0x1 PUSH1 0xA0 SHL SUB DUP10 DUP2 AND SWAP2 DUP3 OR SWAP1 SWAP3 SSTORE SWAP2 MLOAD DUP8 SWAP3 SWAP2 DUP11 AND SWAP1 PUSH32 0xB333C813A7426A7A11E2B190CAD52C44119421594B47F6F32ACE6D8C7207B2BF SWAP1 PUSH2 0x1D64 SWAP1 CALLER SWAP1 DUP11 SWAP1 DUP11 SWAP1 PUSH2 0x3710 JUMP JUMPDEST PUSH1 0x40 MLOAD DUP1 SWAP2 SUB SWAP1 LOG4 PUSH0 CALLER DUP9 DUP9 DUP9 DUP8 PUSH1 0x40 MLOAD PUSH1 0x20 ADD PUSH2 0x1D86 SWAP6 SWAP5 SWAP4 SWAP3 SWAP2 SWAP1 PUSH2 0x3744 JUMP JUMPDEST PUSH1 0x40 MLOAD PUSH1 0x20 DUP2 DUP4 SUB SUB DUP2 MSTORE SWAP1 PUSH1 0x40 MSTORE SWAP1 POP PUSH2 0x1DA1 DUP9 DUP3 PUSH2 0x2588 JUMP JUMPDEST PUSH2 0x1DAC DUP8 DUP7 DUP4 PUSH2 0x25B3 JUMP JUMPDEST POP POP POP POP POP POP POP POP JUMP JUMPDEST PUSH0 DUP2 DUP2 MSTORE PUSH1 0x1 PUSH1 0x20 MSTORE PUSH1 0x40 SWAP1 KECCAK256 DUP1 SLOAD PUSH1 0x60 SWAP2 SWAP1 PUSH2 0x1DD2 SWAP1 PUSH2 0x3362 JUMP JUMPDEST DUP1 PUSH1 0x1F ADD PUSH1 0x20 DUP1 SWAP2 DIV MUL PUSH1 0x20 ADD PUSH1 0x40 MLOAD SWAP1 DUP2 ADD PUSH1 0x40 MSTORE DUP1 SWAP3 SWAP2 SWAP1 DUP2 DUP2 MSTORE PUSH1 0x20 ADD DUP3 DUP1 SLOAD PUSH2 0x1DFE SWAP1 PUSH2 0x3362 JUMP JUMPDEST DUP1 ISZERO PUSH2 0x1E49 JUMPI DUP1 PUSH1 0x1F LT PUSH2 0x1E20 JUMPI PUSH2 0x100 DUP1 DUP4 SLOAD DIV MUL DUP4 MSTORE SWAP2 PUSH1 0x20 ADD SWAP2 PUSH2 0x1E49 JUMP JUMPDEST DUP3 ADD SWAP2 SWAP1 PUSH0 MSTORE PUSH1 0x20 PUSH0 KECCAK256 SWAP1 JUMPDEST DUP2 SLOAD DUP2 MSTORE SWAP1 PUSH1 0x1 ADD SWAP1 PUSH1 0x20 ADD DUP1 DUP4 GT PUSH2 0x1E2C JUMPI DUP3 SWAP1 SUB PUSH1 0x1F AND DUP3 ADD SWAP2 JUMPDEST POP POP POP POP POP SWAP1 POP SWAP2 SWAP1 POP JUMP JUMPDEST PUSH0 PUSH2 0x884 DUP3 SLOAD SWAP1 JUMP JUMPDEST PUSH0 SLOAD PUSH1 0x1 PUSH1 0x1 PUSH1 0xA0 SHL SUB DUP3 DUP2 AND SWAP2 AND EQ PUSH2 0x1698 JUMPI PUSH0 DUP1 SLOAD PUSH1 0x40 MLOAD PUSH1 0x1 PUSH1 0x1 PUSH1 0xA0 SHL SUB DUP1 DUP6 AND SWAP4 SWAP3 AND SWAP2 PUSH32 0x8BE0079C531659141344CD1FD0A4F28419497F9722A3DAAFE3B4186F6B6457E0 SWAP2 LOG3 PUSH0 DUP1 SLOAD PUSH1 0x1 PUSH1 0x1 PUSH1 0xA0 SHL SUB DUP4 AND PUSH1 0x1 PUSH1 0x1 PUSH1 0xA0 SHL SUB NOT SWAP1 SWAP2 AND OR SWAP1 SSTORE POP JUMP JUMPDEST PUSH32 0x98A16C9E50E3E99B3E797305C146898D294E5AEC55A47E213CB3611CCF17E73 DUP3 ADD PUSH2 0x1F09 JUMPI PUSH1 0x40 MLOAD PUSH4 0x1B324005 PUSH1 0xE1 SHL DUP2 MSTORE PUSH1 0x4 ADD PUSH1 0x40 MLOAD DUP1 SWAP2 SUB SWAP1 REVERT JUMPDEST PUSH2 0xB17 DUP3 DUP3 PUSH2 0x26B6 JUMP JUMPDEST PUSH2 0x1F1B PUSH2 0x21E9 JUMP JUMPDEST PUSH1 0x7 DUP1 SLOAD PUSH1 0xFF NOT AND PUSH1 0x1 OR SWAP1 SSTORE PUSH32 0x62E78CEA01BEE320CD4E420270B5EA74000D11B0C9F74754EBDBFC544B05A258 PUSH2 0x1B7A CALLER SWAP1 JUMP JUMPDEST PUSH0 PUSH2 0x8D7 DUP4 PUSH1 0x1 PUSH1 0x1 PUSH1 0xA0 SHL SUB DUP5 AND PUSH2 0x26C0 JUMP JUMPDEST PUSH2 0xB17 DUP3 PUSH32 0x8A1C15A8799F71B547E08E2BCB2E85257E81B0A07EEE2CE6712549EEF1F00970 DUP4 PUSH2 0x270C JUMP JUMPDEST PUSH0 DUP4 DUP2 MSTORE PUSH1 0x6 PUSH1 0x20 SWAP1 DUP2 MSTORE PUSH1 0x40 DUP1 DUP4 KECCAK256 DUP6 DUP5 MSTORE SWAP1 SWAP2 MSTORE SWAP1 KECCAK256 PUSH2 0x1FB1 DUP3 DUP3 PUSH2 0x33D8 JUMP JUMPDEST POP DUP2 DUP4 PUSH32 0xA6E4251F855F750545FE414F120DB91C76B88DEF14D120969E5BB2D3F05DEBBB DUP4 PUSH1 0x40 MLOAD PUSH2 0x1FE3 SWAP2 SWAP1 PUSH2 0x2A38 JUMP JUMPDEST PUSH1 0x40 MLOAD DUP1 SWAP2 SUB SWAP1 LOG3 POP POP POP JUMP JUMPDEST PUSH1 0x60 DUP2 MLOAD PUSH0 SUB PUSH2 0x200D JUMPI POP POP PUSH1 0x40 DUP1 MLOAD PUSH1 0x20 DUP2 ADD SWAP1 SWAP2 MSTORE PUSH0 DUP2 MSTORE SWAP1 JUMP JUMPDEST PUSH0 PUSH1 0x40 MLOAD DUP1 PUSH1 0x60 ADD PUSH1 0x40 MSTORE DUP1 PUSH1 0x40 DUP2 MSTORE PUSH1 0x20 ADD PUSH2 0x38E4 PUSH1 0x40 SWAP2 CODECOPY SWAP1 POP PUSH0 PUSH1 0x3 DUP5 MLOAD PUSH1 0x2 PUSH2 0x203A SWAP2 SWAP1 PUSH2 0x3792 JUMP JUMPDEST PUSH2 0x2044 SWAP2 SWAP1 PUSH2 0x37A5 JUMP JUMPDEST PUSH2 0x204F SWAP1 PUSH1 0x4 PUSH2 0x37C4 JUMP JUMPDEST PUSH1 0x1 PUSH1 0x1 PUSH1 0x40 SHL SUB DUP2 GT ISZERO PUSH2 0x2066 JUMPI PUSH2 0x2066 PUSH2 0x2A4A JUMP JUMPDEST PUSH1 0x40 MLOAD SWAP1 DUP1 DUP3 MSTORE DUP1 PUSH1 0x1F ADD PUSH1 0x1F NOT AND PUSH1 0x20 ADD DUP3 ADD PUSH1 0x40 MSTORE DUP1 ISZERO PUSH2 0x2090 JUMPI PUSH1 0x20 DUP3 ADD DUP2 DUP1 CALLDATASIZE DUP4 CALLDATACOPY ADD SWAP1 POP JUMPDEST POP SWAP1 POP PUSH1 0x1 DUP3 ADD PUSH1 0x20 DUP3 ADD DUP6 DUP7 MLOAD DUP8 ADD PUSH1 0x20 DUP2 ADD DUP1 MLOAD PUSH0 DUP3 MSTORE JUMPDEST DUP3 DUP5 LT ISZERO PUSH2 0x2105 JUMPI PUSH1 0x3 DUP5 ADD SWAP4 POP DUP4 MLOAD PUSH1 0x3F DUP2 PUSH1 0x12 SHR AND DUP8 ADD MLOAD DUP7 MSTORE8 PUSH1 0x1 DUP7 ADD SWAP6 POP PUSH1 0x3F DUP2 PUSH1 0xC SHR AND DUP8 ADD MLOAD DUP7 MSTORE8 PUSH1 0x1 DUP7 ADD SWAP6 POP PUSH1 0x3F DUP2 PUSH1 0x6 SHR AND DUP8 ADD MLOAD DUP7 MSTORE8 PUSH1 0x1 DUP7 ADD SWAP6 POP PUSH1 0x3F DUP2 AND DUP8 ADD MLOAD DUP7 MSTORE8 POP PUSH1 0x1 DUP6 ADD SWAP5 POP PUSH2 0x20AA JUMP JUMPDEST SWAP1 MSTORE POP POP DUP6 MLOAD PUSH1 0x3 SWAP1 MOD PUSH1 0x1 DUP2 EQ PUSH2 0x2124 JUMPI PUSH1 0x2 DUP2 EQ PUSH2 0x2137 JUMPI PUSH2 0x213F JUMP JUMPDEST PUSH1 0x3D PUSH1 0x1 DUP4 SUB MSTORE8 PUSH1 0x3D PUSH1 0x2 DUP4 SUB MSTORE8 PUSH2 0x213F JUMP JUMPDEST PUSH1 0x3D PUSH1 0x1 DUP4 SUB MSTORE8 JUMPDEST POP SWAP2 SWAP6 SWAP5 POP POP POP POP POP JUMP JUMPDEST PUSH0 DUP4 DUP2 MSTORE PUSH1 0x5 PUSH1 0x20 MSTORE PUSH1 0x40 DUP2 KECCAK256 PUSH2 0x2161 SWAP1 DUP8 PUSH2 0x2759 JUMP JUMPDEST SWAP1 POP DUP1 PUSH2 0x2193 JUMPI PUSH1 0x40 MLOAD PUSH4 0x12A8C6A3 PUSH1 0xE2 SHL DUP2 MSTORE PUSH1 0x1 PUSH1 0x1 PUSH1 0xA0 SHL SUB DUP8 AND PUSH1 0x4 DUP3 ADD MSTORE PUSH1 0x24 DUP2 ADD DUP6 SWAP1 MSTORE PUSH1 0x44 ADD PUSH2 0x25F JUMP JUMPDEST DUP4 DUP6 PUSH1 0x1 PUSH1 0x1 PUSH1 0xA0 SHL SUB AND DUP8 PUSH1 0x1 PUSH1 0x1 PUSH1 0xA0 SHL SUB AND PUSH32 0xC78CD419D6136F9F1C1C6AEC1D3FAE098CFFAF8BC86314A8F2685E32FE574E3C DUP7 DUP7 PUSH1 0x40 MLOAD PUSH2 0x21D9 SWAP3 SWAP2 SWAP1 PUSH2 0x37DB JUMP JUMPDEST PUSH1 0x40 MLOAD DUP1 SWAP2 SUB SWAP1 LOG4 POP POP POP POP POP POP JUMP JUMPDEST PUSH1 0x7 SLOAD PUSH1 0xFF AND ISZERO PUSH2 0xB2B JUMPI PUSH1 0x40 MLOAD PUSH4 0xD93C0665 PUSH1 0xE0 SHL DUP2 MSTORE PUSH1 0x4 ADD PUSH1 0x40 MLOAD DUP1 SWAP2 SUB SWAP1 REVERT JUMPDEST PUSH1 0x1 PUSH1 0x1 PUSH1 0xA0 SHL SUB DUP5 AND PUSH2 0x2234 JUMPI PUSH1 0x40 MLOAD PUSH4 0x24ECEF4D PUSH1 0xE0 SHL DUP2 MSTORE PUSH1 0x4 ADD PUSH1 0x40 MLOAD DUP1 SWAP2 SUB SWAP1 REVERT JUMPDEST PUSH0 DUP4 DUP2 MSTORE PUSH1 0x3 PUSH1 0x20 MSTORE PUSH1 0x40 SWAP1 KECCAK256 SLOAD PUSH1 0x1 PUSH1 0x1 PUSH1 0xA0 SHL SUB AND ISZERO PUSH2 0x226C JUMPI PUSH1 0x40 MLOAD PUSH4 0x34C7B511 PUSH1 0xE0 SHL DUP2 MSTORE PUSH1 0x4 DUP2 ADD DUP5 SWAP1 MSTORE PUSH1 0x24 ADD PUSH2 0x25F JUMP JUMPDEST PUSH0 DUP4 DUP2 MSTORE PUSH1 0x3 PUSH1 0x20 MSTORE PUSH1 0x40 SWAP1 KECCAK256 SLOAD PUSH1 0x1 PUSH1 0x1 PUSH1 0xA0 SHL SUB AND ISZERO PUSH2 0x22A4 JUMPI PUSH1 0x40 MLOAD PUSH4 0x34C7B511 PUSH1 0xE0 SHL DUP2 MSTORE PUSH1 0x4 DUP2 ADD DUP5 SWAP1 MSTORE PUSH1 0x24 ADD PUSH2 0x25F JUMP JUMPDEST PUSH1 0x2 PUSH0 DUP2 SLOAD PUSH2 0x22B2 SWAP1 PUSH2 0x37F5 JUMP JUMPDEST SWAP1 SWAP2 SSTORE POP PUSH1 0x1 PUSH1 0x1 PUSH1 0xA0 SHL SUB DUP5 AND PUSH0 SWAP1 DUP2 MSTORE PUSH1 0x4 PUSH1 0x20 MSTORE PUSH1 0x40 SWAP1 KECCAK256 PUSH2 0x22D7 SWAP1 DUP5 PUSH2 0x257D JUMP JUMPDEST POP PUSH0 DUP4 DUP2 MSTORE PUSH1 0x3 PUSH1 0x20 MSTORE PUSH1 0x40 DUP1 DUP3 KECCAK256 DUP1 SLOAD PUSH1 0x1 PUSH1 0x1 PUSH1 0xA0 SHL SUB NOT AND PUSH1 0x1 PUSH1 0x1 PUSH1 0xA0 SHL SUB DUP9 AND SWAP1 DUP2 OR SWAP1 SWAP2 SSTORE SWAP1 MLOAD DUP6 SWAP3 SWAP1 PUSH32 0xB333C813A7426A7A11E2B190CAD52C44119421594B47F6F32ACE6D8C7207B2BF SWAP1 PUSH2 0x2338 SWAP1 CALLER SWAP1 DUP9 SWAP1 DUP9 SWAP1 PUSH2 0x3710 JUMP JUMPDEST PUSH1 0x40 MLOAD DUP1 SWAP2 SUB SWAP1 LOG4 PUSH0 CALLER PUSH0 DUP7 DUP7 DUP6 PUSH1 0x40 MLOAD PUSH1 0x20 ADD PUSH2 0x235A SWAP6 SWAP5 SWAP4 SWAP3 SWAP2 SWAP1 PUSH2 0x3744 JUMP JUMPDEST PUSH1 0x40 MLOAD PUSH1 0x20 DUP2 DUP4 SUB SUB DUP2 MSTORE SWAP1 PUSH1 0x40 MSTORE SWAP1 POP PUSH2 0xB8B DUP6 DUP5 DUP4 PUSH2 0x25B3 JUMP JUMPDEST PUSH1 0x40 DUP1 MLOAD PUSH1 0x1 PUSH1 0x1 PUSH1 0xB0 SHL SUB NOT DUP5 AND PUSH1 0x20 DUP3 ADD MSTORE PUSH0 PUSH1 0x2A DUP3 ADD DUP2 SWAP1 MSTORE PUSH1 0x1 PUSH1 0x1 PUSH1 0x60 SHL SUB NOT DUP5 AND PUSH1 0x2C DUP4 ADD MSTORE SWAP2 DUP3 SWAP2 ADD PUSH1 0x40 MLOAD PUSH1 0x20 DUP2 DUP4 SUB SUB DUP2 MSTORE SWAP1 PUSH1 0x40 MSTORE SWAP1 POP DUP1 PUSH2 0x23C1 SWAP1 PUSH2 0x380D JUMP JUMPDEST SWAP5 SWAP4 POP POP POP POP JUMP JUMPDEST PUSH0 PUSH1 0x1 PUSH1 0x1 PUSH1 0xE0 SHL SUB NOT DUP3 AND PUSH4 0x18A6A9A5 PUSH1 0xE2 SHL EQ DUP1 PUSH2 0x884 JUMPI POP PUSH4 0x1FFC9A7 PUSH1 0xE0 SHL PUSH1 0x1 PUSH1 0x1 PUSH1 0xE0 SHL SUB NOT DUP4 AND EQ PUSH2 0x884 JUMP JUMPDEST PUSH1 0x40 DUP1 MLOAD PUSH1 0x1 PUSH1 0x1 PUSH1 0xE0 SHL SUB NOT DUP4 AND PUSH1 0x24 DUP1 DUP4 ADD SWAP2 SWAP1 SWAP2 MSTORE DUP3 MLOAD DUP1 DUP4 SUB SWAP1 SWAP2 ADD DUP2 MSTORE PUSH1 0x44 SWAP1 SWAP2 ADD SWAP1 SWAP2 MSTORE PUSH1 0x20 DUP1 DUP3 ADD DUP1 MLOAD PUSH1 0x1 PUSH1 0x1 PUSH1 0xE0 SHL SUB AND PUSH4 0x1FFC9A7 PUSH1 0xE0 SHL OR DUP2 MSTORE DUP3 MLOAD PUSH0 SWAP4 SWAP3 DUP5 SWAP3 DUP4 SWAP3 DUP4 SWAP3 SWAP2 DUP4 SWAP2 SWAP1 DUP11 PUSH2 0x7530 STATICCALL SWAP3 POP RETURNDATASIZE SWAP2 POP PUSH0 MLOAD SWAP1 POP DUP3 DUP1 ISZERO PUSH2 0x246D JUMPI POP PUSH1 0x20 DUP3 LT ISZERO JUMPDEST DUP1 ISZERO PUSH2 0x2478 JUMPI POP PUSH0 DUP2 GT JUMPDEST SWAP8 SWAP7 POP POP POP POP POP POP POP JUMP JUMPDEST PUSH1 0x1 PUSH1 0x1 PUSH1 0xA0 SHL SUB DUP2 AND PUSH0 SWAP1 DUP2 MSTORE PUSH1 0x1 DUP4 ADD PUSH1 0x20 MSTORE PUSH1 0x40 DUP2 KECCAK256 SLOAD ISZERO ISZERO PUSH2 0x8D7 JUMP JUMPDEST PUSH1 0x7 SLOAD PUSH1 0xFF AND PUSH2 0xB2B JUMPI PUSH1 0x40 MLOAD PUSH4 0x8DFC202B PUSH1 0xE0 SHL DUP2 MSTORE PUSH1 0x4 ADD PUSH1 0x40 MLOAD DUP1 SWAP2 SUB SWAP1 REVERT JUMPDEST PUSH1 0x60 DUP2 PUSH0 ADD DUP1 SLOAD DUP1 PUSH1 0x20 MUL PUSH1 0x20 ADD PUSH1 0x40 MLOAD SWAP1 DUP2 ADD PUSH1 0x40 MSTORE DUP1 SWAP3 SWAP2 SWAP1 DUP2 DUP2 MSTORE PUSH1 0x20 ADD DUP3 DUP1 SLOAD DUP1 ISZERO PUSH2 0x1E49 JUMPI PUSH1 0x20 MUL DUP3 ADD SWAP2 SWAP1 PUSH0 MSTORE PUSH1 0x20 PUSH0 KECCAK256 SWAP1 JUMPDEST DUP2 SLOAD DUP2 MSTORE PUSH1 0x20 ADD SWAP1 PUSH1 0x1 ADD SWAP1 DUP1 DUP4 GT PUSH2 0x2500 JUMPI POP POP POP POP POP SWAP1 POP SWAP2 SWAP1 POP JUMP JUMPDEST PUSH0 DUP2 DUP2 MSTORE PUSH1 0x5 PUSH1 0x20 MSTORE PUSH1 0x40 DUP2 KECCAK256 SWAP1 PUSH2 0x2536 DUP3 PUSH2 0x1E55 JUMP JUMPDEST SWAP1 POP PUSH0 DUP1 JUMPDEST DUP3 DUP2 LT ISZERO PUSH2 0x10D4 JUMPI PUSH2 0x254D DUP5 PUSH0 PUSH2 0x276D JUMP JUMPDEST SWAP2 POP PUSH2 0x256A DUP3 DUP8 DUP8 PUSH0 PUSH1 0x40 MLOAD DUP1 PUSH1 0x20 ADD PUSH1 0x40 MSTORE DUP1 PUSH0 DUP2 MSTORE POP PUSH2 0x214A JUMP JUMPDEST PUSH1 0x1 ADD PUSH2 0x253B JUMP JUMPDEST PUSH0 PUSH2 0x8D7 DUP4 DUP4 PUSH2 0x2778 JUMP JUMPDEST PUSH0 PUSH2 0x8D7 DUP4 DUP4 PUSH2 0x26C0 JUMP JUMPDEST PUSH2 0xB17 DUP3 PUSH32 0xB23EAE7E6D1564B295B4C3E3BE402D9A2F0776C57BDF365903496F6FA481AB00 DUP4 PUSH2 0x270C JUMP JUMPDEST PUSH2 0x25C4 DUP4 PUSH4 0x1AED5A85 PUSH1 0xE2 SHL PUSH2 0x23FD JUMP JUMPDEST ISZERO PUSH2 0x2659 JUMPI PUSH1 0x40 MLOAD PUSH4 0x1AED5A85 PUSH1 0xE2 SHL DUP2 MSTORE PUSH1 0x1 PUSH1 0x1 PUSH1 0xA0 SHL SUB DUP5 AND SWAP1 PUSH4 0x6BB56A14 SWAP1 PUSH2 0x2617 SWAP1 PUSH32 0xB084A55EBF70FD3C06FD755269DAC2212C4D3F0F4D09079780BFA50C1B2984D SWAP1 DUP6 SWAP1 PUSH1 0x4 ADD PUSH2 0x3830 JUMP JUMPDEST PUSH0 PUSH1 0x40 MLOAD DUP1 DUP4 SUB DUP2 PUSH0 DUP8 GAS CALL ISZERO DUP1 ISZERO PUSH2 0x2632 JUMPI RETURNDATASIZE PUSH0 DUP1 RETURNDATACOPY RETURNDATASIZE PUSH0 REVERT JUMPDEST POP POP POP POP PUSH1 0x40 MLOAD RETURNDATASIZE PUSH0 DUP3 RETURNDATACOPY PUSH1 0x1F RETURNDATASIZE SWAP1 DUP2 ADD PUSH1 0x1F NOT AND DUP3 ADD PUSH1 0x40 MSTORE PUSH2 0x1398 SWAP2 SWAP1 DUP2 ADD SWAP1 PUSH2 0x3848 JUMP JUMPDEST DUP2 PUSH2 0xC2D JUMPI PUSH1 0x1 PUSH1 0x1 PUSH1 0xA0 SHL SUB DUP4 AND EXTCODESIZE ISZERO PUSH2 0x2692 JUMPI PUSH1 0x40 MLOAD PUSH4 0x4349776D PUSH1 0xE0 SHL DUP2 MSTORE PUSH1 0x1 PUSH1 0x1 PUSH1 0xA0 SHL SUB DUP5 AND PUSH1 0x4 DUP3 ADD MSTORE PUSH1 0x24 ADD PUSH2 0x25F JUMP JUMPDEST PUSH1 0x40 MLOAD PUSH4 0x3173137 PUSH1 0xE0 SHL DUP2 MSTORE PUSH1 0x1 PUSH1 0x1 PUSH1 0xA0 SHL SUB DUP5 AND PUSH1 0x4 DUP3 ADD MSTORE PUSH1 0x24 ADD PUSH2 0x25F JUMP JUMPDEST PUSH2 0xB17 DUP3 DUP3 PUSH2 0x285B JUMP JUMPDEST PUSH0 DUP2 DUP2 MSTORE PUSH1 0x1 DUP4 ADD PUSH1 0x20 MSTORE PUSH1 0x40 DUP2 KECCAK256 SLOAD PUSH2 0x2705 JUMPI POP DUP2 SLOAD PUSH1 0x1 DUP2 DUP2 ADD DUP5 SSTORE PUSH0 DUP5 DUP2 MSTORE PUSH1 0x20 DUP1 DUP3 KECCAK256 SWAP1 SWAP4 ADD DUP5 SWAP1 SSTORE DUP5 SLOAD DUP5 DUP3 MSTORE DUP3 DUP7 ADD SWAP1 SWAP4 MSTORE PUSH1 0x40 SWAP1 KECCAK256 SWAP2 SWAP1 SWAP2 SSTORE PUSH2 0x884 JUMP JUMPDEST POP PUSH0 PUSH2 0x884 JUMP JUMPDEST PUSH2 0x2726 PUSH1 0x1 PUSH1 0x1 PUSH1 0xA0 SHL SUB DUP5 AND PUSH4 0x1AED5A85 PUSH1 0xE2 SHL PUSH2 0x23FD JUMP JUMPDEST ISZERO PUSH2 0xC2D JUMPI PUSH1 0x40 MLOAD PUSH4 0x1AED5A85 PUSH1 0xE2 SHL DUP2 MSTORE PUSH1 0x1 PUSH1 0x1 PUSH1 0xA0 SHL SUB DUP5 AND SWAP1 PUSH4 0x6BB56A14 SWAP1 PUSH2 0x2617 SWAP1 DUP6 SWAP1 DUP6 SWAP1 PUSH1 0x4 ADD PUSH2 0x3830 JUMP JUMPDEST PUSH0 PUSH2 0x8D7 DUP4 PUSH1 0x1 PUSH1 0x1 PUSH1 0xA0 SHL SUB DUP5 AND PUSH2 0x2778 JUMP JUMPDEST PUSH0 PUSH2 0x8D7 DUP4 DUP4 PUSH2 0x296F JUMP JUMPDEST PUSH0 DUP2 DUP2 MSTORE PUSH1 0x1 DUP4 ADD PUSH1 0x20 MSTORE PUSH1 0x40 DUP2 KECCAK256 SLOAD DUP1 ISZERO PUSH2 0x2852 JUMPI PUSH0 PUSH2 0x279A PUSH1 0x1 DUP4 PUSH2 0x38BC JUMP JUMPDEST DUP6 SLOAD SWAP1 SWAP2 POP PUSH0 SWAP1 PUSH2 0x27AD SWAP1 PUSH1 0x1 SWAP1 PUSH2 0x38BC JUMP JUMPDEST SWAP1 POP DUP2 DUP2 EQ PUSH2 0x280C JUMPI PUSH0 DUP7 PUSH0 ADD DUP3 DUP2 SLOAD DUP2 LT PUSH2 0x27CB JUMPI PUSH2 0x27CB PUSH2 0x334E JUMP JUMPDEST SWAP1 PUSH0 MSTORE PUSH1 0x20 PUSH0 KECCAK256 ADD SLOAD SWAP1 POP DUP1 DUP8 PUSH0 ADD DUP5 DUP2 SLOAD DUP2 LT PUSH2 0x27EB JUMPI PUSH2 0x27EB PUSH2 0x334E JUMP JUMPDEST PUSH0 SWAP2 DUP3 MSTORE PUSH1 0x20 DUP1 DUP4 KECCAK256 SWAP1 SWAP2 ADD SWAP3 SWAP1 SWAP3 SSTORE SWAP2 DUP3 MSTORE PUSH1 0x1 DUP9 ADD SWAP1 MSTORE PUSH1 0x40 SWAP1 KECCAK256 DUP4 SWAP1 SSTORE JUMPDEST DUP6 SLOAD DUP7 SWAP1 DUP1 PUSH2 0x281D JUMPI PUSH2 0x281D PUSH2 0x38CF JUMP JUMPDEST PUSH1 0x1 SWAP1 SUB DUP2 DUP2 SWAP1 PUSH0 MSTORE PUSH1 0x20 PUSH0 KECCAK256 ADD PUSH0 SWAP1 SSTORE SWAP1 SSTORE DUP6 PUSH1 0x1 ADD PUSH0 DUP7 DUP2 MSTORE PUSH1 0x20 ADD SWAP1 DUP2 MSTORE PUSH1 0x20 ADD PUSH0 KECCAK256 PUSH0 SWAP1 SSTORE PUSH1 0x1 SWAP4 POP POP POP POP PUSH2 0x884 JUMP JUMPDEST PUSH0 SWAP2 POP POP PUSH2 0x884 JUMP JUMPDEST PUSH32 0x2145E1D6D074577DC71EF54C3807742B41B053A9352AE6B491331509ACB9750F DUP3 ADD PUSH2 0x289B JUMPI PUSH1 0x40 MLOAD PUSH4 0x85C169BD PUSH1 0xE0 SHL DUP2 MSTORE PUSH1 0x4 ADD PUSH1 0x40 MLOAD DUP1 SWAP2 SUB SWAP1 REVERT JUMPDEST PUSH32 0xD0F59754F88971FE6BC5A6618CC9D5F1E859C58D16B22D1C7B2D3E2B246CD8AA DUP3 ADD PUSH2 0x28DB JUMPI PUSH1 0x40 MLOAD PUSH4 0xECEAB67 PUSH1 0xE3 SHL DUP2 MSTORE PUSH1 0x4 ADD PUSH1 0x40 MLOAD DUP1 SWAP2 SUB SWAP1 REVERT JUMPDEST PUSH32 0x1FD9E056A24D14C4ABC642FCC325992A946906D0DBC57DD70278AAF12842024D DUP3 ADD PUSH2 0x291B JUMPI PUSH1 0x40 MLOAD PUSH4 0x4EF6D7FB PUSH1 0xE0 SHL DUP2 MSTORE PUSH1 0x4 ADD PUSH1 0x40 MLOAD DUP1 SWAP2 SUB SWAP1 REVERT JUMPDEST PUSH0 DUP3 DUP2 MSTORE PUSH1 0x1 PUSH1 0x20 MSTORE PUSH1 0x40 SWAP1 KECCAK256 PUSH2 0x2932 DUP3 DUP3 PUSH2 0x33D8 JUMP JUMPDEST POP DUP2 PUSH32 0xECE574603820D07BC9B91F2A932BAADF4628AABCB8AFBA49776529C14A6104B2 DUP3 PUSH1 0x40 MLOAD PUSH2 0x2963 SWAP2 SWAP1 PUSH2 0x2A38 JUMP JUMPDEST PUSH1 0x40 MLOAD DUP1 SWAP2 SUB SWAP1 LOG2 POP POP JUMP JUMPDEST PUSH0 DUP3 PUSH0 ADD DUP3 DUP2 SLOAD DUP2 LT PUSH2 0x2984 JUMPI PUSH2 0x2984 PUSH2 0x334E JUMP JUMPDEST SWAP1 PUSH0 MSTORE PUSH1 0x20 PUSH0 KECCAK256 ADD SLOAD SWAP1 POP SWAP3 SWAP2 POP POP JUMP JUMPDEST PUSH1 0x20 DUP2 MSTORE DUP2 PUSH1 0x20 DUP3 ADD MSTORE DUP2 DUP4 PUSH1 0x40 DUP4 ADD CALLDATACOPY PUSH0 DUP2 DUP4 ADD PUSH1 0x40 SWAP1 DUP2 ADD SWAP2 SWAP1 SWAP2 MSTORE PUSH1 0x1F SWAP1 SWAP3 ADD PUSH1 0x1F NOT AND ADD ADD SWAP2 SWAP1 POP JUMP JUMPDEST PUSH0 PUSH1 0x20 DUP3 DUP5 SUB SLT ISZERO PUSH2 0x29D3 JUMPI PUSH0 DUP1 REVERT JUMPDEST DUP2 CALLDATALOAD PUSH1 0x1 PUSH1 0x1 PUSH1 0xE0 SHL SUB NOT DUP2 AND DUP2 EQ PUSH2 0x8D7 JUMPI PUSH0 DUP1 REVERT JUMPDEST PUSH0 DUP1 PUSH1 0x40 DUP4 DUP6 SUB SLT ISZERO PUSH2 0x29FB JUMPI PUSH0 DUP1 REVERT JUMPDEST POP POP DUP1 CALLDATALOAD SWAP3 PUSH1 0x20 SWAP1 SWAP2 ADD CALLDATALOAD SWAP2 POP JUMP JUMPDEST PUSH0 DUP2 MLOAD DUP1 DUP5 MSTORE DUP1 PUSH1 0x20 DUP5 ADD PUSH1 0x20 DUP7 ADD MCOPY PUSH0 PUSH1 0x20 DUP3 DUP7 ADD ADD MSTORE PUSH1 0x20 PUSH1 0x1F NOT PUSH1 0x1F DUP4 ADD AND DUP6 ADD ADD SWAP2 POP POP SWAP3 SWAP2 POP POP JUMP JUMPDEST PUSH1 0x20 DUP2 MSTORE PUSH0 PUSH2 0x8D7 PUSH1 0x20 DUP4 ADD DUP5 PUSH2 0x2A0A JUMP JUMPDEST PUSH4 0x4E487B71 PUSH1 0xE0 SHL PUSH0 MSTORE PUSH1 0x41 PUSH1 0x4 MSTORE PUSH1 0x24 PUSH0 REVERT JUMPDEST PUSH1 0x40 MLOAD PUSH1 0x1F DUP3 ADD PUSH1 0x1F NOT AND DUP2 ADD PUSH1 0x1 PUSH1 0x1 PUSH1 0x40 SHL SUB DUP2 GT DUP3 DUP3 LT OR ISZERO PUSH2 0x2A86 JUMPI PUSH2 0x2A86 PUSH2 0x2A4A JUMP JUMPDEST PUSH1 0x40 MSTORE SWAP2 SWAP1 POP JUMP JUMPDEST PUSH0 PUSH1 0x1 PUSH1 0x1 PUSH1 0x40 SHL SUB DUP3 GT ISZERO PUSH2 0x2AA6 JUMPI PUSH2 0x2AA6 PUSH2 0x2A4A JUMP JUMPDEST POP PUSH1 0x5 SHL PUSH1 0x20 ADD SWAP1 JUMP JUMPDEST PUSH0 DUP3 PUSH1 0x1F DUP4 ADD SLT PUSH2 0x2ABF JUMPI PUSH0 DUP1 REVERT JUMPDEST DUP2 CALLDATALOAD PUSH2 0x2AD2 PUSH2 0x2ACD DUP3 PUSH2 0x2A8E JUMP JUMPDEST PUSH2 0x2A5E JUMP JUMPDEST DUP1 DUP3 DUP3 MSTORE PUSH1 0x20 DUP3 ADD SWAP2 POP PUSH1 0x20 DUP4 PUSH1 0x5 SHL DUP7 ADD ADD SWAP3 POP DUP6 DUP4 GT ISZERO PUSH2 0x2AF3 JUMPI PUSH0 DUP1 REVERT JUMPDEST PUSH1 0x20 DUP6 ADD JUMPDEST DUP4 DUP2 LT ISZERO PUSH2 0x2B10 JUMPI DUP1 CALLDATALOAD DUP4 MSTORE PUSH1 0x20 SWAP3 DUP4 ADD SWAP3 ADD PUSH2 0x2AF8 JUMP JUMPDEST POP SWAP6 SWAP5 POP POP POP POP POP JUMP JUMPDEST PUSH0 DUP1 PUSH1 0x40 DUP4 DUP6 SUB SLT ISZERO PUSH2 0x2B2B JUMPI PUSH0 DUP1 REVERT JUMPDEST DUP3 CALLDATALOAD PUSH1 0x1 PUSH1 0x1 PUSH1 0x40 SHL SUB DUP2 GT ISZERO PUSH2 0x2B40 JUMPI PUSH0 DUP1 REVERT JUMPDEST PUSH2 0x2B4C DUP6 DUP3 DUP7 ADD PUSH2 0x2AB0 JUMP JUMPDEST SWAP3 POP POP PUSH1 0x20 DUP4 ADD CALLDATALOAD PUSH1 0x1 PUSH1 0x1 PUSH1 0x40 SHL SUB DUP2 GT ISZERO PUSH2 0x2B67 JUMPI PUSH0 DUP1 REVERT JUMPDEST PUSH2 0x2B73 DUP6 DUP3 DUP7 ADD PUSH2 0x2AB0 JUMP JUMPDEST SWAP2 POP POP SWAP3 POP SWAP3 SWAP1 POP JUMP JUMPDEST PUSH0 PUSH1 0x20 DUP3 ADD PUSH1 0x20 DUP4 MSTORE DUP1 DUP5 MLOAD DUP1 DUP4 MSTORE PUSH1 0x40 DUP6 ADD SWAP2 POP PUSH1 0x40 DUP2 PUSH1 0x5 SHL DUP7 ADD ADD SWAP3 POP PUSH1 0x20 DUP7 ADD PUSH0 JUMPDEST DUP3 DUP2 LT ISZERO PUSH2 0x2BD4 JUMPI PUSH1 0x3F NOT DUP8 DUP7 SUB ADD DUP5 MSTORE PUSH2 0x2BBF DUP6 DUP4 MLOAD PUSH2 0x2A0A JUMP JUMPDEST SWAP5 POP PUSH1 0x20 SWAP4 DUP5 ADD SWAP4 SWAP2 SWAP1 SWAP2 ADD SWAP1 PUSH1 0x1 ADD PUSH2 0x2BA3 JUMP JUMPDEST POP SWAP3 SWAP7 SWAP6 POP POP POP POP POP POP JUMP JUMPDEST PUSH0 PUSH1 0x1 PUSH1 0x1 PUSH1 0x40 SHL SUB DUP3 GT ISZERO PUSH2 0x2BF8 JUMPI PUSH2 0x2BF8 PUSH2 0x2A4A JUMP JUMPDEST POP PUSH1 0x1F ADD PUSH1 0x1F NOT AND PUSH1 0x20 ADD SWAP1 JUMP JUMPDEST PUSH0 DUP3 PUSH1 0x1F DUP4 ADD SLT PUSH2 0x2C15 JUMPI PUSH0 DUP1 REVERT JUMPDEST DUP2 CALLDATALOAD PUSH1 0x20 DUP4 ADD PUSH0 PUSH2 0x2C28 PUSH2 0x2ACD DUP5 PUSH2 0x2BE0 JUMP JUMPDEST SWAP1 POP DUP3 DUP2 MSTORE DUP6 DUP4 DUP4 ADD GT ISZERO PUSH2 0x2C3B JUMPI PUSH0 DUP1 REVERT JUMPDEST DUP3 DUP3 PUSH1 0x20 DUP4 ADD CALLDATACOPY PUSH0 SWAP3 DUP2 ADD PUSH1 0x20 ADD SWAP3 SWAP1 SWAP3 MSTORE POP SWAP4 SWAP3 POP POP POP JUMP JUMPDEST PUSH0 DUP1 PUSH1 0x40 DUP4 DUP6 SUB SLT ISZERO PUSH2 0x2C66 JUMPI PUSH0 DUP1 REVERT JUMPDEST DUP3 CALLDATALOAD PUSH1 0x1 PUSH1 0x1 PUSH1 0x40 SHL SUB DUP2 GT ISZERO PUSH2 0x2C7B JUMPI PUSH0 DUP1 REVERT JUMPDEST PUSH2 0x2C87 DUP6 DUP3 DUP7 ADD PUSH2 0x2C06 JUMP JUMPDEST SWAP3 POP POP PUSH1 0x20 DUP4 ADD CALLDATALOAD PUSH1 0x1 PUSH1 0x1 PUSH1 0x40 SHL SUB DUP2 GT ISZERO PUSH2 0x2CA2 JUMPI PUSH0 DUP1 REVERT JUMPDEST PUSH2 0x2B73 DUP6 DUP3 DUP7 ADD PUSH2 0x2C06 JUMP JUMPDEST PUSH0 PUSH1 0x20 DUP3 DUP5 SUB SLT ISZERO PUSH2 0x2CBE JUMPI PUSH0 DUP1 REVERT JUMPDEST POP CALLDATALOAD SWAP2 SWAP1 POP JUMP JUMPDEST PUSH1 0x1 PUSH1 0x1 PUSH1 0xA0 SHL SUB DUP2 AND DUP2 EQ PUSH2 0x1698 JUMPI PUSH0 DUP1 REVERT JUMPDEST PUSH0 DUP1 PUSH1 0x40 DUP4 DUP6 SUB SLT ISZERO PUSH2 0x2CEA JUMPI PUSH0 DUP1 REVERT JUMPDEST DUP3 CALLDATALOAD PUSH2 0x2CF5 DUP2 PUSH2 0x2CC5 JUMP JUMPDEST SWAP5 PUSH1 0x20 SWAP4 SWAP1 SWAP4 ADD CALLDATALOAD SWAP4 POP POP POP JUMP JUMPDEST PUSH1 0x20 DUP1 DUP3 MSTORE DUP3 MLOAD DUP3 DUP3 ADD DUP2 SWAP1 MSTORE PUSH0 SWAP2 DUP5 ADD SWAP1 PUSH1 0x40 DUP5 ADD SWAP1 DUP4 JUMPDEST DUP2 DUP2 LT ISZERO PUSH2 0x2D43 JUMPI DUP4 MLOAD PUSH1 0x1 PUSH1 0x1 PUSH1 0xA0 SHL SUB AND DUP4 MSTORE PUSH1 0x20 SWAP4 DUP5 ADD SWAP4 SWAP1 SWAP3 ADD SWAP2 PUSH1 0x1 ADD PUSH2 0x2D1C JUMP JUMPDEST POP SWAP1 SWAP6 SWAP5 POP POP POP POP POP JUMP JUMPDEST DUP1 CALLDATALOAD DUP1 ISZERO ISZERO DUP2 EQ PUSH2 0x194A JUMPI PUSH0 DUP1 REVERT JUMPDEST PUSH0 DUP1 PUSH0 DUP1 PUSH0 PUSH1 0xA0 DUP7 DUP9 SUB SLT ISZERO PUSH2 0x2D71 JUMPI PUSH0 DUP1 REVERT JUMPDEST DUP6 CALLDATALOAD PUSH2 0x2D7C DUP2 PUSH2 0x2CC5 JUMP JUMPDEST SWAP5 POP PUSH1 0x20 DUP7 ADD CALLDATALOAD PUSH2 0x2D8C DUP2 PUSH2 0x2CC5 JUMP JUMPDEST SWAP4 POP PUSH1 0x40 DUP7 ADD CALLDATALOAD SWAP3 POP PUSH2 0x2DA1 PUSH1 0x60 DUP8 ADD PUSH2 0x2D4E JUMP JUMPDEST SWAP2 POP PUSH1 0x80 DUP7 ADD CALLDATALOAD PUSH1 0x1 PUSH1 0x1 PUSH1 0x40 SHL SUB DUP2 GT ISZERO PUSH2 0x2DBB JUMPI PUSH0 DUP1 REVERT JUMPDEST PUSH2 0x2DC7 DUP9 DUP3 DUP10 ADD PUSH2 0x2C06 JUMP JUMPDEST SWAP2 POP POP SWAP3 SWAP6 POP SWAP3 SWAP6 SWAP1 SWAP4 POP JUMP JUMPDEST PUSH0 DUP1 PUSH1 0x20 DUP4 DUP6 SUB SLT ISZERO PUSH2 0x2DE5 JUMPI PUSH0 DUP1 REVERT JUMPDEST DUP3 CALLDATALOAD PUSH1 0x1 PUSH1 0x1 PUSH1 0x40 SHL SUB DUP2 GT ISZERO PUSH2 0x2DFA JUMPI PUSH0 DUP1 REVERT JUMPDEST DUP4 ADD PUSH1 0x1F DUP2 ADD DUP6 SGT PUSH2 0x2E0A JUMPI PUSH0 DUP1 REVERT JUMPDEST DUP1 CALLDATALOAD PUSH1 0x1 PUSH1 0x1 PUSH1 0x40 SHL SUB DUP2 GT ISZERO PUSH2 0x2E1F JUMPI PUSH0 DUP1 REVERT JUMPDEST DUP6 PUSH1 0x20 DUP3 PUSH1 0x5 SHL DUP5 ADD ADD GT ISZERO PUSH2 0x2E33 JUMPI PUSH0 DUP1 REVERT JUMPDEST PUSH1 0x20 SWAP2 SWAP1 SWAP2 ADD SWAP6 SWAP1 SWAP5 POP SWAP3 POP POP POP JUMP JUMPDEST PUSH0 PUSH1 0x20 DUP3 DUP5 SUB SLT ISZERO PUSH2 0x2E53 JUMPI PUSH0 DUP1 REVERT JUMPDEST DUP2 CALLDATALOAD PUSH2 0x8D7 DUP2 PUSH2 0x2CC5 JUMP JUMPDEST PUSH0 DUP3 PUSH1 0x1F DUP4 ADD SLT PUSH2 0x2E6D JUMPI PUSH0 DUP1 REVERT JUMPDEST DUP2 CALLDATALOAD PUSH2 0x2E7B PUSH2 0x2ACD DUP3 PUSH2 0x2A8E JUMP JUMPDEST DUP1 DUP3 DUP3 MSTORE PUSH1 0x20 DUP3 ADD SWAP2 POP PUSH1 0x20 DUP4 PUSH1 0x5 SHL DUP7 ADD ADD SWAP3 POP DUP6 DUP4 GT ISZERO PUSH2 0x2E9C JUMPI PUSH0 DUP1 REVERT JUMPDEST PUSH1 0x20 DUP6 ADD JUMPDEST DUP4 DUP2 LT ISZERO PUSH2 0x2B10 JUMPI DUP1 CALLDATALOAD PUSH2 0x2EB4 DUP2 PUSH2 0x2CC5 JUMP JUMPDEST DUP4 MSTORE PUSH1 0x20 SWAP3 DUP4 ADD SWAP3 ADD PUSH2 0x2EA1 JUMP JUMPDEST PUSH0 DUP3 PUSH1 0x1F DUP4 ADD SLT PUSH2 0x2ED1 JUMPI PUSH0 DUP1 REVERT JUMPDEST DUP2 CALLDATALOAD PUSH2 0x2EDF PUSH2 0x2ACD DUP3 PUSH2 0x2A8E JUMP JUMPDEST DUP1 DUP3 DUP3 MSTORE PUSH1 0x20 DUP3 ADD SWAP2 POP PUSH1 0x20 DUP4 PUSH1 0x5 SHL DUP7 ADD ADD SWAP3 POP DUP6 DUP4 GT ISZERO PUSH2 0x2F00 JUMPI PUSH0 DUP1 REVERT JUMPDEST PUSH1 0x20 DUP6 ADD JUMPDEST DUP4 DUP2 LT ISZERO PUSH2 0x2B10 JUMPI PUSH2 0x2F16 DUP2 PUSH2 0x2D4E JUMP JUMPDEST DUP4 MSTORE PUSH1 0x20 SWAP3 DUP4 ADD SWAP3 ADD PUSH2 0x2F05 JUMP JUMPDEST PUSH0 DUP3 PUSH1 0x1F DUP4 ADD SLT PUSH2 0x2F33 JUMPI PUSH0 DUP1 REVERT JUMPDEST DUP2 CALLDATALOAD PUSH2 0x2F41 PUSH2 0x2ACD DUP3 PUSH2 0x2A8E JUMP JUMPDEST DUP1 DUP3 DUP3 MSTORE PUSH1 0x20 DUP3 ADD SWAP2 POP PUSH1 0x20 DUP4 PUSH1 0x5 SHL DUP7 ADD ADD SWAP3 POP DUP6 DUP4 GT ISZERO PUSH2 0x2F62 JUMPI PUSH0 DUP1 REVERT JUMPDEST PUSH1 0x20 DUP6 ADD JUMPDEST DUP4 DUP2 LT ISZERO PUSH2 0x2B10 JUMPI DUP1 CALLDATALOAD PUSH1 0x1 PUSH1 0x1 PUSH1 0x40 SHL SUB DUP2 GT ISZERO PUSH2 0x2F84 JUMPI PUSH0 DUP1 REVERT JUMPDEST PUSH2 0x2F93 DUP9 PUSH1 0x20 DUP4 DUP11 ADD ADD PUSH2 0x2C06 JUMP JUMPDEST DUP5 MSTORE POP PUSH1 0x20 SWAP3 DUP4 ADD SWAP3 ADD PUSH2 0x2F67 JUMP JUMPDEST PUSH0 DUP1 PUSH0 DUP1 PUSH0 PUSH1 0xA0 DUP7 DUP9 SUB SLT ISZERO PUSH2 0x2FB6 JUMPI PUSH0 DUP1 REVERT JUMPDEST DUP6 CALLDATALOAD PUSH1 0x1 PUSH1 0x1 PUSH1 0x40 SHL SUB DUP2 GT ISZERO PUSH2 0x2FCB JUMPI PUSH0 DUP1 REVERT JUMPDEST PUSH2 0x2FD7 DUP9 DUP3 DUP10 ADD PUSH2 0x2E5E JUMP JUMPDEST SWAP6 POP POP PUSH1 0x20 DUP7 ADD CALLDATALOAD PUSH1 0x1 PUSH1 0x1 PUSH1 0x40 SHL SUB DUP2 GT ISZERO PUSH2 0x2FF2 JUMPI PUSH0 DUP1 REVERT JUMPDEST PUSH2 0x2FFE DUP9 DUP3 DUP10 ADD PUSH2 0x2E5E JUMP JUMPDEST SWAP5 POP POP PUSH1 0x40 DUP7 ADD CALLDATALOAD PUSH1 0x1 PUSH1 0x1 PUSH1 0x40 SHL SUB DUP2 GT ISZERO PUSH2 0x3019 JUMPI PUSH0 DUP1 REVERT JUMPDEST PUSH2 0x3025 DUP9 DUP3 DUP10 ADD PUSH2 0x2AB0 JUMP JUMPDEST SWAP4 POP POP PUSH1 0x60 DUP7 ADD CALLDATALOAD PUSH1 0x1 PUSH1 0x1 PUSH1 0x40 SHL SUB DUP2 GT ISZERO PUSH2 0x3040 JUMPI PUSH0 DUP1 REVERT JUMPDEST PUSH2 0x304C DUP9 DUP3 DUP10 ADD PUSH2 0x2EC2 JUMP JUMPDEST SWAP3 POP POP PUSH1 0x80 DUP7 ADD CALLDATALOAD PUSH1 0x1 PUSH1 0x1 PUSH1 0x40 SHL SUB DUP2 GT ISZERO PUSH2 0x3067 JUMPI PUSH0 DUP1 REVERT JUMPDEST PUSH2 0x2DC7 DUP9 DUP3 DUP10 ADD PUSH2 0x2F24 JUMP JUMPDEST PUSH0 DUP1 PUSH1 0x40 DUP4 DUP6 SUB SLT ISZERO PUSH2 0x3084 JUMPI PUSH0 DUP1 REVERT JUMPDEST DUP3 CALLDATALOAD SWAP2 POP PUSH1 0x20 DUP4 ADD CALLDATALOAD PUSH1 0x1 PUSH1 0x1 PUSH1 0x40 SHL SUB DUP2 GT ISZERO PUSH2 0x2CA2 JUMPI PUSH0 DUP1 REVERT JUMPDEST PUSH0 DUP1 PUSH0 PUSH1 0x60 DUP5 DUP7 SUB SLT ISZERO PUSH2 0x30B2 JUMPI PUSH0 DUP1 REVERT JUMPDEST DUP4 CALLDATALOAD PUSH2 0x30BD DUP2 PUSH2 0x2CC5 JUMP JUMPDEST SWAP3 POP PUSH1 0x20 DUP5 ADD CALLDATALOAD SWAP2 POP PUSH1 0x40 DUP5 ADD CALLDATALOAD PUSH1 0x1 PUSH1 0x1 PUSH1 0x40 SHL SUB DUP2 GT ISZERO PUSH2 0x30DE JUMPI PUSH0 DUP1 REVERT JUMPDEST PUSH2 0x30EA DUP7 DUP3 DUP8 ADD PUSH2 0x2C06 JUMP JUMPDEST SWAP2 POP POP SWAP3 POP SWAP3 POP SWAP3 JUMP JUMPDEST PUSH0 DUP1 PUSH1 0x40 DUP4 DUP6 SUB SLT ISZERO PUSH2 0x3105 JUMPI PUSH0 DUP1 REVERT JUMPDEST DUP3 CALLDATALOAD PUSH1 0x1 PUSH1 0x1 PUSH1 0x40 SHL SUB DUP2 GT ISZERO PUSH2 0x311A JUMPI PUSH0 DUP1 REVERT JUMPDEST PUSH2 0x3126 DUP6 DUP3 DUP7 ADD PUSH2 0x2AB0 JUMP JUMPDEST SWAP3 POP POP PUSH1 0x20 DUP4 ADD CALLDATALOAD PUSH1 0x1 PUSH1 0x1 PUSH1 0x40 SHL SUB DUP2 GT ISZERO PUSH2 0x3141 JUMPI PUSH0 DUP1 REVERT JUMPDEST PUSH2 0x2B73 DUP6 DUP3 DUP7 ADD PUSH2 0x2F24 JUMP JUMPDEST PUSH1 0x20 DUP1 DUP3 MSTORE DUP3 MLOAD DUP3 DUP3 ADD DUP2 SWAP1 MSTORE PUSH0 SWAP2 DUP5 ADD SWAP1 PUSH1 0x40 DUP5 ADD SWAP1 DUP4 JUMPDEST DUP2 DUP2 LT ISZERO PUSH2 0x2D43 JUMPI DUP4 MLOAD DUP4 MSTORE PUSH1 0x20 SWAP4 DUP5 ADD SWAP4 SWAP1 SWAP3 ADD SWAP2 PUSH1 0x1 ADD PUSH2 0x3166 JUMP JUMPDEST PUSH0 PUSH1 0x20 DUP3 DUP5 SUB SLT ISZERO PUSH2 0x3194 JUMPI PUSH0 DUP1 REVERT JUMPDEST DUP2 CALLDATALOAD PUSH1 0x1 PUSH1 0x1 PUSH1 0x40 SHL SUB DUP2 GT ISZERO PUSH2 0x31A9 JUMPI PUSH0 DUP1 REVERT JUMPDEST PUSH2 0x23C1 DUP5 DUP3 DUP6 ADD PUSH2 0x2C06 JUMP JUMPDEST PUSH0 DUP1 PUSH0 PUSH1 0x60 DUP5 DUP7 SUB SLT ISZERO PUSH2 0x31C7 JUMPI PUSH0 DUP1 REVERT JUMPDEST DUP4 CALLDATALOAD PUSH1 0x1 PUSH1 0x1 PUSH1 0x40 SHL SUB DUP2 GT ISZERO PUSH2 0x31DC JUMPI PUSH0 DUP1 REVERT JUMPDEST PUSH2 0x31E8 DUP7 DUP3 DUP8 ADD PUSH2 0x2AB0 JUMP JUMPDEST SWAP4 POP POP PUSH1 0x20 DUP5 ADD CALLDATALOAD PUSH1 0x1 PUSH1 0x1 PUSH1 0x40 SHL SUB DUP2 GT ISZERO PUSH2 0x3203 JUMPI PUSH0 DUP1 REVERT JUMPDEST PUSH2 0x320F DUP7 DUP3 DUP8 ADD PUSH2 0x2AB0 JUMP JUMPDEST SWAP3 POP POP PUSH1 0x40 DUP5 ADD CALLDATALOAD PUSH1 0x1 PUSH1 0x1 PUSH1 0x40 SHL SUB DUP2 GT ISZERO PUSH2 0x322A JUMPI PUSH0 DUP1 REVERT JUMPDEST PUSH2 0x30EA DUP7 DUP3 DUP8 ADD PUSH2 0x2F24 JUMP JUMPDEST PUSH0 DUP1 PUSH0 PUSH1 0x60 DUP5 DUP7 SUB SLT ISZERO PUSH2 0x3248 JUMPI PUSH0 DUP1 REVERT JUMPDEST DUP4 CALLDATALOAD SWAP3 POP PUSH1 0x20 DUP5 ADD CALLDATALOAD SWAP2 POP PUSH1 0x40 DUP5 ADD CALLDATALOAD PUSH1 0x1 PUSH1 0x1 PUSH1 0x40 SHL SUB DUP2 GT ISZERO PUSH2 0x30DE JUMPI PUSH0 DUP1 REVERT JUMPDEST PUSH0 DUP1 PUSH0 DUP1 PUSH1 0x80 DUP6 DUP8 SUB SLT ISZERO PUSH2 0x327E JUMPI PUSH0 DUP1 REVERT JUMPDEST DUP5 CALLDATALOAD PUSH2 0x3289 DUP2 PUSH2 0x2CC5 JUMP JUMPDEST SWAP4 POP PUSH1 0x20 DUP6 ADD CALLDATALOAD SWAP3 POP PUSH2 0x329E PUSH1 0x40 DUP7 ADD PUSH2 0x2D4E JUMP JUMPDEST SWAP2 POP PUSH1 0x60 DUP6 ADD CALLDATALOAD PUSH1 0x1 PUSH1 0x1 PUSH1 0x40 SHL SUB DUP2 GT ISZERO PUSH2 0x32B8 JUMPI PUSH0 DUP1 REVERT JUMPDEST PUSH2 0x32C4 DUP8 DUP3 DUP9 ADD PUSH2 0x2C06 JUMP JUMPDEST SWAP2 POP POP SWAP3 SWAP6 SWAP2 SWAP5 POP SWAP3 POP JUMP JUMPDEST PUSH0 PUSH1 0x20 DUP3 DUP5 SUB SLT ISZERO PUSH2 0x32E0 JUMPI PUSH0 DUP1 REVERT JUMPDEST DUP2 CALLDATALOAD PUSH1 0x1 PUSH1 0x1 PUSH1 0x40 SHL SUB DUP2 GT ISZERO PUSH2 0x32F5 JUMPI PUSH0 DUP1 REVERT JUMPDEST PUSH2 0x23C1 DUP5 DUP3 DUP6 ADD PUSH2 0x2AB0 JUMP JUMPDEST DUP4 DUP6 DUP3 CALLDATACOPY PUSH1 0x60 SWAP3 SWAP1 SWAP3 SHL PUSH1 0x1 PUSH1 0x1 PUSH1 0x60 SHL SUB NOT AND SWAP2 SWAP1 SWAP3 ADD SWAP1 DUP2 MSTORE PUSH1 0x14 DUP2 ADD SWAP2 SWAP1 SWAP2 MSTORE PUSH1 0x34 ADD SWAP2 SWAP1 POP JUMP JUMPDEST PUSH0 DUP2 MLOAD DUP1 PUSH1 0x20 DUP5 ADD DUP6 MCOPY PUSH0 SWAP4 ADD SWAP3 DUP4 MSTORE POP SWAP1 SWAP2 SWAP1 POP JUMP JUMPDEST PUSH0 PUSH2 0x8D7 DUP3 DUP5 PUSH2 0x332C JUMP JUMPDEST PUSH4 0x4E487B71 PUSH1 0xE0 SHL PUSH0 MSTORE PUSH1 0x32 PUSH1 0x4 MSTORE PUSH1 0x24 PUSH0 REVERT JUMPDEST PUSH1 0x1 DUP2 DUP2 SHR SWAP1 DUP3 AND DUP1 PUSH2 0x3376 JUMPI PUSH1 0x7F DUP3 AND SWAP2 POP JUMPDEST PUSH1 0x20 DUP3 LT DUP2 SUB PUSH2 0x165A JUMPI PUSH4 0x4E487B71 PUSH1 0xE0 SHL PUSH0 MSTORE PUSH1 0x22 PUSH1 0x4 MSTORE PUSH1 0x24 PUSH0 REVERT JUMPDEST PUSH1 0x1F DUP3 GT ISZERO PUSH2 0xC2D JUMPI DUP1 PUSH0 MSTORE PUSH1 0x20 PUSH0 KECCAK256 PUSH1 0x1F DUP5 ADD PUSH1 0x5 SHR DUP2 ADD PUSH1 0x20 DUP6 LT ISZERO PUSH2 0x33B9 JUMPI POP DUP1 JUMPDEST PUSH1 0x1F DUP5 ADD PUSH1 0x5 SHR DUP3 ADD SWAP2 POP JUMPDEST DUP2 DUP2 LT ISZERO PUSH2 0xB8B JUMPI PUSH0 DUP2 SSTORE PUSH1 0x1 ADD PUSH2 0x33C5 JUMP JUMPDEST DUP2 MLOAD PUSH1 0x1 PUSH1 0x1 PUSH1 0x40 SHL SUB DUP2 GT ISZERO PUSH2 0x33F1 JUMPI PUSH2 0x33F1 PUSH2 0x2A4A JUMP JUMPDEST PUSH2 0x3405 DUP2 PUSH2 0x33FF DUP5 SLOAD PUSH2 0x3362 JUMP JUMPDEST DUP5 PUSH2 0x3394 JUMP JUMPDEST PUSH1 0x20 PUSH1 0x1F DUP3 GT PUSH1 0x1 DUP2 EQ PUSH2 0x3437 JUMPI PUSH0 DUP4 ISZERO PUSH2 0x3420 JUMPI POP DUP5 DUP3 ADD MLOAD JUMPDEST PUSH0 NOT PUSH1 0x3 DUP6 SWAP1 SHL SHR NOT AND PUSH1 0x1 DUP5 SWAP1 SHL OR DUP5 SSTORE PUSH2 0xB8B JUMP JUMPDEST PUSH0 DUP5 DUP2 MSTORE PUSH1 0x20 DUP2 KECCAK256 PUSH1 0x1F NOT DUP6 AND SWAP2 JUMPDEST DUP3 DUP2 LT ISZERO PUSH2 0x3466 JUMPI DUP8 DUP6 ADD MLOAD DUP3 SSTORE PUSH1 0x20 SWAP5 DUP6 ADD SWAP5 PUSH1 0x1 SWAP1 SWAP3 ADD SWAP2 ADD PUSH2 0x3446 JUMP JUMPDEST POP DUP5 DUP3 LT ISZERO PUSH2 0x3483 JUMPI DUP7 DUP5 ADD MLOAD PUSH0 NOT PUSH1 0x3 DUP8 SWAP1 SHL PUSH1 0xF8 AND SHR NOT AND DUP2 SSTORE JUMPDEST POP POP POP POP PUSH1 0x1 SWAP1 DUP2 SHL ADD SWAP1 SSTORE POP JUMP JUMPDEST PUSH0 DUP1 DUP4 CALLDATALOAD PUSH1 0x1E NOT DUP5 CALLDATASIZE SUB ADD DUP2 SLT PUSH2 0x34A7 JUMPI PUSH0 DUP1 REVERT JUMPDEST DUP4 ADD DUP1 CALLDATALOAD SWAP2 POP PUSH1 0x1 PUSH1 0x1 PUSH1 0x40 SHL SUB DUP3 GT ISZERO PUSH2 0x34C0 JUMPI PUSH0 DUP1 REVERT JUMPDEST PUSH1 0x20 ADD SWAP2 POP CALLDATASIZE DUP2 SWAP1 SUB DUP3 SGT ISZERO PUSH2 0x34D4 JUMPI PUSH0 DUP1 REVERT JUMPDEST SWAP3 POP SWAP3 SWAP1 POP JUMP JUMPDEST DUP2 DUP4 DUP3 CALLDATACOPY PUSH0 SWAP2 ADD SWAP1 DUP2 MSTORE SWAP2 SWAP1 POP JUMP JUMPDEST PUSH0 PUSH1 0x20 DUP3 DUP5 SUB SLT ISZERO PUSH2 0x34FA JUMPI PUSH0 DUP1 REVERT JUMPDEST DUP2 MLOAD PUSH1 0x1 PUSH1 0x1 PUSH1 0x40 SHL SUB DUP2 GT ISZERO PUSH2 0x350F JUMPI PUSH0 DUP1 REVERT JUMPDEST DUP3 ADD PUSH1 0x1F DUP2 ADD DUP5 SGT PUSH2 0x351F JUMPI PUSH0 DUP1 REVERT JUMPDEST DUP1 MLOAD PUSH2 0x352D PUSH2 0x2ACD DUP3 PUSH2 0x2A8E JUMP JUMPDEST DUP1 DUP3 DUP3 MSTORE PUSH1 0x20 DUP3 ADD SWAP2 POP PUSH1 0x20 DUP4 PUSH1 0x5 SHL DUP6 ADD ADD SWAP3 POP DUP7 DUP4 GT ISZERO PUSH2 0x354E JUMPI PUSH0 DUP1 REVERT JUMPDEST PUSH1 0x20 DUP5 ADD SWAP4 POP JUMPDEST DUP3 DUP5 LT ISZERO PUSH2 0x3579 JUMPI DUP4 MLOAD PUSH2 0x3568 DUP2 PUSH2 0x2CC5 JUMP JUMPDEST DUP3 MSTORE PUSH1 0x20 SWAP4 DUP5 ADD SWAP4 SWAP1 SWAP2 ADD SWAP1 PUSH2 0x3555 JUMP JUMPDEST SWAP7 SWAP6 POP POP POP POP POP POP JUMP JUMPDEST PUSH1 0x1 DUP1 PUSH1 0xA0 SHL SUB DUP6 AND DUP2 MSTORE DUP4 PUSH1 0x20 DUP3 ADD MSTORE DUP3 ISZERO ISZERO PUSH1 0x40 DUP3 ADD MSTORE PUSH1 0x80 PUSH1 0x60 DUP3 ADD MSTORE PUSH0 PUSH2 0x3579 PUSH1 0x80 DUP4 ADD DUP5 PUSH2 0x2A0A JUMP JUMPDEST PUSH0 DUP1 DUP4 SLOAD PUSH2 0x35BE DUP2 PUSH2 0x3362 JUMP JUMPDEST PUSH1 0x1 DUP3 AND DUP1 ISZERO PUSH2 0x35D5 JUMPI PUSH1 0x1 DUP2 EQ PUSH2 0x35EA JUMPI PUSH2 0x213F JUMP JUMPDEST PUSH1 0xFF NOT DUP4 AND DUP7 MSTORE DUP2 ISZERO ISZERO DUP3 MUL DUP7 ADD SWAP4 POP PUSH2 0x213F JUMP JUMPDEST DUP7 PUSH0 MSTORE PUSH1 0x20 PUSH0 KECCAK256 PUSH0 JUMPDEST DUP4 DUP2 LT ISZERO PUSH2 0x360F JUMPI DUP2 SLOAD DUP9 DUP3 ADD MSTORE PUSH1 0x1 SWAP1 SWAP2 ADD SWAP1 PUSH1 0x20 ADD PUSH2 0x35F3 JUMP JUMPDEST POP POP POP SWAP4 SWAP1 SWAP4 ADD SWAP5 SWAP4 POP POP POP POP JUMP JUMPDEST PUSH32 0x646174613A6170706C69636174696F6E2F6A736F6E3B6261736536342C000000 DUP2 MSTORE PUSH0 PUSH2 0x8D7 PUSH1 0x1D DUP4 ADD DUP5 PUSH2 0x332C JUMP JUMPDEST PUSH6 0x379ABE35001 PUSH1 0xC5 SHL DUP2 MSTORE PUSH1 0x8 DUP2 ADD DUP4 SWAP1 MSTORE PUSH0 PUSH2 0x23C1 PUSH1 0x28 DUP4 ADD DUP5 PUSH2 0x332C JUMP JUMPDEST PUSH0 PUSH1 0x20 DUP3 DUP5 SUB SLT ISZERO PUSH2 0x3680 JUMPI PUSH0 DUP1 REVERT JUMPDEST DUP2 MLOAD PUSH2 0x8D7 DUP2 PUSH2 0x2CC5 JUMP JUMPDEST PUSH1 0x1 PUSH1 0x1 PUSH1 0xA0 SHL SUB SWAP5 DUP6 AND DUP2 MSTORE SWAP3 SWAP1 SWAP4 AND PUSH1 0x20 DUP4 ADD MSTORE PUSH1 0x40 DUP3 ADD MSTORE SWAP1 ISZERO ISZERO PUSH1 0x60 DUP3 ADD MSTORE PUSH1 0xA0 PUSH1 0x80 DUP3 ADD DUP2 SWAP1 MSTORE PUSH0 SWAP1 DUP3 ADD MSTORE PUSH1 0xC0 ADD SWAP1 JUMP JUMPDEST DUP1 MLOAD PUSH1 0x20 DUP3 ADD MLOAD PUSH1 0x1 PUSH1 0x1 PUSH1 0x60 SHL SUB NOT DUP2 AND SWAP2 SWAP1 PUSH1 0x14 DUP3 LT ISZERO PUSH2 0x3709 JUMPI PUSH12 0xFFFFFFFFFFFFFFFFFFFFFFFF NOT PUSH12 0xFFFFFFFFFFFFFFFFFFFFFFFF NOT DUP4 PUSH1 0x14 SUB PUSH1 0x3 SHL SHL DUP3 AND AND SWAP3 POP JUMPDEST POP POP SWAP2 SWAP1 POP JUMP JUMPDEST PUSH1 0x1 PUSH1 0x1 PUSH1 0xA0 SHL SUB DUP5 AND DUP2 MSTORE DUP3 ISZERO ISZERO PUSH1 0x20 DUP3 ADD MSTORE PUSH1 0x60 PUSH1 0x40 DUP3 ADD DUP2 SWAP1 MSTORE PUSH0 SWAP1 PUSH2 0x373B SWAP1 DUP4 ADD DUP5 PUSH2 0x2A0A JUMP JUMPDEST SWAP6 SWAP5 POP POP POP POP POP JUMP JUMPDEST PUSH1 0x1 PUSH1 0x1 PUSH1 0xA0 SHL SUB DUP7 DUP2 AND DUP3 MSTORE DUP6 DUP2 AND PUSH1 0x20 DUP4 ADD MSTORE DUP5 AND PUSH1 0x40 DUP3 ADD MSTORE PUSH1 0x60 DUP2 ADD DUP4 SWAP1 MSTORE PUSH1 0xA0 PUSH1 0x80 DUP3 ADD DUP2 SWAP1 MSTORE PUSH0 SWAP1 PUSH2 0x2478 SWAP1 DUP4 ADD DUP5 PUSH2 0x2A0A JUMP JUMPDEST PUSH4 0x4E487B71 PUSH1 0xE0 SHL PUSH0 MSTORE PUSH1 0x11 PUSH1 0x4 MSTORE PUSH1 0x24 PUSH0 REVERT JUMPDEST DUP1 DUP3 ADD DUP1 DUP3 GT ISZERO PUSH2 0x884 JUMPI PUSH2 0x884 PUSH2 0x377E JUMP JUMPDEST PUSH0 DUP3 PUSH2 0x37BF JUMPI PUSH4 0x4E487B71 PUSH1 0xE0 SHL PUSH0 MSTORE PUSH1 0x12 PUSH1 0x4 MSTORE PUSH1 0x24 PUSH0 REVERT JUMPDEST POP DIV SWAP1 JUMP JUMPDEST DUP1 DUP3 MUL DUP2 ISZERO DUP3 DUP3 DIV DUP5 EQ OR PUSH2 0x884 JUMPI PUSH2 0x884 PUSH2 0x377E JUMP JUMPDEST DUP3 ISZERO ISZERO DUP2 MSTORE PUSH1 0x40 PUSH1 0x20 DUP3 ADD MSTORE PUSH0 PUSH2 0x23C1 PUSH1 0x40 DUP4 ADD DUP5 PUSH2 0x2A0A JUMP JUMPDEST PUSH0 PUSH1 0x1 DUP3 ADD PUSH2 0x3806 JUMPI PUSH2 0x3806 PUSH2 0x377E JUMP JUMPDEST POP PUSH1 0x1 ADD SWAP1 JUMP JUMPDEST DUP1 MLOAD PUSH1 0x20 DUP1 DUP4 ADD MLOAD SWAP2 SWAP1 DUP2 LT ISZERO PUSH2 0x165A JUMPI PUSH0 NOT PUSH1 0x20 SWAP2 SWAP1 SWAP2 SUB PUSH1 0x3 SHL SHL AND SWAP2 SWAP1 POP JUMP JUMPDEST DUP3 DUP2 MSTORE PUSH1 0x40 PUSH1 0x20 DUP3 ADD MSTORE PUSH0 PUSH2 0x23C1 PUSH1 0x40 DUP4 ADD DUP5 PUSH2 0x2A0A JUMP JUMPDEST PUSH0 PUSH1 0x20 DUP3 DUP5 SUB SLT ISZERO PUSH2 0x3858 JUMPI PUSH0 DUP1 REVERT JUMPDEST DUP2 MLOAD PUSH1 0x1 PUSH1 0x1 PUSH1 0x40 SHL SUB DUP2 GT ISZERO PUSH2 0x386D JUMPI PUSH0 DUP1 REVERT JUMPDEST DUP3 ADD PUSH1 0x1F DUP2 ADD DUP5 SGT PUSH2 0x387D JUMPI PUSH0 DUP1 REVERT JUMPDEST DUP1 MLOAD PUSH2 0x388B PUSH2 0x2ACD DUP3 PUSH2 0x2BE0 JUMP JUMPDEST DUP2 DUP2 MSTORE DUP6 PUSH1 0x20 DUP4 DUP6 ADD ADD GT ISZERO PUSH2 0x389F JUMPI PUSH0 DUP1 REVERT JUMPDEST DUP2 PUSH1 0x20 DUP5 ADD PUSH1 0x20 DUP4 ADD MCOPY PUSH0 SWAP2 DUP2 ADD PUSH1 0x20 ADD SWAP2 SWAP1 SWAP2 MSTORE SWAP5 SWAP4 POP POP POP POP JUMP JUMPDEST DUP2 DUP2 SUB DUP2 DUP2 GT ISZERO PUSH2 0x884 JUMPI PUSH2 0x884 PUSH2 0x377E JUMP JUMPDEST PUSH4 0x4E487B71 PUSH1 0xE0 SHL PUSH0 MSTORE PUSH1 0x31 PUSH1 0x4 MSTORE PUSH1 0x24 PUSH0 REVERT INVALID COINBASE TIMESTAMP NUMBER PREVRANDAO GASLIMIT CHAINID SELFBALANCE BASEFEE BLOBHASH BLOBBASEFEE 0x4B 0x4C 0x4D 0x4E 0x4F POP MLOAD MSTORE MSTORE8 SLOAD SSTORE JUMP JUMPI PC MSIZE GAS PUSH2 0x6263 PUSH5 0x6566676869 PUSH11 0x6B6C6D6E6F707172737475 PUSH23 0x7778797A303132333435363738392B2FA2646970667358 0x22 SLT KECCAK256 0xB2 0xF SWAP3 DUP12 KECCAK256 MUL 0xB2 BLOBHASH PUSH22 0x4E47A628D61E6C018B330F4C7A24C831E9AB0073A133 PUSH24 0x64736F6C634300081A00337B224C5350344D657461646174 PUSH2 0x223A PUSH28 0x226E616D65223A2250657069746F202D204D6574616D6F7270686F73 PUSH10 0x73222C22646573637269 PUSH17 0x74696F6E223A22222C226C696E6B73223A JUMPDEST TSTORE 0x2C 0x22 PUSH2 0x7474 PUSH19 0x696275746573223A5B5D2C2269636F6E223A5B TSTORE 0x2C 0x22 PUSH3 0x61636B PUSH8 0x726F756E64496D61 PUSH8 0x65223A5B5D2C2261 PUSH20 0x73657473223A5B5D2C22696D61676573223A5B5D PUSH30 0x7D0000000000000000000000000000000000000000000000000000000000 "
		},
		"gasEstimates": {
			"creation": {
				"codeDepositCost": "2936200",
				"executionCost": "infinite",
				"totalCost": "infinite"
			},
			"external": {
				"": "infinite",
				"_tokenIdCounter()": "2342",
				"authorizeOperator(address,bytes32,bytes)": "infinite",
				"balanceOf(address)": "infinite",
				"batchCalls(bytes[])": "infinite",
				"getBalance()": "2477",
				"getData(bytes32)": "infinite",
				"getDataBatch(bytes32[])": "infinite",
				"getDataBatchForTokenIds(bytes32[],bytes32[])": "infinite",
				"getDataForTokenId(bytes32,bytes32)": "infinite",
				"getMetadata(string)": "infinite",
				"getOperatorsOf(bytes32)": "infinite",
				"getTokenOperator(bytes32)": "infinite",
				"isOperatorFor(address,bytes32)": "infinite",
				"metamorphosisEvolve(bytes32)": "infinite",
				"metamorphosisPool(uint256)": "8964",
				"owner()": "2440",
				"pause()": "infinite",
				"paused()": "2337",
				"price(string)": "infinite",
				"rawMetadata(string)": "infinite",
				"renounceOwnership()": "infinite",
				"revokeOperator(address,bytes32,bool,bytes)": "infinite",
				"setData(bytes32,bytes)": "infinite",
				"setDataBatch(bytes32[],bytes[])": "infinite",
				"setDataBatchForTokenIds(bytes32[],bytes32[],bytes[])": "infinite",
				"setDataForTokenId(bytes32,bytes32,bytes)": "infinite",
				"supportsInterface(bytes4)": "infinite",
				"tokenIdsOf(address)": "infinite",
				"tokenOwnerOf(bytes32)": "2600",
				"totalSupply()": "2404",
				"transfer(address,address,bytes32,bool,bytes)": "infinite",
				"transferBalance(address,uint256)": "infinite",
				"transferBatch(address[],address[],bytes32[],bool[],bytes[])": "infinite",
				"transferOwnership(address)": "infinite",
				"unpause()": "infinite",
				"updateMetadata(string,bytes)": "infinite",
				"updatePrice(uint256)": "26192",
				"withdraw()": "infinite"
			}
		},
		"methodIdentifiers": {
			"_tokenIdCounter()": "84c4bd4b",
			"authorizeOperator(address,bytes32,bytes)": "86a10ddd",
			"balanceOf(address)": "70a08231",
			"batchCalls(bytes[])": "6963d438",
			"getBalance()": "12065fe0",
			"getData(bytes32)": "54f6127f",
			"getDataBatch(bytes32[])": "dedff9c6",
			"getDataBatchForTokenIds(bytes32[],bytes32[])": "1d26fce6",
			"getDataForTokenId(bytes32,bytes32)": "16e023b3",
			"getMetadata(string)": "d11a1f07",
			"getOperatorsOf(bytes32)": "49a6078d",
			"getTokenOperator(bytes32)": "7041e378",
			"isOperatorFor(address,bytes32)": "2a3654a4",
			"metamorphosisEvolve(bytes32)": "fa452dd3",
			"metamorphosisPool(uint256)": "5e05e3d3",
			"owner()": "8da5cb5b",
			"pause()": "8456cb59",
			"paused()": "5c975abb",
			"price(string)": "fe2c6198",
			"rawMetadata(string)": "b9b79a2b",
			"renounceOwnership()": "715018a6",
			"revokeOperator(address,bytes32,bool,bytes)": "db8c9663",
			"setData(bytes32,bytes)": "7f23690c",
			"setDataBatch(bytes32[],bytes[])": "97902421",
			"setDataBatchForTokenIds(bytes32[],bytes32[],bytes[])": "be9f0e6f",
			"setDataForTokenId(bytes32,bytes32,bytes)": "d6c1407c",
			"supportsInterface(bytes4)": "01ffc9a7",
			"tokenIdsOf(address)": "a3b261f2",
			"tokenOwnerOf(bytes32)": "217b2270",
			"totalSupply()": "18160ddd",
			"transfer(address,address,bytes32,bool,bytes)": "511b6952",
			"transferBalance(address,uint256)": "56a6d9ef",
			"transferBatch(address[],address[],bytes32[],bool[],bytes[])": "7e87632c",
			"transferOwnership(address)": "f2fde38b",
			"unpause()": "3f4ba83a",
			"updateMetadata(string,bytes)": "1e3c21f6",
			"updatePrice(uint256)": "8d6cc56d",
			"withdraw()": "3ccfd60b"
		}
	},
	"abi": [
		{
			"inputs": [],
			"stateMutability": "nonpayable",
			"type": "constructor"
		},
		{
			"inputs": [],
			"name": "ERC725Y_DataKeysValuesEmptyArray",
			"type": "error"
		},
		{
			"inputs": [],
			"name": "ERC725Y_DataKeysValuesLengthMismatch",
			"type": "error"
		},
		{
			"inputs": [],
			"name": "ERC725Y_MsgValueDisallowed",
			"type": "error"
		},
		{
			"inputs": [],
			"name": "EnforcedPause",
			"type": "error"
		},
		{
			"inputs": [],
			"name": "ExpectedPause",
			"type": "error"
		},
		{
			"inputs": [
				{
					"internalType": "bytes",
					"name": "storedData",
					"type": "bytes"
				}
			],
			"name": "InvalidExtensionAddress",
			"type": "error"
		},
		{
			"inputs": [
				{
					"internalType": "bytes",
					"name": "data",
					"type": "bytes"
				}
			],
			"name": "InvalidFunctionSelector",
			"type": "error"
		},
		{
			"inputs": [],
			"name": "LSP4TokenNameNotEditable",
			"type": "error"
		},
		{
			"inputs": [],
			"name": "LSP4TokenSymbolNotEditable",
			"type": "error"
		},
		{
			"inputs": [],
			"name": "LSP4TokenTypeNotEditable",
			"type": "error"
		},
		{
			"inputs": [
				{
					"internalType": "uint256",
					"name": "callIndex",
					"type": "uint256"
				}
			],
			"name": "LSP8BatchCallFailed",
			"type": "error"
		},
		{
			"inputs": [],
			"name": "LSP8CannotSendToAddressZero",
			"type": "error"
		},
		{
			"inputs": [],
			"name": "LSP8CannotUseAddressZeroAsOperator",
			"type": "error"
		},
		{
			"inputs": [],
			"name": "LSP8InvalidTransferBatch",
			"type": "error"
		},
		{
			"inputs": [
				{
					"internalType": "bytes32",
					"name": "tokenId",
					"type": "bytes32"
				}
			],
			"name": "LSP8NonExistentTokenId",
			"type": "error"
		},
		{
			"inputs": [
				{
					"internalType": "address",
					"name": "operator",
					"type": "address"
				},
				{
					"internalType": "bytes32",
					"name": "tokenId",
					"type": "bytes32"
				}
			],
			"name": "LSP8NonExistingOperator",
			"type": "error"
		},
		{
			"inputs": [
				{
					"internalType": "bytes32",
					"name": "tokenId",
					"type": "bytes32"
				},
				{
					"internalType": "address",
					"name": "caller",
					"type": "address"
				}
			],
			"name": "LSP8NotTokenOperator",
			"type": "error"
		},
		{
			"inputs": [
				{
					"internalType": "address",
					"name": "tokenOwner",
					"type": "address"
				},
				{
					"internalType": "bytes32",
					"name": "tokenId",
					"type": "bytes32"
				},
				{
					"internalType": "address",
					"name": "caller",
					"type": "address"
				}
			],
			"name": "LSP8NotTokenOwner",
			"type": "error"
		},
		{
			"inputs": [
				{
					"internalType": "address",
					"name": "tokenReceiver",
					"type": "address"
				}
			],
			"name": "LSP8NotifyTokenReceiverContractMissingLSP1Interface",
			"type": "error"
		},
		{
			"inputs": [
				{
					"internalType": "address",
					"name": "tokenReceiver",
					"type": "address"
				}
			],
			"name": "LSP8NotifyTokenReceiverIsEOA",
			"type": "error"
		},
		{
			"inputs": [
				{
					"internalType": "address",
					"name": "operator",
					"type": "address"
				},
				{
					"internalType": "bytes32",
					"name": "tokenId",
					"type": "bytes32"
				}
			],
			"name": "LSP8OperatorAlreadyAuthorized",
			"type": "error"
		},
		{
			"inputs": [
				{
					"internalType": "address",
					"name": "caller",
					"type": "address"
				},
				{
					"internalType": "address",
					"name": "tokenOwner",
					"type": "address"
				},
				{
					"internalType": "bytes32",
					"name": "tokenId",
					"type": "bytes32"
				}
			],
			"name": "LSP8RevokeOperatorNotAuthorized",
			"type": "error"
		},
		{
			"inputs": [],
			"name": "LSP8TokenContractCannotHoldValue",
			"type": "error"
		},
		{
			"inputs": [
				{
					"internalType": "bytes32",
					"name": "tokenId",
					"type": "bytes32"
				}
			],
			"name": "LSP8TokenIdAlreadyMinted",
			"type": "error"
		},
		{
			"inputs": [],
			"name": "LSP8TokenIdFormatNotEditable",
			"type": "error"
		},
		{
			"inputs": [],
			"name": "LSP8TokenIdsDataEmptyArray",
			"type": "error"
		},
		{
			"inputs": [],
			"name": "LSP8TokenIdsDataLengthMismatch",
			"type": "error"
		},
		{
			"inputs": [],
			"name": "LSP8TokenOwnerCannotBeOperator",
			"type": "error"
		},
		{
			"inputs": [
				{
					"internalType": "bytes32",
					"name": "tokenId",
					"type": "bytes32"
				},
				{
					"internalType": "address",
					"name": "oldOwner",
					"type": "address"
				},
				{
					"internalType": "address",
					"name": "newOwner",
					"type": "address"
				}
			],
			"name": "LSP8TokenOwnerChanged",
			"type": "error"
		},
		{
			"inputs": [
				{
					"internalType": "bytes4",
					"name": "functionSelector",
					"type": "bytes4"
				}
			],
			"name": "NoExtensionFoundForFunctionSelector",
			"type": "error"
		},
		{
			"inputs": [
				{
					"internalType": "address",
					"name": "callerAddress",
					"type": "address"
				}
			],
			"name": "OwnableCallerNotTheOwner",
			"type": "error"
		},
		{
			"inputs": [],
			"name": "OwnableCannotSetZeroAddressAsOwner",
			"type": "error"
		},
		{
			"inputs": [],
			"name": "Unauthorized",
			"type": "error"
		},
		{
			"anonymous": false,
			"inputs": [
				{
					"indexed": true,
					"internalType": "bytes32",
					"name": "dataKey",
					"type": "bytes32"
				},
				{
					"indexed": false,
					"internalType": "bytes",
					"name": "dataValue",
					"type": "bytes"
				}
			],
			"name": "DataChanged",
			"type": "event"
		},
		{
			"anonymous": false,
			"inputs": [
				{
					"indexed": true,
					"internalType": "address",
					"name": "operator",
					"type": "address"
				},
				{
					"indexed": true,
					"internalType": "address",
					"name": "tokenOwner",
					"type": "address"
				},
				{
					"indexed": true,
					"internalType": "bytes32",
					"name": "tokenId",
					"type": "bytes32"
				},
				{
					"indexed": false,
					"internalType": "bytes",
					"name": "operatorNotificationData",
					"type": "bytes"
				}
			],
			"name": "OperatorAuthorizationChanged",
			"type": "event"
		},
		{
			"anonymous": false,
			"inputs": [
				{
					"indexed": true,
					"internalType": "address",
					"name": "operator",
					"type": "address"
				},
				{
					"indexed": true,
					"internalType": "address",
					"name": "tokenOwner",
					"type": "address"
				},
				{
					"indexed": true,
					"internalType": "bytes32",
					"name": "tokenId",
					"type": "bytes32"
				},
				{
					"indexed": false,
					"internalType": "bool",
					"name": "notified",
					"type": "bool"
				},
				{
					"indexed": false,
					"internalType": "bytes",
					"name": "operatorNotificationData",
					"type": "bytes"
				}
			],
			"name": "OperatorRevoked",
			"type": "event"
		},
		{
			"anonymous": false,
			"inputs": [
				{
					"indexed": true,
					"internalType": "address",
					"name": "previousOwner",
					"type": "address"
				},
				{
					"indexed": true,
					"internalType": "address",
					"name": "newOwner",
					"type": "address"
				}
			],
			"name": "OwnershipTransferred",
			"type": "event"
		},
		{
			"anonymous": false,
			"inputs": [
				{
					"indexed": false,
					"internalType": "address",
					"name": "account",
					"type": "address"
				}
			],
			"name": "Paused",
			"type": "event"
		},
		{
			"anonymous": false,
			"inputs": [
				{
					"indexed": true,
					"internalType": "uint256",
					"name": "newPrice",
					"type": "uint256"
				},
				{
					"indexed": false,
					"internalType": "uint256",
					"name": "time",
					"type": "uint256"
				}
			],
			"name": "PriceUpdated",
			"type": "event"
		},
		{
			"anonymous": false,
			"inputs": [
				{
					"indexed": true,
					"internalType": "bytes32",
					"name": "tokenId",
					"type": "bytes32"
				},
				{
					"indexed": true,
					"internalType": "bytes32",
					"name": "dataKey",
					"type": "bytes32"
				},
				{
					"indexed": false,
					"internalType": "bytes",
					"name": "dataValue",
					"type": "bytes"
				}
			],
			"name": "TokenIdDataChanged",
			"type": "event"
		},
		{
			"anonymous": false,
			"inputs": [
				{
					"indexed": false,
					"internalType": "address",
					"name": "operator",
					"type": "address"
				},
				{
					"indexed": true,
					"internalType": "address",
					"name": "from",
					"type": "address"
				},
				{
					"indexed": true,
					"internalType": "address",
					"name": "to",
					"type": "address"
				},
				{
					"indexed": true,
					"internalType": "bytes32",
					"name": "tokenId",
					"type": "bytes32"
				},
				{
					"indexed": false,
					"internalType": "bool",
					"name": "force",
					"type": "bool"
				},
				{
					"indexed": false,
					"internalType": "bytes",
					"name": "data",
					"type": "bytes"
				}
			],
			"name": "Transfer",
			"type": "event"
		},
		{
			"anonymous": false,
			"inputs": [
				{
					"indexed": false,
					"internalType": "address",
					"name": "account",
					"type": "address"
				}
			],
			"name": "Unpaused",
			"type": "event"
		},
		{
			"anonymous": false,
			"inputs": [
				{
					"indexed": false,
					"internalType": "bytes",
					"name": "",
					"type": "bytes"
				}
			],
			"name": "metadataChanged",
			"type": "event"
		},
		{
			"stateMutability": "payable",
			"type": "fallback"
		},
		{
			"inputs": [],
			"name": "_tokenIdCounter",
			"outputs": [
				{
					"internalType": "uint256",
					"name": "_value",
					"type": "uint256"
				}
			],
			"stateMutability": "view",
			"type": "function"
		},
		{
			"inputs": [
				{
					"internalType": "address",
					"name": "operator",
					"type": "address"
				},
				{
					"internalType": "bytes32",
					"name": "tokenId",
					"type": "bytes32"
				},
				{
					"internalType": "bytes",
					"name": "operatorNotificationData",
					"type": "bytes"
				}
			],
			"name": "authorizeOperator",
			"outputs": [],
			"stateMutability": "nonpayable",
			"type": "function"
		},
		{
			"inputs": [
				{
					"internalType": "address",
					"name": "tokenOwner",
					"type": "address"
				}
			],
			"name": "balanceOf",
			"outputs": [
				{
					"internalType": "uint256",
					"name": "",
					"type": "uint256"
				}
			],
			"stateMutability": "view",
			"type": "function"
		},
		{
			"inputs": [
				{
					"internalType": "bytes[]",
					"name": "data",
					"type": "bytes[]"
				}
			],
			"name": "batchCalls",
			"outputs": [
				{
					"internalType": "bytes[]",
					"name": "results",
					"type": "bytes[]"
				}
			],
			"stateMutability": "nonpayable",
			"type": "function"
		},
		{
			"inputs": [],
			"name": "getBalance",
			"outputs": [
				{
					"internalType": "uint256",
					"name": "",
					"type": "uint256"
				}
			],
			"stateMutability": "view",
			"type": "function"
		},
		{
			"inputs": [
				{
					"internalType": "bytes32",
					"name": "dataKey",
					"type": "bytes32"
				}
			],
			"name": "getData",
			"outputs": [
				{
					"internalType": "bytes",
					"name": "dataValue",
					"type": "bytes"
				}
			],
			"stateMutability": "view",
			"type": "function"
		},
		{
			"inputs": [
				{
					"internalType": "bytes32[]",
					"name": "dataKeys",
					"type": "bytes32[]"
				}
			],
			"name": "getDataBatch",
			"outputs": [
				{
					"internalType": "bytes[]",
					"name": "dataValues",
					"type": "bytes[]"
				}
			],
			"stateMutability": "view",
			"type": "function"
		},
		{
			"inputs": [
				{
					"internalType": "bytes32[]",
					"name": "tokenIds",
					"type": "bytes32[]"
				},
				{
					"internalType": "bytes32[]",
					"name": "dataKeys",
					"type": "bytes32[]"
				}
			],
			"name": "getDataBatchForTokenIds",
			"outputs": [
				{
					"internalType": "bytes[]",
					"name": "dataValues",
					"type": "bytes[]"
				}
			],
			"stateMutability": "view",
			"type": "function"
		},
		{
			"inputs": [
				{
					"internalType": "bytes32",
					"name": "tokenId",
					"type": "bytes32"
				},
				{
					"internalType": "bytes32",
					"name": "dataKey",
					"type": "bytes32"
				}
			],
			"name": "getDataForTokenId",
			"outputs": [
				{
					"internalType": "bytes",
					"name": "dataValue",
					"type": "bytes"
				}
			],
			"stateMutability": "view",
			"type": "function"
		},
		{
			"inputs": [
				{
					"internalType": "string",
					"name": "_name",
					"type": "string"
				}
			],
			"name": "getMetadata",
			"outputs": [
				{
					"internalType": "bytes",
					"name": "",
					"type": "bytes"
				}
			],
			"stateMutability": "view",
			"type": "function"
		},
		{
			"inputs": [
				{
					"internalType": "bytes32",
					"name": "tokenId",
					"type": "bytes32"
				}
			],
			"name": "getOperatorsOf",
			"outputs": [
				{
					"internalType": "address[]",
					"name": "",
					"type": "address[]"
				}
			],
			"stateMutability": "view",
			"type": "function"
		},
		{
			"inputs": [
				{
					"internalType": "bytes32",
					"name": "_tokenId",
					"type": "bytes32"
				}
			],
			"name": "getTokenOperator",
			"outputs": [
				{
					"internalType": "address[]",
					"name": "",
					"type": "address[]"
				}
			],
			"stateMutability": "view",
			"type": "function"
		},
		{
			"inputs": [
				{
					"internalType": "address",
					"name": "operator",
					"type": "address"
				},
				{
					"internalType": "bytes32",
					"name": "tokenId",
					"type": "bytes32"
				}
			],
			"name": "isOperatorFor",
			"outputs": [
				{
					"internalType": "bool",
					"name": "",
					"type": "bool"
				}
			],
			"stateMutability": "view",
			"type": "function"
		},
		{
			"inputs": [
				{
					"internalType": "bytes32",
					"name": "_tokenId",
					"type": "bytes32"
				}
			],
			"name": "metamorphosisEvolve",
			"outputs": [
				{
					"internalType": "bytes32",
					"name": "",
					"type": "bytes32"
				}
			],
			"stateMutability": "nonpayable",
			"type": "function"
		},
		{
			"inputs": [
				{
					"internalType": "uint256",
					"name": "",
					"type": "uint256"
				}
			],
			"name": "metamorphosisPool",
			"outputs": [
				{
					"internalType": "address",
					"name": "sender",
					"type": "address"
				},
				{
					"internalType": "bytes32",
					"name": "tokenId",
					"type": "bytes32"
				},
				{
					"internalType": "uint256",
					"name": "dt",
					"type": "uint256"
				}
			],
			"stateMutability": "view",
			"type": "function"
		},
		{
			"inputs": [],
			"name": "owner",
			"outputs": [
				{
					"internalType": "address",
					"name": "",
					"type": "address"
				}
			],
			"stateMutability": "view",
			"type": "function"
		},
		{
			"inputs": [],
			"name": "pause",
			"outputs": [],
			"stateMutability": "nonpayable",
			"type": "function"
		},
		{
			"inputs": [],
			"name": "paused",
			"outputs": [
				{
					"internalType": "bool",
					"name": "",
					"type": "bool"
				}
			],
			"stateMutability": "view",
			"type": "function"
		},
		{
			"inputs": [
				{
					"internalType": "string",
					"name": "",
					"type": "string"
				}
			],
			"name": "price",
			"outputs": [
				{
					"internalType": "uint256",
					"name": "",
					"type": "uint256"
				}
			],
			"stateMutability": "view",
			"type": "function"
		},
		{
			"inputs": [
				{
					"internalType": "string",
					"name": "",
					"type": "string"
				}
			],
			"name": "rawMetadata",
			"outputs": [
				{
					"internalType": "bytes",
					"name": "",
					"type": "bytes"
				}
			],
			"stateMutability": "view",
			"type": "function"
		},
		{
			"inputs": [],
			"name": "renounceOwnership",
			"outputs": [],
			"stateMutability": "nonpayable",
			"type": "function"
		},
		{
			"inputs": [
				{
					"internalType": "address",
					"name": "operator",
					"type": "address"
				},
				{
					"internalType": "bytes32",
					"name": "tokenId",
					"type": "bytes32"
				},
				{
					"internalType": "bool",
					"name": "notify",
					"type": "bool"
				},
				{
					"internalType": "bytes",
					"name": "operatorNotificationData",
					"type": "bytes"
				}
			],
			"name": "revokeOperator",
			"outputs": [],
			"stateMutability": "nonpayable",
			"type": "function"
		},
		{
			"inputs": [
				{
					"internalType": "bytes32",
					"name": "dataKey",
					"type": "bytes32"
				},
				{
					"internalType": "bytes",
					"name": "dataValue",
					"type": "bytes"
				}
			],
			"name": "setData",
			"outputs": [],
			"stateMutability": "payable",
			"type": "function"
		},
		{
			"inputs": [
				{
					"internalType": "bytes32[]",
					"name": "dataKeys",
					"type": "bytes32[]"
				},
				{
					"internalType": "bytes[]",
					"name": "dataValues",
					"type": "bytes[]"
				}
			],
			"name": "setDataBatch",
			"outputs": [],
			"stateMutability": "payable",
			"type": "function"
		},
		{
			"inputs": [
				{
					"internalType": "bytes32[]",
					"name": "tokenIds",
					"type": "bytes32[]"
				},
				{
					"internalType": "bytes32[]",
					"name": "dataKeys",
					"type": "bytes32[]"
				},
				{
					"internalType": "bytes[]",
					"name": "dataValues",
					"type": "bytes[]"
				}
			],
			"name": "setDataBatchForTokenIds",
			"outputs": [],
			"stateMutability": "nonpayable",
			"type": "function"
		},
		{
			"inputs": [
				{
					"internalType": "bytes32",
					"name": "tokenId",
					"type": "bytes32"
				},
				{
					"internalType": "bytes32",
					"name": "dataKey",
					"type": "bytes32"
				},
				{
					"internalType": "bytes",
					"name": "dataValue",
					"type": "bytes"
				}
			],
			"name": "setDataForTokenId",
			"outputs": [],
			"stateMutability": "nonpayable",
			"type": "function"
		},
		{
			"inputs": [
				{
					"internalType": "bytes4",
					"name": "interfaceId",
					"type": "bytes4"
				}
			],
			"name": "supportsInterface",
			"outputs": [
				{
					"internalType": "bool",
					"name": "",
					"type": "bool"
				}
			],
			"stateMutability": "view",
			"type": "function"
		},
		{
			"inputs": [
				{
					"internalType": "address",
					"name": "tokenOwner",
					"type": "address"
				}
			],
			"name": "tokenIdsOf",
			"outputs": [
				{
					"internalType": "bytes32[]",
					"name": "",
					"type": "bytes32[]"
				}
			],
			"stateMutability": "view",
			"type": "function"
		},
		{
			"inputs": [
				{
					"internalType": "bytes32",
					"name": "tokenId",
					"type": "bytes32"
				}
			],
			"name": "tokenOwnerOf",
			"outputs": [
				{
					"internalType": "address",
					"name": "",
					"type": "address"
				}
			],
			"stateMutability": "view",
			"type": "function"
		},
		{
			"inputs": [],
			"name": "totalSupply",
			"outputs": [
				{
					"internalType": "uint256",
					"name": "",
					"type": "uint256"
				}
			],
			"stateMutability": "view",
			"type": "function"
		},
		{
			"inputs": [
				{
					"internalType": "address",
					"name": "from",
					"type": "address"
				},
				{
					"internalType": "address",
					"name": "to",
					"type": "address"
				},
				{
					"internalType": "bytes32",
					"name": "tokenId",
					"type": "bytes32"
				},
				{
					"internalType": "bool",
					"name": "force",
					"type": "bool"
				},
				{
					"internalType": "bytes",
					"name": "data",
					"type": "bytes"
				}
			],
			"name": "transfer",
			"outputs": [],
			"stateMutability": "nonpayable",
			"type": "function"
		},
		{
			"inputs": [
				{
					"internalType": "address payable",
					"name": "_to",
					"type": "address"
				},
				{
					"internalType": "uint256",
					"name": "_amount",
					"type": "uint256"
				}
			],
			"name": "transferBalance",
			"outputs": [],
			"stateMutability": "nonpayable",
			"type": "function"
		},
		{
			"inputs": [
				{
					"internalType": "address[]",
					"name": "from",
					"type": "address[]"
				},
				{
					"internalType": "address[]",
					"name": "to",
					"type": "address[]"
				},
				{
					"internalType": "bytes32[]",
					"name": "tokenId",
					"type": "bytes32[]"
				},
				{
					"internalType": "bool[]",
					"name": "force",
					"type": "bool[]"
				},
				{
					"internalType": "bytes[]",
					"name": "data",
					"type": "bytes[]"
				}
			],
			"name": "transferBatch",
			"outputs": [],
			"stateMutability": "nonpayable",
			"type": "function"
		},
		{
			"inputs": [
				{
					"internalType": "address",
					"name": "newOwner",
					"type": "address"
				}
			],
			"name": "transferOwnership",
			"outputs": [],
			"stateMutability": "nonpayable",
			"type": "function"
		},
		{
			"inputs": [],
			"name": "unpause",
			"outputs": [],
			"stateMutability": "nonpayable",
			"type": "function"
		},
		{
			"inputs": [
				{
					"internalType": "string",
					"name": "_name",
					"type": "string"
				},
				{
					"internalType": "bytes",
					"name": "_metadata",
					"type": "bytes"
				}
			],
			"name": "updateMetadata",
			"outputs": [],
			"stateMutability": "nonpayable",
			"type": "function"
		},
		{
			"inputs": [
				{
					"internalType": "uint256",
					"name": "_price",
					"type": "uint256"
				}
			],
			"name": "updatePrice",
			"outputs": [],
			"stateMutability": "nonpayable",
			"type": "function"
		},
		{
			"inputs": [],
			"name": "withdraw",
			"outputs": [],
			"stateMutability": "nonpayable",
			"type": "function"
		},
		{
			"stateMutability": "payable",
			"type": "receive"
		}
	]
}